{
	"lottery (1).sol": {
		"lottersystem": {
			"abi": [
				{
					"inputs": [],
					"stateMutability": "nonpayable",
					"type": "constructor"
				},
				{
					"inputs": [],
					"name": "Declarelottery",
					"outputs": [
						{
							"internalType": "string",
							"name": "",
							"type": "string"
						},
						{
							"internalType": "address",
							"name": "",
							"type": "address"
						}
					],
					"stateMutability": "nonpayable",
					"type": "function"
				},
				{
					"inputs": [],
					"name": "Winnername",
					"outputs": [
						{
							"internalType": "string",
							"name": "",
							"type": "string"
						},
						{
							"internalType": "address",
							"name": "",
							"type": "address"
						}
					],
					"stateMutability": "view",
					"type": "function"
				},
				{
					"inputs": [
						{
							"internalType": "string",
							"name": "name",
							"type": "string"
						}
					],
					"name": "buylotter",
					"outputs": [],
					"stateMutability": "payable",
					"type": "function"
				},
				{
					"inputs": [],
					"name": "lotteryticket",
					"outputs": [
						{
							"internalType": "uint256",
							"name": "",
							"type": "uint256"
						}
					],
					"stateMutability": "view",
					"type": "function"
				},
				{
					"inputs": [],
					"name": "transfermoneytowinner",
					"outputs": [],
					"stateMutability": "payable",
					"type": "function"
				}
			],
			"devdoc": {
				"kind": "dev",
				"methods": {},
				"version": 1
			},
			"evm": {
				"assembly": "    /* \"lottery (1).sol\":61:2300  contract lottersystem{... */\n  mstore(0x40, 0x80)\n    /* \"lottery (1).sol\":306:382  constructor(){... */\n  callvalue\n  dup1\n  iszero\n  tag_1\n  jumpi\n  0x00\n  dup1\n  revert\ntag_1:\n  pop\n    /* \"lottery (1).sol\":342:347  false */\n  0x00\n    /* \"lottery (1).sol\":330:341  lotteryover */\n  0x02\n  0x14\n    /* \"lottery (1).sol\":330:347  lotteryover=false */\n  0x0100\n  exp\n  dup2\n  sload\n  dup2\n  0xff\n  mul\n  not\n  and\n  swap1\n  dup4\n  iszero\n  iszero\n  mul\n  or\n  swap1\n  sstore\n  pop\n    /* \"lottery (1).sol\":364:374  msg.sender */\n  caller\n    /* \"lottery (1).sol\":358:363  owner */\n  0x03\n  0x00\n    /* \"lottery (1).sol\":358:374  owner=msg.sender */\n  0x0100\n  exp\n  dup2\n  sload\n  dup2\n  0xffffffffffffffffffffffffffffffffffffffff\n  mul\n  not\n  and\n  swap1\n  dup4\n  0xffffffffffffffffffffffffffffffffffffffff\n  and\n  mul\n  or\n  swap1\n  sstore\n  pop\n    /* \"lottery (1).sol\":61:2300  contract lottersystem{... */\n  dataSize(sub_0)\n  dup1\n  dataOffset(sub_0)\n  0x00\n  codecopy\n  0x00\n  return\nstop\n\nsub_0: assembly {\n        /* \"lottery (1).sol\":61:2300  contract lottersystem{... */\n      mstore(0x40, 0x80)\n      jumpi(tag_1, lt(calldatasize, 0x04))\n      shr(0xe0, calldataload(0x00))\n      dup1\n      0x0a48cead\n      eq\n      tag_2\n      jumpi\n      dup1\n      0x10463801\n      eq\n      tag_3\n      jumpi\n      dup1\n      0xb3423248\n      eq\n      tag_4\n      jumpi\n      dup1\n      0xdb1331fa\n      eq\n      tag_5\n      jumpi\n      dup1\n      0xe81d0011\n      eq\n      tag_6\n      jumpi\n    tag_1:\n      0x00\n      dup1\n      revert\n        /* \"lottery (1).sol\":1753:1990  function Winnername() public onlyowner view returns(string memory , address){... */\n    tag_2:\n      callvalue\n      dup1\n      iszero\n      tag_7\n      jumpi\n      0x00\n      dup1\n      revert\n    tag_7:\n      pop\n      tag_8\n      tag_9\n      jump\t// in\n    tag_8:\n      mload(0x40)\n      tag_10\n      swap3\n      swap2\n      swap1\n      tag_11\n      jump\t// in\n    tag_10:\n      mload(0x40)\n      dup1\n      swap2\n      sub\n      swap1\n      return\n        /* \"lottery (1).sol\":1371:1746  function  Declarelottery() public  onlyowner returns(string  memory , address){... */\n    tag_3:\n      callvalue\n      dup1\n      iszero\n      tag_12\n      jumpi\n      0x00\n      dup1\n      revert\n    tag_12:\n      pop\n      tag_13\n      tag_14\n      jump\t// in\n    tag_13:\n      mload(0x40)\n      tag_15\n      swap3\n      swap2\n      swap1\n      tag_11\n      jump\t// in\n    tag_15:\n      mload(0x40)\n      dup1\n      swap2\n      sub\n      swap1\n      return\n        /* \"lottery (1).sol\":1996:2296  function transfermoneytowinner() public payable onlyowner{... */\n    tag_4:\n      tag_16\n      tag_17\n      jump\t// in\n    tag_16:\n      stop\n        /* \"lottery (1).sol\":129:178  uint public constant lotteryticket = 10 * 1 ether */\n    tag_5:\n      callvalue\n      dup1\n      iszero\n      tag_18\n      jumpi\n      0x00\n      dup1\n      revert\n    tag_18:\n      pop\n      tag_19\n      tag_20\n      jump\t// in\n    tag_19:\n      mload(0x40)\n      tag_21\n      swap2\n      swap1\n      tag_22\n      jump\t// in\n    tag_21:\n      mload(0x40)\n      dup1\n      swap2\n      sub\n      swap1\n      return\n        /* \"lottery (1).sol\":1009:1365  function  buylotter(string memory name) public payable {... */\n    tag_6:\n      tag_23\n      0x04\n      dup1\n      calldatasize\n      sub\n      dup2\n      add\n      swap1\n      tag_24\n      swap2\n      swap1\n      tag_25\n      jump\t// in\n    tag_24:\n      tag_26\n      jump\t// in\n    tag_23:\n      stop\n        /* \"lottery (1).sol\":1753:1990  function Winnername() public onlyowner view returns(string memory , address){... */\n    tag_9:\n        /* \"lottery (1).sol\":1805:1818  string memory */\n      0x60\n        /* \"lottery (1).sol\":1821:1828  address */\n      0x00\n        /* \"lottery (1).sol\":439:444  owner */\n      0x03\n      0x00\n      swap1\n      sload\n      swap1\n      0x0100\n      exp\n      swap1\n      div\n      0xffffffffffffffffffffffffffffffffffffffff\n      and\n        /* \"lottery (1).sol\":427:444  msg.sender==owner */\n      0xffffffffffffffffffffffffffffffffffffffff\n      and\n        /* \"lottery (1).sol\":427:437  msg.sender */\n      caller\n        /* \"lottery (1).sol\":427:444  msg.sender==owner */\n      0xffffffffffffffffffffffffffffffffffffffff\n      and\n      eq\n        /* \"lottery (1).sol\":419:461  require(msg.sender==owner,\"not the owner\") */\n      tag_28\n      jumpi\n      mload(0x40)\n      0x08c379a000000000000000000000000000000000000000000000000000000000\n      dup2\n      mstore\n      0x04\n      add\n      tag_29\n      swap1\n      tag_30\n      jump\t// in\n    tag_29:\n      mload(0x40)\n      dup1\n      swap2\n      sub\n      swap1\n      revert\n    tag_28:\n        /* \"lottery (1).sol\":1861:1865  true */\n      0x01\n        /* \"lottery (1).sol\":1848:1865  lotteryover==true */\n      iszero\n      iszero\n        /* \"lottery (1).sol\":1848:1859  lotteryover */\n      0x02\n      0x14\n      swap1\n      sload\n      swap1\n      0x0100\n      exp\n      swap1\n      div\n      0xff\n      and\n        /* \"lottery (1).sol\":1848:1865  lotteryover==true */\n      iszero\n      iszero\n      eq\n        /* \"lottery (1).sol\":1840:1897  require(lotteryover==true,\"winner is still not declared\") */\n      tag_32\n      jumpi\n      mload(0x40)\n      0x08c379a000000000000000000000000000000000000000000000000000000000\n      dup2\n      mstore\n      0x04\n      add\n      tag_33\n      swap1\n      tag_34\n      jump\t// in\n    tag_33:\n      mload(0x40)\n      dup1\n      swap2\n      sub\n      swap1\n      revert\n    tag_32:\n        /* \"lottery (1).sol\":1916:1928  participants */\n      0x04\n        /* \"lottery (1).sol\":1916:1942  participants[lotterwinner] */\n      0x00\n        /* \"lottery (1).sol\":1929:1941  lotterwinner */\n      0x02\n      0x00\n      swap1\n      sload\n      swap1\n      0x0100\n      exp\n      swap1\n      div\n      0xffffffffffffffffffffffffffffffffffffffff\n      and\n        /* \"lottery (1).sol\":1916:1942  participants[lotterwinner] */\n      0xffffffffffffffffffffffffffffffffffffffff\n      and\n      0xffffffffffffffffffffffffffffffffffffffff\n      and\n      dup2\n      mstore\n      0x20\n      add\n      swap1\n      dup2\n      mstore\n      0x20\n      add\n      0x00\n      keccak256\n        /* \"lottery (1).sol\":1916:1947  participants[lotterwinner].name */\n      0x00\n      add\n        /* \"lottery (1).sol\":1948:1960  participants */\n      0x04\n        /* \"lottery (1).sol\":1948:1974  participants[lotterwinner] */\n      0x00\n        /* \"lottery (1).sol\":1961:1973  lotterwinner */\n      0x02\n      0x00\n      swap1\n      sload\n      swap1\n      0x0100\n      exp\n      swap1\n      div\n      0xffffffffffffffffffffffffffffffffffffffff\n      and\n        /* \"lottery (1).sol\":1948:1974  participants[lotterwinner] */\n      0xffffffffffffffffffffffffffffffffffffffff\n      and\n      0xffffffffffffffffffffffffffffffffffffffff\n      and\n      dup2\n      mstore\n      0x20\n      add\n      swap1\n      dup2\n      mstore\n      0x20\n      add\n      0x00\n      keccak256\n        /* \"lottery (1).sol\":1948:1981  participants[lotterwinner].wallet */\n      0x01\n      add\n      0x00\n      swap1\n      sload\n      swap1\n      0x0100\n      exp\n      swap1\n      div\n      0xffffffffffffffffffffffffffffffffffffffff\n      and\n        /* \"lottery (1).sol\":1908:1982  return (participants[lotterwinner].name,participants[lotterwinner].wallet) */\n      dup2\n      dup1\n      sload\n      tag_35\n      swap1\n      tag_36\n      jump\t// in\n    tag_35:\n      dup1\n      0x1f\n      add\n      0x20\n      dup1\n      swap2\n      div\n      mul\n      0x20\n      add\n      mload(0x40)\n      swap1\n      dup2\n      add\n      0x40\n      mstore\n      dup1\n      swap3\n      swap2\n      swap1\n      dup2\n      dup2\n      mstore\n      0x20\n      add\n      dup3\n      dup1\n      sload\n      tag_37\n      swap1\n      tag_36\n      jump\t// in\n    tag_37:\n      dup1\n      iszero\n      tag_38\n      jumpi\n      dup1\n      0x1f\n      lt\n      tag_39\n      jumpi\n      0x0100\n      dup1\n      dup4\n      sload\n      div\n      mul\n      dup4\n      mstore\n      swap2\n      0x20\n      add\n      swap2\n      jump(tag_38)\n    tag_39:\n      dup3\n      add\n      swap2\n      swap1\n      0x00\n      mstore\n      keccak256(0x00, 0x20)\n      swap1\n    tag_40:\n      dup2\n      sload\n      dup2\n      mstore\n      swap1\n      0x01\n      add\n      swap1\n      0x20\n      add\n      dup1\n      dup4\n      gt\n      tag_40\n      jumpi\n      dup3\n      swap1\n      sub\n      0x1f\n      and\n      dup3\n      add\n      swap2\n    tag_38:\n      pop\n      pop\n      pop\n      pop\n      pop\n      swap2\n      pop\n      swap2\n      pop\n      swap2\n      pop\n        /* \"lottery (1).sol\":1753:1990  function Winnername() public onlyowner view returns(string memory , address){... */\n      swap1\n      swap2\n      jump\t// out\n        /* \"lottery (1).sol\":1371:1746  function  Declarelottery() public  onlyowner returns(string  memory , address){... */\n    tag_14:\n        /* \"lottery (1).sol\":1424:1438  string  memory */\n      0x60\n        /* \"lottery (1).sol\":1441:1448  address */\n      0x00\n        /* \"lottery (1).sol\":439:444  owner */\n      0x03\n      0x00\n      swap1\n      sload\n      swap1\n      0x0100\n      exp\n      swap1\n      div\n      0xffffffffffffffffffffffffffffffffffffffff\n      and\n        /* \"lottery (1).sol\":427:444  msg.sender==owner */\n      0xffffffffffffffffffffffffffffffffffffffff\n      and\n        /* \"lottery (1).sol\":427:437  msg.sender */\n      caller\n        /* \"lottery (1).sol\":427:444  msg.sender==owner */\n      0xffffffffffffffffffffffffffffffffffffffff\n      and\n      eq\n        /* \"lottery (1).sol\":419:461  require(msg.sender==owner,\"not the owner\") */\n      tag_42\n      jumpi\n      mload(0x40)\n      0x08c379a000000000000000000000000000000000000000000000000000000000\n      dup2\n      mstore\n      0x04\n      add\n      tag_43\n      swap1\n      tag_30\n      jump\t// in\n    tag_43:\n      mload(0x40)\n      dup1\n      swap2\n      sub\n      swap1\n      revert\n    tag_42:\n        /* \"lottery (1).sol\":1481:1486  false */\n      0x00\n        /* \"lottery (1).sol\":1468:1486  lotteryover==false */\n      iszero\n      iszero\n        /* \"lottery (1).sol\":1468:1479  lotteryover */\n      0x02\n      0x14\n      swap1\n      sload\n      swap1\n      0x0100\n      exp\n      swap1\n      div\n      0xff\n      and\n        /* \"lottery (1).sol\":1468:1486  lotteryover==false */\n      iszero\n      iszero\n      eq\n        /* \"lottery (1).sol\":1460:1507  require(lotteryover==false,\"aldready declared\") */\n      tag_45\n      jumpi\n      mload(0x40)\n      0x08c379a000000000000000000000000000000000000000000000000000000000\n      dup2\n      mstore\n      0x04\n      add\n      tag_46\n      swap1\n      tag_47\n      jump\t// in\n    tag_46:\n      mload(0x40)\n      dup1\n      swap2\n      sub\n      swap1\n      revert\n    tag_45:\n        /* \"lottery (1).sol\":1519:1530  uint  index */\n      0x00\n        /* \"lottery (1).sol\":1556:1566  candidates */\n      0x05\n        /* \"lottery (1).sol\":1556:1573  candidates.length */\n      dup1\n      sload\n      swap1\n      pop\n        /* \"lottery (1).sol\":1536:1551  block.timestamp */\n      timestamp\n        /* \"lottery (1).sol\":1531:1574  uint(block.timestamp) % (candidates.length) */\n      tag_48\n      swap2\n      swap1\n      tag_49\n      jump\t// in\n    tag_48:\n        /* \"lottery (1).sol\":1519:1574  uint  index=uint(block.timestamp) % (candidates.length) */\n      swap1\n      pop\n        /* \"lottery (1).sol\":1599:1609  candidates */\n      0x05\n        /* \"lottery (1).sol\":1610:1615  index */\n      dup2\n        /* \"lottery (1).sol\":1599:1616  candidates[index] */\n      dup2\n      sload\n      dup2\n      lt\n      tag_50\n      jumpi\n      tag_51\n      tag_52\n      jump\t// in\n    tag_51:\n    tag_50:\n      swap1\n      0x00\n      mstore\n      keccak256(0x00, 0x20)\n      swap1\n      0x02\n      mul\n      add\n        /* \"lottery (1).sol\":1599:1623  candidates[index].wallet */\n      0x01\n      add\n      0x00\n      swap1\n      sload\n      swap1\n      0x0100\n      exp\n      swap1\n      div\n      0xffffffffffffffffffffffffffffffffffffffff\n      and\n        /* \"lottery (1).sol\":1586:1598  lotterwinner */\n      0x02\n      0x00\n        /* \"lottery (1).sol\":1586:1623  lotterwinner=candidates[index].wallet */\n      0x0100\n      exp\n      dup2\n      sload\n      dup2\n      0xffffffffffffffffffffffffffffffffffffffff\n      mul\n      not\n      and\n      swap1\n      dup4\n      0xffffffffffffffffffffffffffffffffffffffff\n      and\n      mul\n      or\n      swap1\n      sstore\n      pop\n        /* \"lottery (1).sol\":1647:1651  true */\n      0x01\n        /* \"lottery (1).sol\":1635:1646  lotteryover */\n      0x02\n      0x14\n        /* \"lottery (1).sol\":1635:1651  lotteryover=true */\n      0x0100\n      exp\n      dup2\n      sload\n      dup2\n      0xff\n      mul\n      not\n      and\n      swap1\n      dup4\n      iszero\n      iszero\n      mul\n      or\n      swap1\n      sstore\n      pop\n        /* \"lottery (1).sol\":1671:1681  candidates */\n      0x05\n        /* \"lottery (1).sol\":1682:1687  index */\n      dup2\n        /* \"lottery (1).sol\":1671:1688  candidates[index] */\n      dup2\n      sload\n      dup2\n      lt\n      tag_54\n      jumpi\n      tag_55\n      tag_52\n      jump\t// in\n    tag_55:\n    tag_54:\n      swap1\n      0x00\n      mstore\n      keccak256(0x00, 0x20)\n      swap1\n      0x02\n      mul\n      add\n        /* \"lottery (1).sol\":1671:1693  candidates[index].name */\n      0x00\n      add\n        /* \"lottery (1).sol\":1696:1706  candidates */\n      0x05\n        /* \"lottery (1).sol\":1707:1712  index */\n      dup3\n        /* \"lottery (1).sol\":1696:1713  candidates[index] */\n      dup2\n      sload\n      dup2\n      lt\n      tag_57\n      jumpi\n      tag_58\n      tag_52\n      jump\t// in\n    tag_58:\n    tag_57:\n      swap1\n      0x00\n      mstore\n      keccak256(0x00, 0x20)\n      swap1\n      0x02\n      mul\n      add\n        /* \"lottery (1).sol\":1696:1720  candidates[index].wallet */\n      0x01\n      add\n      0x00\n      swap1\n      sload\n      swap1\n      0x0100\n      exp\n      swap1\n      div\n      0xffffffffffffffffffffffffffffffffffffffff\n      and\n        /* \"lottery (1).sol\":1663:1721  return (candidates[index].name , candidates[index].wallet) */\n      dup2\n      dup1\n      sload\n      tag_60\n      swap1\n      tag_36\n      jump\t// in\n    tag_60:\n      dup1\n      0x1f\n      add\n      0x20\n      dup1\n      swap2\n      div\n      mul\n      0x20\n      add\n      mload(0x40)\n      swap1\n      dup2\n      add\n      0x40\n      mstore\n      dup1\n      swap3\n      swap2\n      swap1\n      dup2\n      dup2\n      mstore\n      0x20\n      add\n      dup3\n      dup1\n      sload\n      tag_61\n      swap1\n      tag_36\n      jump\t// in\n    tag_61:\n      dup1\n      iszero\n      tag_62\n      jumpi\n      dup1\n      0x1f\n      lt\n      tag_63\n      jumpi\n      0x0100\n      dup1\n      dup4\n      sload\n      div\n      mul\n      dup4\n      mstore\n      swap2\n      0x20\n      add\n      swap2\n      jump(tag_62)\n    tag_63:\n      dup3\n      add\n      swap2\n      swap1\n      0x00\n      mstore\n      keccak256(0x00, 0x20)\n      swap1\n    tag_64:\n      dup2\n      sload\n      dup2\n      mstore\n      swap1\n      0x01\n      add\n      swap1\n      0x20\n      add\n      dup1\n      dup4\n      gt\n      tag_64\n      jumpi\n      dup3\n      swap1\n      sub\n      0x1f\n      and\n      dup3\n      add\n      swap2\n    tag_62:\n      pop\n      pop\n      pop\n      pop\n      pop\n      swap2\n      pop\n      swap3\n      pop\n      swap3\n      pop\n      pop\n        /* \"lottery (1).sol\":1371:1746  function  Declarelottery() public  onlyowner returns(string  memory , address){... */\n      swap1\n      swap2\n      jump\t// out\n        /* \"lottery (1).sol\":1996:2296  function transfermoneytowinner() public payable onlyowner{... */\n    tag_17:\n        /* \"lottery (1).sol\":439:444  owner */\n      0x03\n      0x00\n      swap1\n      sload\n      swap1\n      0x0100\n      exp\n      swap1\n      div\n      0xffffffffffffffffffffffffffffffffffffffff\n      and\n        /* \"lottery (1).sol\":427:444  msg.sender==owner */\n      0xffffffffffffffffffffffffffffffffffffffff\n      and\n        /* \"lottery (1).sol\":427:437  msg.sender */\n      caller\n        /* \"lottery (1).sol\":427:444  msg.sender==owner */\n      0xffffffffffffffffffffffffffffffffffffffff\n      and\n      eq\n        /* \"lottery (1).sol\":419:461  require(msg.sender==owner,\"not the owner\") */\n      tag_66\n      jumpi\n      mload(0x40)\n      0x08c379a000000000000000000000000000000000000000000000000000000000\n      dup2\n      mstore\n      0x04\n      add\n      tag_67\n      swap1\n      tag_30\n      jump\t// in\n    tag_67:\n      mload(0x40)\n      dup1\n      swap2\n      sub\n      swap1\n      revert\n    tag_66:\n        /* \"lottery (1).sol\":2089:2094  false */\n      0x00\n        /* \"lottery (1).sol\":2072:2094  moneytransfered==false */\n      iszero\n      iszero\n        /* \"lottery (1).sol\":2072:2087  moneytransfered */\n      0x03\n      0x14\n      swap1\n      sload\n      swap1\n      0x0100\n      exp\n      swap1\n      div\n      0xff\n      and\n        /* \"lottery (1).sol\":2072:2094  moneytransfered==false */\n      iszero\n      iszero\n      eq\n        /* \"lottery (1).sol\":2064:2123  require(moneytransfered==false,\"money aldready transfered\") */\n      tag_69\n      jumpi\n      mload(0x40)\n      0x08c379a000000000000000000000000000000000000000000000000000000000\n      dup2\n      mstore\n      0x04\n      add\n      tag_70\n      swap1\n      tag_71\n      jump\t// in\n    tag_70:\n      mload(0x40)\n      dup1\n      swap2\n      sub\n      swap1\n      revert\n    tag_69:\n        /* \"lottery (1).sol\":2155:2159  true */\n      0x01\n        /* \"lottery (1).sol\":2142:2159  lotteryover==true */\n      iszero\n      iszero\n        /* \"lottery (1).sol\":2142:2153  lotteryover */\n      0x02\n      0x14\n      swap1\n      sload\n      swap1\n      0x0100\n      exp\n      swap1\n      div\n      0xff\n      and\n        /* \"lottery (1).sol\":2142:2159  lotteryover==true */\n      iszero\n      iszero\n      eq\n        /* \"lottery (1).sol\":2134:2191  require(lotteryover==true,\"winner is still not declared\") */\n      tag_72\n      jumpi\n      mload(0x40)\n      0x08c379a000000000000000000000000000000000000000000000000000000000\n      dup2\n      mstore\n      0x04\n      add\n      tag_73\n      swap1\n      tag_34\n      jump\t// in\n    tag_73:\n      mload(0x40)\n      dup1\n      swap2\n      sub\n      swap1\n      revert\n    tag_72:\n        /* \"lottery (1).sol\":2218:2222  true */\n      0x01\n        /* \"lottery (1).sol\":2202:2217  moneytransfered */\n      0x03\n      0x14\n        /* \"lottery (1).sol\":2202:2222  moneytransfered=true */\n      0x0100\n      exp\n      dup2\n      sload\n      dup2\n      0xff\n      mul\n      not\n      and\n      swap1\n      dup4\n      iszero\n      iszero\n      mul\n      or\n      swap1\n      sstore\n      pop\n        /* \"lottery (1).sol\":2241:2253  lotterwinner */\n      0x02\n      0x00\n      swap1\n      sload\n      swap1\n      0x0100\n      exp\n      swap1\n      div\n      0xffffffffffffffffffffffffffffffffffffffff\n      and\n        /* \"lottery (1).sol\":2233:2263  payable(lotterwinner).transfer */\n      0xffffffffffffffffffffffffffffffffffffffff\n      and\n        /* \"lottery (1).sol\":2233:2286  payable(lotterwinner).transfer(address(this).balance) */\n      0x08fc\n        /* \"lottery (1).sol\":2264:2285  address(this).balance */\n      selfbalance\n        /* \"lottery (1).sol\":2233:2286  payable(lotterwinner).transfer(address(this).balance) */\n      swap1\n      dup2\n      iszero\n      mul\n      swap1\n      mload(0x40)\n      0x00\n      mload(0x40)\n      dup1\n      dup4\n      sub\n      dup2\n      dup6\n      dup9\n      dup9\n      call\n      swap4\n      pop\n      pop\n      pop\n      pop\n      iszero\n      dup1\n      iszero\n      tag_75\n      jumpi\n      returndatasize\n      0x00\n      dup1\n      returndatacopy\n      revert(0x00, returndatasize)\n    tag_75:\n      pop\n        /* \"lottery (1).sol\":1996:2296  function transfermoneytowinner() public payable onlyowner{... */\n      jump\t// out\n        /* \"lottery (1).sol\":129:178  uint public constant lotteryticket = 10 * 1 ether */\n    tag_20:\n        /* \"lottery (1).sol\":166:178  10 * 1 ether */\n      0x8ac7230489e80000\n        /* \"lottery (1).sol\":129:178  uint public constant lotteryticket = 10 * 1 ether */\n      dup2\n      jump\t// out\n        /* \"lottery (1).sol\":1009:1365  function  buylotter(string memory name) public payable {... */\n    tag_26:\n        /* \"lottery (1).sol\":166:178  10 * 1 ether */\n      0x8ac7230489e80000\n        /* \"lottery (1).sol\":1083:1092  msg.value */\n      callvalue\n        /* \"lottery (1).sol\":1083:1107  msg.value==lotteryticket */\n      eq\n        /* \"lottery (1).sol\":1075:1143  require(msg.value==lotteryticket,\" pay 10 ether to buy one lottery\") */\n      tag_77\n      jumpi\n      mload(0x40)\n      0x08c379a000000000000000000000000000000000000000000000000000000000\n      dup2\n      mstore\n      0x04\n      add\n      tag_78\n      swap1\n      tag_79\n      jump\t// in\n    tag_78:\n      mload(0x40)\n      dup1\n      swap2\n      sub\n      swap1\n      revert\n    tag_77:\n        /* \"lottery (1).sol\":1204:1209  false */\n      0x00\n        /* \"lottery (1).sol\":1162:1209  participants[msg.sender].hasparticipated==false */\n      iszero\n      iszero\n        /* \"lottery (1).sol\":1162:1174  participants */\n      0x04\n        /* \"lottery (1).sol\":1162:1186  participants[msg.sender] */\n      0x00\n        /* \"lottery (1).sol\":1175:1185  msg.sender */\n      caller\n        /* \"lottery (1).sol\":1162:1186  participants[msg.sender] */\n      0xffffffffffffffffffffffffffffffffffffffff\n      and\n      0xffffffffffffffffffffffffffffffffffffffff\n      and\n      dup2\n      mstore\n      0x20\n      add\n      swap1\n      dup2\n      mstore\n      0x20\n      add\n      0x00\n      keccak256\n        /* \"lottery (1).sol\":1162:1202  participants[msg.sender].hasparticipated */\n      0x01\n      add\n      0x14\n      swap1\n      sload\n      swap1\n      0x0100\n      exp\n      swap1\n      div\n      0xff\n      and\n        /* \"lottery (1).sol\":1162:1209  participants[msg.sender].hasparticipated==false */\n      iszero\n      iszero\n      eq\n        /* \"lottery (1).sol\":1154:1239  require(participants[msg.sender].hasparticipated==false,\"you aldready bought ticket\") */\n      tag_80\n      jumpi\n      mload(0x40)\n      0x08c379a000000000000000000000000000000000000000000000000000000000\n      dup2\n      mstore\n      0x04\n      add\n      tag_81\n      swap1\n      tag_82\n      jump\t// in\n    tag_81:\n      mload(0x40)\n      dup1\n      swap2\n      sub\n      swap1\n      revert\n    tag_80:\n        /* \"lottery (1).sol\":1275:1301  user(name,msg.sender,true) */\n      mload(0x40)\n      dup1\n      0x60\n      add\n      0x40\n      mstore\n      dup1\n        /* \"lottery (1).sol\":1280:1284  name */\n      dup3\n        /* \"lottery (1).sol\":1275:1301  user(name,msg.sender,true) */\n      dup2\n      mstore\n      0x20\n      add\n        /* \"lottery (1).sol\":1285:1295  msg.sender */\n      caller\n        /* \"lottery (1).sol\":1275:1301  user(name,msg.sender,true) */\n      0xffffffffffffffffffffffffffffffffffffffff\n      and\n      dup2\n      mstore\n      0x20\n      add\n        /* \"lottery (1).sol\":1296:1300  true */\n      0x01\n        /* \"lottery (1).sol\":1275:1301  user(name,msg.sender,true) */\n      iszero\n      iszero\n      dup2\n      mstore\n      pop\n        /* \"lottery (1).sol\":1250:1262  participants */\n      0x04\n        /* \"lottery (1).sol\":1250:1274  participants[msg.sender] */\n      0x00\n        /* \"lottery (1).sol\":1263:1273  msg.sender */\n      caller\n        /* \"lottery (1).sol\":1250:1274  participants[msg.sender] */\n      0xffffffffffffffffffffffffffffffffffffffff\n      and\n      0xffffffffffffffffffffffffffffffffffffffff\n      and\n      dup2\n      mstore\n      0x20\n      add\n      swap1\n      dup2\n      mstore\n      0x20\n      add\n      0x00\n      keccak256\n        /* \"lottery (1).sol\":1250:1301  participants[msg.sender]=user(name,msg.sender,true) */\n      0x00\n      dup3\n      add\n      mload\n      dup2\n      0x00\n      add\n      swap1\n      dup2\n      tag_83\n      swap2\n      swap1\n      tag_84\n      jump\t// in\n    tag_83:\n      pop\n      0x20\n      dup3\n      add\n      mload\n      dup2\n      0x01\n      add\n      exp(0x0100, 0x00)\n      dup2\n      sload\n      dup2\n      0xffffffffffffffffffffffffffffffffffffffff\n      mul\n      not\n      and\n      swap1\n      dup4\n      0xffffffffffffffffffffffffffffffffffffffff\n      and\n      mul\n      or\n      swap1\n      sstore\n      pop\n      0x40\n      dup3\n      add\n      mload\n      dup2\n      0x01\n      add\n      exp(0x0100, 0x14)\n      dup2\n      sload\n      dup2\n      0xff\n      mul\n      not\n      and\n      swap1\n      dup4\n      iszero\n      iszero\n      mul\n      or\n      swap1\n      sstore\n      pop\n      swap1\n      pop\n      pop\n        /* \"lottery (1).sol\":1312:1322  candidates */\n      0x05\n        /* \"lottery (1).sol\":1328:1340  participants */\n      0x04\n        /* \"lottery (1).sol\":1328:1352  participants[msg.sender] */\n      0x00\n        /* \"lottery (1).sol\":1341:1351  msg.sender */\n      caller\n        /* \"lottery (1).sol\":1328:1352  participants[msg.sender] */\n      0xffffffffffffffffffffffffffffffffffffffff\n      and\n      0xffffffffffffffffffffffffffffffffffffffff\n      and\n      dup2\n      mstore\n      0x20\n      add\n      swap1\n      dup2\n      mstore\n      0x20\n      add\n      0x00\n      keccak256\n        /* \"lottery (1).sol\":1312:1353  candidates.push(participants[msg.sender]) */\n      swap1\n      dup1\n      0x01\n      dup2\n      sload\n      add\n      dup1\n      dup3\n      sstore\n      dup1\n      swap2\n      pop\n      pop\n      0x01\n      swap1\n      sub\n      swap1\n      0x00\n      mstore\n      keccak256(0x00, 0x20)\n      swap1\n      0x02\n      mul\n      add\n      0x00\n      swap1\n      swap2\n      swap1\n      swap2\n      swap1\n      swap2\n      pop\n      0x00\n      dup3\n      add\n      dup2\n      0x00\n      add\n      swap1\n      dup2\n      tag_86\n      swap2\n      swap1\n      tag_87\n      jump\t// in\n    tag_86:\n      pop\n      0x01\n      dup3\n      add\n      0x00\n      swap1\n      sload\n      swap1\n      0x0100\n      exp\n      swap1\n      div\n      0xffffffffffffffffffffffffffffffffffffffff\n      and\n      dup2\n      0x01\n      add\n      exp(0x0100, 0x00)\n      dup2\n      sload\n      dup2\n      0xffffffffffffffffffffffffffffffffffffffff\n      mul\n      not\n      and\n      swap1\n      dup4\n      0xffffffffffffffffffffffffffffffffffffffff\n      and\n      mul\n      or\n      swap1\n      sstore\n      pop\n      0x01\n      dup3\n      add\n      0x14\n      swap1\n      sload\n      swap1\n      0x0100\n      exp\n      swap1\n      div\n      0xff\n      and\n      dup2\n      0x01\n      add\n      exp(0x0100, 0x14)\n      dup2\n      sload\n      dup2\n      0xff\n      mul\n      not\n      and\n      swap1\n      dup4\n      iszero\n      iszero\n      mul\n      or\n      swap1\n      sstore\n      pop\n      pop\n      pop\n        /* \"lottery (1).sol\":1009:1365  function  buylotter(string memory name) public payable {... */\n      pop\n      jump\t// out\n        /* \"#utility.yul\":7:106   */\n    tag_88:\n        /* \"#utility.yul\":59:65   */\n      0x00\n        /* \"#utility.yul\":93:98   */\n      dup2\n        /* \"#utility.yul\":87:99   */\n      mload\n        /* \"#utility.yul\":77:99   */\n      swap1\n      pop\n        /* \"#utility.yul\":7:106   */\n      swap2\n      swap1\n      pop\n      jump\t// out\n        /* \"#utility.yul\":112:281   */\n    tag_89:\n        /* \"#utility.yul\":196:207   */\n      0x00\n        /* \"#utility.yul\":230:236   */\n      dup3\n        /* \"#utility.yul\":225:228   */\n      dup3\n        /* \"#utility.yul\":218:237   */\n      mstore\n        /* \"#utility.yul\":270:274   */\n      0x20\n        /* \"#utility.yul\":265:268   */\n      dup3\n        /* \"#utility.yul\":261:275   */\n      add\n        /* \"#utility.yul\":246:275   */\n      swap1\n      pop\n        /* \"#utility.yul\":112:281   */\n      swap3\n      swap2\n      pop\n      pop\n      jump\t// out\n        /* \"#utility.yul\":287:426   */\n    tag_90:\n        /* \"#utility.yul\":376:382   */\n      dup3\n        /* \"#utility.yul\":371:374   */\n      dup2\n        /* \"#utility.yul\":366:369   */\n      dup4\n        /* \"#utility.yul\":360:383   */\n      mcopy\n        /* \"#utility.yul\":417:418   */\n      0x00\n        /* \"#utility.yul\":408:414   */\n      dup4\n        /* \"#utility.yul\":403:406   */\n      dup4\n        /* \"#utility.yul\":399:415   */\n      add\n        /* \"#utility.yul\":392:419   */\n      mstore\n        /* \"#utility.yul\":287:426   */\n      pop\n      pop\n      pop\n      jump\t// out\n        /* \"#utility.yul\":432:534   */\n    tag_91:\n        /* \"#utility.yul\":473:479   */\n      0x00\n        /* \"#utility.yul\":524:526   */\n      0x1f\n        /* \"#utility.yul\":520:527   */\n      not\n        /* \"#utility.yul\":515:517   */\n      0x1f\n        /* \"#utility.yul\":508:513   */\n      dup4\n        /* \"#utility.yul\":504:518   */\n      add\n        /* \"#utility.yul\":500:528   */\n      and\n        /* \"#utility.yul\":490:528   */\n      swap1\n      pop\n        /* \"#utility.yul\":432:534   */\n      swap2\n      swap1\n      pop\n      jump\t// out\n        /* \"#utility.yul\":540:917   */\n    tag_92:\n        /* \"#utility.yul\":628:631   */\n      0x00\n        /* \"#utility.yul\":656:695   */\n      tag_146\n        /* \"#utility.yul\":689:694   */\n      dup3\n        /* \"#utility.yul\":656:695   */\n      tag_88\n      jump\t// in\n    tag_146:\n        /* \"#utility.yul\":711:782   */\n      tag_147\n        /* \"#utility.yul\":775:781   */\n      dup2\n        /* \"#utility.yul\":770:773   */\n      dup6\n        /* \"#utility.yul\":711:782   */\n      tag_89\n      jump\t// in\n    tag_147:\n        /* \"#utility.yul\":704:782   */\n      swap4\n      pop\n        /* \"#utility.yul\":791:856   */\n      tag_148\n        /* \"#utility.yul\":849:855   */\n      dup2\n        /* \"#utility.yul\":844:847   */\n      dup6\n        /* \"#utility.yul\":837:841   */\n      0x20\n        /* \"#utility.yul\":830:835   */\n      dup7\n        /* \"#utility.yul\":826:842   */\n      add\n        /* \"#utility.yul\":791:856   */\n      tag_90\n      jump\t// in\n    tag_148:\n        /* \"#utility.yul\":881:910   */\n      tag_149\n        /* \"#utility.yul\":903:909   */\n      dup2\n        /* \"#utility.yul\":881:910   */\n      tag_91\n      jump\t// in\n    tag_149:\n        /* \"#utility.yul\":876:879   */\n      dup5\n        /* \"#utility.yul\":872:911   */\n      add\n        /* \"#utility.yul\":865:911   */\n      swap2\n      pop\n        /* \"#utility.yul\":632:917   */\n      pop\n        /* \"#utility.yul\":540:917   */\n      swap3\n      swap2\n      pop\n      pop\n      jump\t// out\n        /* \"#utility.yul\":923:1049   */\n    tag_93:\n        /* \"#utility.yul\":960:967   */\n      0x00\n        /* \"#utility.yul\":1000:1042   */\n      0xffffffffffffffffffffffffffffffffffffffff\n        /* \"#utility.yul\":993:998   */\n      dup3\n        /* \"#utility.yul\":989:1043   */\n      and\n        /* \"#utility.yul\":978:1043   */\n      swap1\n      pop\n        /* \"#utility.yul\":923:1049   */\n      swap2\n      swap1\n      pop\n      jump\t// out\n        /* \"#utility.yul\":1055:1151   */\n    tag_94:\n        /* \"#utility.yul\":1092:1099   */\n      0x00\n        /* \"#utility.yul\":1121:1145   */\n      tag_152\n        /* \"#utility.yul\":1139:1144   */\n      dup3\n        /* \"#utility.yul\":1121:1145   */\n      tag_93\n      jump\t// in\n    tag_152:\n        /* \"#utility.yul\":1110:1145   */\n      swap1\n      pop\n        /* \"#utility.yul\":1055:1151   */\n      swap2\n      swap1\n      pop\n      jump\t// out\n        /* \"#utility.yul\":1157:1275   */\n    tag_95:\n        /* \"#utility.yul\":1244:1268   */\n      tag_154\n        /* \"#utility.yul\":1262:1267   */\n      dup2\n        /* \"#utility.yul\":1244:1268   */\n      tag_94\n      jump\t// in\n    tag_154:\n        /* \"#utility.yul\":1239:1242   */\n      dup3\n        /* \"#utility.yul\":1232:1269   */\n      mstore\n        /* \"#utility.yul\":1157:1275   */\n      pop\n      pop\n      jump\t// out\n        /* \"#utility.yul\":1281:1704   */\n    tag_11:\n        /* \"#utility.yul\":1422:1426   */\n      0x00\n        /* \"#utility.yul\":1460:1462   */\n      0x40\n        /* \"#utility.yul\":1449:1458   */\n      dup3\n        /* \"#utility.yul\":1445:1463   */\n      add\n        /* \"#utility.yul\":1437:1463   */\n      swap1\n      pop\n        /* \"#utility.yul\":1509:1518   */\n      dup2\n        /* \"#utility.yul\":1503:1507   */\n      dup2\n        /* \"#utility.yul\":1499:1519   */\n      sub\n        /* \"#utility.yul\":1495:1496   */\n      0x00\n        /* \"#utility.yul\":1484:1493   */\n      dup4\n        /* \"#utility.yul\":1480:1497   */\n      add\n        /* \"#utility.yul\":1473:1520   */\n      mstore\n        /* \"#utility.yul\":1537:1615   */\n      tag_156\n        /* \"#utility.yul\":1610:1614   */\n      dup2\n        /* \"#utility.yul\":1601:1607   */\n      dup6\n        /* \"#utility.yul\":1537:1615   */\n      tag_92\n      jump\t// in\n    tag_156:\n        /* \"#utility.yul\":1529:1615   */\n      swap1\n      pop\n        /* \"#utility.yul\":1625:1697   */\n      tag_157\n        /* \"#utility.yul\":1693:1695   */\n      0x20\n        /* \"#utility.yul\":1682:1691   */\n      dup4\n        /* \"#utility.yul\":1678:1696   */\n      add\n        /* \"#utility.yul\":1669:1675   */\n      dup5\n        /* \"#utility.yul\":1625:1697   */\n      tag_95\n      jump\t// in\n    tag_157:\n        /* \"#utility.yul\":1281:1704   */\n      swap4\n      swap3\n      pop\n      pop\n      pop\n      jump\t// out\n        /* \"#utility.yul\":1710:1787   */\n    tag_96:\n        /* \"#utility.yul\":1747:1754   */\n      0x00\n        /* \"#utility.yul\":1776:1781   */\n      dup2\n        /* \"#utility.yul\":1765:1781   */\n      swap1\n      pop\n        /* \"#utility.yul\":1710:1787   */\n      swap2\n      swap1\n      pop\n      jump\t// out\n        /* \"#utility.yul\":1793:1911   */\n    tag_97:\n        /* \"#utility.yul\":1880:1904   */\n      tag_160\n        /* \"#utility.yul\":1898:1903   */\n      dup2\n        /* \"#utility.yul\":1880:1904   */\n      tag_96\n      jump\t// in\n    tag_160:\n        /* \"#utility.yul\":1875:1878   */\n      dup3\n        /* \"#utility.yul\":1868:1905   */\n      mstore\n        /* \"#utility.yul\":1793:1911   */\n      pop\n      pop\n      jump\t// out\n        /* \"#utility.yul\":1917:2139   */\n    tag_22:\n        /* \"#utility.yul\":2010:2014   */\n      0x00\n        /* \"#utility.yul\":2048:2050   */\n      0x20\n        /* \"#utility.yul\":2037:2046   */\n      dup3\n        /* \"#utility.yul\":2033:2051   */\n      add\n        /* \"#utility.yul\":2025:2051   */\n      swap1\n      pop\n        /* \"#utility.yul\":2061:2132   */\n      tag_162\n        /* \"#utility.yul\":2129:2130   */\n      0x00\n        /* \"#utility.yul\":2118:2127   */\n      dup4\n        /* \"#utility.yul\":2114:2131   */\n      add\n        /* \"#utility.yul\":2105:2111   */\n      dup5\n        /* \"#utility.yul\":2061:2132   */\n      tag_97\n      jump\t// in\n    tag_162:\n        /* \"#utility.yul\":1917:2139   */\n      swap3\n      swap2\n      pop\n      pop\n      jump\t// out\n        /* \"#utility.yul\":2145:2220   */\n    tag_98:\n        /* \"#utility.yul\":2178:2184   */\n      0x00\n        /* \"#utility.yul\":2211:2213   */\n      0x40\n        /* \"#utility.yul\":2205:2214   */\n      mload\n        /* \"#utility.yul\":2195:2214   */\n      swap1\n      pop\n        /* \"#utility.yul\":2145:2220   */\n      swap1\n      jump\t// out\n        /* \"#utility.yul\":2226:2343   */\n    tag_99:\n        /* \"#utility.yul\":2335:2336   */\n      0x00\n        /* \"#utility.yul\":2332:2333   */\n      dup1\n        /* \"#utility.yul\":2325:2337   */\n      revert\n        /* \"#utility.yul\":2349:2466   */\n    tag_100:\n        /* \"#utility.yul\":2458:2459   */\n      0x00\n        /* \"#utility.yul\":2455:2456   */\n      dup1\n        /* \"#utility.yul\":2448:2460   */\n      revert\n        /* \"#utility.yul\":2472:2589   */\n    tag_101:\n        /* \"#utility.yul\":2581:2582   */\n      0x00\n        /* \"#utility.yul\":2578:2579   */\n      dup1\n        /* \"#utility.yul\":2571:2583   */\n      revert\n        /* \"#utility.yul\":2595:2712   */\n    tag_102:\n        /* \"#utility.yul\":2704:2705   */\n      0x00\n        /* \"#utility.yul\":2701:2702   */\n      dup1\n        /* \"#utility.yul\":2694:2706   */\n      revert\n        /* \"#utility.yul\":2718:2898   */\n    tag_103:\n        /* \"#utility.yul\":2766:2843   */\n      0x4e487b7100000000000000000000000000000000000000000000000000000000\n        /* \"#utility.yul\":2763:2764   */\n      0x00\n        /* \"#utility.yul\":2756:2844   */\n      mstore\n        /* \"#utility.yul\":2863:2867   */\n      0x41\n        /* \"#utility.yul\":2860:2861   */\n      0x04\n        /* \"#utility.yul\":2853:2868   */\n      mstore\n        /* \"#utility.yul\":2887:2891   */\n      0x24\n        /* \"#utility.yul\":2884:2885   */\n      0x00\n        /* \"#utility.yul\":2877:2892   */\n      revert\n        /* \"#utility.yul\":2904:3185   */\n    tag_104:\n        /* \"#utility.yul\":2987:3014   */\n      tag_170\n        /* \"#utility.yul\":3009:3013   */\n      dup3\n        /* \"#utility.yul\":2987:3014   */\n      tag_91\n      jump\t// in\n    tag_170:\n        /* \"#utility.yul\":2979:2985   */\n      dup2\n        /* \"#utility.yul\":2975:3015   */\n      add\n        /* \"#utility.yul\":3117:3123   */\n      dup2\n        /* \"#utility.yul\":3105:3115   */\n      dup2\n        /* \"#utility.yul\":3102:3124   */\n      lt\n        /* \"#utility.yul\":3081:3099   */\n      0xffffffffffffffff\n        /* \"#utility.yul\":3069:3079   */\n      dup3\n        /* \"#utility.yul\":3066:3100   */\n      gt\n        /* \"#utility.yul\":3063:3125   */\n      or\n        /* \"#utility.yul\":3060:3148   */\n      iszero\n      tag_171\n      jumpi\n        /* \"#utility.yul\":3128:3146   */\n      tag_172\n      tag_103\n      jump\t// in\n    tag_172:\n        /* \"#utility.yul\":3060:3148   */\n    tag_171:\n        /* \"#utility.yul\":3168:3178   */\n      dup1\n        /* \"#utility.yul\":3164:3166   */\n      0x40\n        /* \"#utility.yul\":3157:3179   */\n      mstore\n        /* \"#utility.yul\":2947:3185   */\n      pop\n        /* \"#utility.yul\":2904:3185   */\n      pop\n      pop\n      jump\t// out\n        /* \"#utility.yul\":3191:3320   */\n    tag_105:\n        /* \"#utility.yul\":3225:3231   */\n      0x00\n        /* \"#utility.yul\":3252:3272   */\n      tag_174\n      tag_98\n      jump\t// in\n    tag_174:\n        /* \"#utility.yul\":3242:3272   */\n      swap1\n      pop\n        /* \"#utility.yul\":3281:3314   */\n      tag_175\n        /* \"#utility.yul\":3309:3313   */\n      dup3\n        /* \"#utility.yul\":3301:3307   */\n      dup3\n        /* \"#utility.yul\":3281:3314   */\n      tag_104\n      jump\t// in\n    tag_175:\n        /* \"#utility.yul\":3191:3320   */\n      swap2\n      swap1\n      pop\n      jump\t// out\n        /* \"#utility.yul\":3326:3634   */\n    tag_106:\n        /* \"#utility.yul\":3388:3392   */\n      0x00\n        /* \"#utility.yul\":3478:3496   */\n      0xffffffffffffffff\n        /* \"#utility.yul\":3470:3476   */\n      dup3\n        /* \"#utility.yul\":3467:3497   */\n      gt\n        /* \"#utility.yul\":3464:3520   */\n      iszero\n      tag_177\n      jumpi\n        /* \"#utility.yul\":3500:3518   */\n      tag_178\n      tag_103\n      jump\t// in\n    tag_178:\n        /* \"#utility.yul\":3464:3520   */\n    tag_177:\n        /* \"#utility.yul\":3538:3567   */\n      tag_179\n        /* \"#utility.yul\":3560:3566   */\n      dup3\n        /* \"#utility.yul\":3538:3567   */\n      tag_91\n      jump\t// in\n    tag_179:\n        /* \"#utility.yul\":3530:3567   */\n      swap1\n      pop\n        /* \"#utility.yul\":3622:3626   */\n      0x20\n        /* \"#utility.yul\":3616:3620   */\n      dup2\n        /* \"#utility.yul\":3612:3627   */\n      add\n        /* \"#utility.yul\":3604:3627   */\n      swap1\n      pop\n        /* \"#utility.yul\":3326:3634   */\n      swap2\n      swap1\n      pop\n      jump\t// out\n        /* \"#utility.yul\":3640:3788   */\n    tag_107:\n        /* \"#utility.yul\":3738:3744   */\n      dup3\n        /* \"#utility.yul\":3733:3736   */\n      dup2\n        /* \"#utility.yul\":3728:3731   */\n      dup4\n        /* \"#utility.yul\":3715:3745   */\n      calldatacopy\n        /* \"#utility.yul\":3779:3780   */\n      0x00\n        /* \"#utility.yul\":3770:3776   */\n      dup4\n        /* \"#utility.yul\":3765:3768   */\n      dup4\n        /* \"#utility.yul\":3761:3777   */\n      add\n        /* \"#utility.yul\":3754:3781   */\n      mstore\n        /* \"#utility.yul\":3640:3788   */\n      pop\n      pop\n      pop\n      jump\t// out\n        /* \"#utility.yul\":3794:4219   */\n    tag_108:\n        /* \"#utility.yul\":3872:3877   */\n      0x00\n        /* \"#utility.yul\":3897:3963   */\n      tag_182\n        /* \"#utility.yul\":3913:3962   */\n      tag_183\n        /* \"#utility.yul\":3955:3961   */\n      dup5\n        /* \"#utility.yul\":3913:3962   */\n      tag_106\n      jump\t// in\n    tag_183:\n        /* \"#utility.yul\":3897:3963   */\n      tag_105\n      jump\t// in\n    tag_182:\n        /* \"#utility.yul\":3888:3963   */\n      swap1\n      pop\n        /* \"#utility.yul\":3986:3992   */\n      dup3\n        /* \"#utility.yul\":3979:3984   */\n      dup2\n        /* \"#utility.yul\":3972:3993   */\n      mstore\n        /* \"#utility.yul\":4024:4028   */\n      0x20\n        /* \"#utility.yul\":4017:4022   */\n      dup2\n        /* \"#utility.yul\":4013:4029   */\n      add\n        /* \"#utility.yul\":4062:4065   */\n      dup5\n        /* \"#utility.yul\":4053:4059   */\n      dup5\n        /* \"#utility.yul\":4048:4051   */\n      dup5\n        /* \"#utility.yul\":4044:4060   */\n      add\n        /* \"#utility.yul\":4041:4066   */\n      gt\n        /* \"#utility.yul\":4038:4150   */\n      iszero\n      tag_184\n      jumpi\n        /* \"#utility.yul\":4069:4148   */\n      tag_185\n      tag_102\n      jump\t// in\n    tag_185:\n        /* \"#utility.yul\":4038:4150   */\n    tag_184:\n        /* \"#utility.yul\":4159:4213   */\n      tag_186\n        /* \"#utility.yul\":4206:4212   */\n      dup5\n        /* \"#utility.yul\":4201:4204   */\n      dup3\n        /* \"#utility.yul\":4196:4199   */\n      dup6\n        /* \"#utility.yul\":4159:4213   */\n      tag_107\n      jump\t// in\n    tag_186:\n        /* \"#utility.yul\":3878:4219   */\n      pop\n        /* \"#utility.yul\":3794:4219   */\n      swap4\n      swap3\n      pop\n      pop\n      pop\n      jump\t// out\n        /* \"#utility.yul\":4239:4579   */\n    tag_109:\n        /* \"#utility.yul\":4295:4300   */\n      0x00\n        /* \"#utility.yul\":4344:4347   */\n      dup3\n        /* \"#utility.yul\":4337:4341   */\n      0x1f\n        /* \"#utility.yul\":4329:4335   */\n      dup4\n        /* \"#utility.yul\":4325:4342   */\n      add\n        /* \"#utility.yul\":4321:4348   */\n      slt\n        /* \"#utility.yul\":4311:4433   */\n      tag_188\n      jumpi\n        /* \"#utility.yul\":4352:4431   */\n      tag_189\n      tag_101\n      jump\t// in\n    tag_189:\n        /* \"#utility.yul\":4311:4433   */\n    tag_188:\n        /* \"#utility.yul\":4469:4475   */\n      dup2\n        /* \"#utility.yul\":4456:4476   */\n      calldataload\n        /* \"#utility.yul\":4494:4573   */\n      tag_190\n        /* \"#utility.yul\":4569:4572   */\n      dup5\n        /* \"#utility.yul\":4561:4567   */\n      dup3\n        /* \"#utility.yul\":4554:4558   */\n      0x20\n        /* \"#utility.yul\":4546:4552   */\n      dup7\n        /* \"#utility.yul\":4542:4559   */\n      add\n        /* \"#utility.yul\":4494:4573   */\n      tag_108\n      jump\t// in\n    tag_190:\n        /* \"#utility.yul\":4485:4573   */\n      swap2\n      pop\n        /* \"#utility.yul\":4301:4579   */\n      pop\n        /* \"#utility.yul\":4239:4579   */\n      swap3\n      swap2\n      pop\n      pop\n      jump\t// out\n        /* \"#utility.yul\":4585:5094   */\n    tag_25:\n        /* \"#utility.yul\":4654:4660   */\n      0x00\n        /* \"#utility.yul\":4703:4705   */\n      0x20\n        /* \"#utility.yul\":4691:4700   */\n      dup3\n        /* \"#utility.yul\":4682:4689   */\n      dup5\n        /* \"#utility.yul\":4678:4701   */\n      sub\n        /* \"#utility.yul\":4674:4706   */\n      slt\n        /* \"#utility.yul\":4671:4790   */\n      iszero\n      tag_192\n      jumpi\n        /* \"#utility.yul\":4709:4788   */\n      tag_193\n      tag_99\n      jump\t// in\n    tag_193:\n        /* \"#utility.yul\":4671:4790   */\n    tag_192:\n        /* \"#utility.yul\":4857:4858   */\n      0x00\n        /* \"#utility.yul\":4846:4855   */\n      dup3\n        /* \"#utility.yul\":4842:4859   */\n      add\n        /* \"#utility.yul\":4829:4860   */\n      calldataload\n        /* \"#utility.yul\":4887:4905   */\n      0xffffffffffffffff\n        /* \"#utility.yul\":4879:4885   */\n      dup2\n        /* \"#utility.yul\":4876:4906   */\n      gt\n        /* \"#utility.yul\":4873:4990   */\n      iszero\n      tag_194\n      jumpi\n        /* \"#utility.yul\":4909:4988   */\n      tag_195\n      tag_100\n      jump\t// in\n    tag_195:\n        /* \"#utility.yul\":4873:4990   */\n    tag_194:\n        /* \"#utility.yul\":5014:5077   */\n      tag_196\n        /* \"#utility.yul\":5069:5076   */\n      dup5\n        /* \"#utility.yul\":5060:5066   */\n      dup3\n        /* \"#utility.yul\":5049:5058   */\n      dup6\n        /* \"#utility.yul\":5045:5067   */\n      add\n        /* \"#utility.yul\":5014:5077   */\n      tag_109\n      jump\t// in\n    tag_196:\n        /* \"#utility.yul\":5004:5077   */\n      swap2\n      pop\n        /* \"#utility.yul\":4800:5087   */\n      pop\n        /* \"#utility.yul\":4585:5094   */\n      swap3\n      swap2\n      pop\n      pop\n      jump\t// out\n        /* \"#utility.yul\":5100:5263   */\n    tag_110:\n        /* \"#utility.yul\":5240:5255   */\n      0x6e6f7420746865206f776e657200000000000000000000000000000000000000\n        /* \"#utility.yul\":5236:5237   */\n      0x00\n        /* \"#utility.yul\":5228:5234   */\n      dup3\n        /* \"#utility.yul\":5224:5238   */\n      add\n        /* \"#utility.yul\":5217:5256   */\n      mstore\n        /* \"#utility.yul\":5100:5263   */\n      pop\n      jump\t// out\n        /* \"#utility.yul\":5269:5635   */\n    tag_111:\n        /* \"#utility.yul\":5411:5414   */\n      0x00\n        /* \"#utility.yul\":5432:5499   */\n      tag_199\n        /* \"#utility.yul\":5496:5498   */\n      0x0d\n        /* \"#utility.yul\":5491:5494   */\n      dup4\n        /* \"#utility.yul\":5432:5499   */\n      tag_89\n      jump\t// in\n    tag_199:\n        /* \"#utility.yul\":5425:5499   */\n      swap2\n      pop\n        /* \"#utility.yul\":5508:5601   */\n      tag_200\n        /* \"#utility.yul\":5597:5600   */\n      dup3\n        /* \"#utility.yul\":5508:5601   */\n      tag_110\n      jump\t// in\n    tag_200:\n        /* \"#utility.yul\":5626:5628   */\n      0x20\n        /* \"#utility.yul\":5621:5624   */\n      dup3\n        /* \"#utility.yul\":5617:5629   */\n      add\n        /* \"#utility.yul\":5610:5629   */\n      swap1\n      pop\n        /* \"#utility.yul\":5269:5635   */\n      swap2\n      swap1\n      pop\n      jump\t// out\n        /* \"#utility.yul\":5641:6060   */\n    tag_30:\n        /* \"#utility.yul\":5807:5811   */\n      0x00\n        /* \"#utility.yul\":5845:5847   */\n      0x20\n        /* \"#utility.yul\":5834:5843   */\n      dup3\n        /* \"#utility.yul\":5830:5848   */\n      add\n        /* \"#utility.yul\":5822:5848   */\n      swap1\n      pop\n        /* \"#utility.yul\":5894:5903   */\n      dup2\n        /* \"#utility.yul\":5888:5892   */\n      dup2\n        /* \"#utility.yul\":5884:5904   */\n      sub\n        /* \"#utility.yul\":5880:5881   */\n      0x00\n        /* \"#utility.yul\":5869:5878   */\n      dup4\n        /* \"#utility.yul\":5865:5882   */\n      add\n        /* \"#utility.yul\":5858:5905   */\n      mstore\n        /* \"#utility.yul\":5922:6053   */\n      tag_202\n        /* \"#utility.yul\":6048:6052   */\n      dup2\n        /* \"#utility.yul\":5922:6053   */\n      tag_111\n      jump\t// in\n    tag_202:\n        /* \"#utility.yul\":5914:6053   */\n      swap1\n      pop\n        /* \"#utility.yul\":5641:6060   */\n      swap2\n      swap1\n      pop\n      jump\t// out\n        /* \"#utility.yul\":6066:6244   */\n    tag_112:\n        /* \"#utility.yul\":6206:6236   */\n      0x77696e6e6572206973207374696c6c206e6f74206465636c6172656400000000\n        /* \"#utility.yul\":6202:6203   */\n      0x00\n        /* \"#utility.yul\":6194:6200   */\n      dup3\n        /* \"#utility.yul\":6190:6204   */\n      add\n        /* \"#utility.yul\":6183:6237   */\n      mstore\n        /* \"#utility.yul\":6066:6244   */\n      pop\n      jump\t// out\n        /* \"#utility.yul\":6250:6616   */\n    tag_113:\n        /* \"#utility.yul\":6392:6395   */\n      0x00\n        /* \"#utility.yul\":6413:6480   */\n      tag_205\n        /* \"#utility.yul\":6477:6479   */\n      0x1c\n        /* \"#utility.yul\":6472:6475   */\n      dup4\n        /* \"#utility.yul\":6413:6480   */\n      tag_89\n      jump\t// in\n    tag_205:\n        /* \"#utility.yul\":6406:6480   */\n      swap2\n      pop\n        /* \"#utility.yul\":6489:6582   */\n      tag_206\n        /* \"#utility.yul\":6578:6581   */\n      dup3\n        /* \"#utility.yul\":6489:6582   */\n      tag_112\n      jump\t// in\n    tag_206:\n        /* \"#utility.yul\":6607:6609   */\n      0x20\n        /* \"#utility.yul\":6602:6605   */\n      dup3\n        /* \"#utility.yul\":6598:6610   */\n      add\n        /* \"#utility.yul\":6591:6610   */\n      swap1\n      pop\n        /* \"#utility.yul\":6250:6616   */\n      swap2\n      swap1\n      pop\n      jump\t// out\n        /* \"#utility.yul\":6622:7041   */\n    tag_34:\n        /* \"#utility.yul\":6788:6792   */\n      0x00\n        /* \"#utility.yul\":6826:6828   */\n      0x20\n        /* \"#utility.yul\":6815:6824   */\n      dup3\n        /* \"#utility.yul\":6811:6829   */\n      add\n        /* \"#utility.yul\":6803:6829   */\n      swap1\n      pop\n        /* \"#utility.yul\":6875:6884   */\n      dup2\n        /* \"#utility.yul\":6869:6873   */\n      dup2\n        /* \"#utility.yul\":6865:6885   */\n      sub\n        /* \"#utility.yul\":6861:6862   */\n      0x00\n        /* \"#utility.yul\":6850:6859   */\n      dup4\n        /* \"#utility.yul\":6846:6863   */\n      add\n        /* \"#utility.yul\":6839:6886   */\n      mstore\n        /* \"#utility.yul\":6903:7034   */\n      tag_208\n        /* \"#utility.yul\":7029:7033   */\n      dup2\n        /* \"#utility.yul\":6903:7034   */\n      tag_113\n      jump\t// in\n    tag_208:\n        /* \"#utility.yul\":6895:7034   */\n      swap1\n      pop\n        /* \"#utility.yul\":6622:7041   */\n      swap2\n      swap1\n      pop\n      jump\t// out\n        /* \"#utility.yul\":7047:7227   */\n    tag_114:\n        /* \"#utility.yul\":7095:7172   */\n      0x4e487b7100000000000000000000000000000000000000000000000000000000\n        /* \"#utility.yul\":7092:7093   */\n      0x00\n        /* \"#utility.yul\":7085:7173   */\n      mstore\n        /* \"#utility.yul\":7192:7196   */\n      0x22\n        /* \"#utility.yul\":7189:7190   */\n      0x04\n        /* \"#utility.yul\":7182:7197   */\n      mstore\n        /* \"#utility.yul\":7216:7220   */\n      0x24\n        /* \"#utility.yul\":7213:7214   */\n      0x00\n        /* \"#utility.yul\":7206:7221   */\n      revert\n        /* \"#utility.yul\":7233:7553   */\n    tag_36:\n        /* \"#utility.yul\":7277:7283   */\n      0x00\n        /* \"#utility.yul\":7314:7315   */\n      0x02\n        /* \"#utility.yul\":7308:7312   */\n      dup3\n        /* \"#utility.yul\":7304:7316   */\n      div\n        /* \"#utility.yul\":7294:7316   */\n      swap1\n      pop\n        /* \"#utility.yul\":7361:7362   */\n      0x01\n        /* \"#utility.yul\":7355:7359   */\n      dup3\n        /* \"#utility.yul\":7351:7363   */\n      and\n        /* \"#utility.yul\":7382:7400   */\n      dup1\n        /* \"#utility.yul\":7372:7453   */\n      tag_211\n      jumpi\n        /* \"#utility.yul\":7438:7442   */\n      0x7f\n        /* \"#utility.yul\":7430:7436   */\n      dup3\n        /* \"#utility.yul\":7426:7443   */\n      and\n        /* \"#utility.yul\":7416:7443   */\n      swap2\n      pop\n        /* \"#utility.yul\":7372:7453   */\n    tag_211:\n        /* \"#utility.yul\":7500:7502   */\n      0x20\n        /* \"#utility.yul\":7492:7498   */\n      dup3\n        /* \"#utility.yul\":7489:7503   */\n      lt\n        /* \"#utility.yul\":7469:7487   */\n      dup2\n        /* \"#utility.yul\":7466:7504   */\n      sub\n        /* \"#utility.yul\":7463:7547   */\n      tag_212\n      jumpi\n        /* \"#utility.yul\":7519:7537   */\n      tag_213\n      tag_114\n      jump\t// in\n    tag_213:\n        /* \"#utility.yul\":7463:7547   */\n    tag_212:\n        /* \"#utility.yul\":7284:7553   */\n      pop\n        /* \"#utility.yul\":7233:7553   */\n      swap2\n      swap1\n      pop\n      jump\t// out\n        /* \"#utility.yul\":7559:7726   */\n    tag_115:\n        /* \"#utility.yul\":7699:7718   */\n      0x616c647265616479206465636c61726564000000000000000000000000000000\n        /* \"#utility.yul\":7695:7696   */\n      0x00\n        /* \"#utility.yul\":7687:7693   */\n      dup3\n        /* \"#utility.yul\":7683:7697   */\n      add\n        /* \"#utility.yul\":7676:7719   */\n      mstore\n        /* \"#utility.yul\":7559:7726   */\n      pop\n      jump\t// out\n        /* \"#utility.yul\":7732:8098   */\n    tag_116:\n        /* \"#utility.yul\":7874:7877   */\n      0x00\n        /* \"#utility.yul\":7895:7962   */\n      tag_216\n        /* \"#utility.yul\":7959:7961   */\n      0x11\n        /* \"#utility.yul\":7954:7957   */\n      dup4\n        /* \"#utility.yul\":7895:7962   */\n      tag_89\n      jump\t// in\n    tag_216:\n        /* \"#utility.yul\":7888:7962   */\n      swap2\n      pop\n        /* \"#utility.yul\":7971:8064   */\n      tag_217\n        /* \"#utility.yul\":8060:8063   */\n      dup3\n        /* \"#utility.yul\":7971:8064   */\n      tag_115\n      jump\t// in\n    tag_217:\n        /* \"#utility.yul\":8089:8091   */\n      0x20\n        /* \"#utility.yul\":8084:8087   */\n      dup3\n        /* \"#utility.yul\":8080:8092   */\n      add\n        /* \"#utility.yul\":8073:8092   */\n      swap1\n      pop\n        /* \"#utility.yul\":7732:8098   */\n      swap2\n      swap1\n      pop\n      jump\t// out\n        /* \"#utility.yul\":8104:8523   */\n    tag_47:\n        /* \"#utility.yul\":8270:8274   */\n      0x00\n        /* \"#utility.yul\":8308:8310   */\n      0x20\n        /* \"#utility.yul\":8297:8306   */\n      dup3\n        /* \"#utility.yul\":8293:8311   */\n      add\n        /* \"#utility.yul\":8285:8311   */\n      swap1\n      pop\n        /* \"#utility.yul\":8357:8366   */\n      dup2\n        /* \"#utility.yul\":8351:8355   */\n      dup2\n        /* \"#utility.yul\":8347:8367   */\n      sub\n        /* \"#utility.yul\":8343:8344   */\n      0x00\n        /* \"#utility.yul\":8332:8341   */\n      dup4\n        /* \"#utility.yul\":8328:8345   */\n      add\n        /* \"#utility.yul\":8321:8368   */\n      mstore\n        /* \"#utility.yul\":8385:8516   */\n      tag_219\n        /* \"#utility.yul\":8511:8515   */\n      dup2\n        /* \"#utility.yul\":8385:8516   */\n      tag_116\n      jump\t// in\n    tag_219:\n        /* \"#utility.yul\":8377:8516   */\n      swap1\n      pop\n        /* \"#utility.yul\":8104:8523   */\n      swap2\n      swap1\n      pop\n      jump\t// out\n        /* \"#utility.yul\":8529:8709   */\n    tag_117:\n        /* \"#utility.yul\":8577:8654   */\n      0x4e487b7100000000000000000000000000000000000000000000000000000000\n        /* \"#utility.yul\":8574:8575   */\n      0x00\n        /* \"#utility.yul\":8567:8655   */\n      mstore\n        /* \"#utility.yul\":8674:8678   */\n      0x12\n        /* \"#utility.yul\":8671:8672   */\n      0x04\n        /* \"#utility.yul\":8664:8679   */\n      mstore\n        /* \"#utility.yul\":8698:8702   */\n      0x24\n        /* \"#utility.yul\":8695:8696   */\n      0x00\n        /* \"#utility.yul\":8688:8703   */\n      revert\n        /* \"#utility.yul\":8715:8891   */\n    tag_49:\n        /* \"#utility.yul\":8747:8748   */\n      0x00\n        /* \"#utility.yul\":8764:8784   */\n      tag_222\n        /* \"#utility.yul\":8782:8783   */\n      dup3\n        /* \"#utility.yul\":8764:8784   */\n      tag_96\n      jump\t// in\n    tag_222:\n        /* \"#utility.yul\":8759:8784   */\n      swap2\n      pop\n        /* \"#utility.yul\":8798:8818   */\n      tag_223\n        /* \"#utility.yul\":8816:8817   */\n      dup4\n        /* \"#utility.yul\":8798:8818   */\n      tag_96\n      jump\t// in\n    tag_223:\n        /* \"#utility.yul\":8793:8818   */\n      swap3\n      pop\n        /* \"#utility.yul\":8837:8838   */\n      dup3\n        /* \"#utility.yul\":8827:8862   */\n      tag_224\n      jumpi\n        /* \"#utility.yul\":8842:8860   */\n      tag_225\n      tag_117\n      jump\t// in\n    tag_225:\n        /* \"#utility.yul\":8827:8862   */\n    tag_224:\n        /* \"#utility.yul\":8883:8884   */\n      dup3\n        /* \"#utility.yul\":8880:8881   */\n      dup3\n        /* \"#utility.yul\":8876:8885   */\n      mod\n        /* \"#utility.yul\":8871:8885   */\n      swap1\n      pop\n        /* \"#utility.yul\":8715:8891   */\n      swap3\n      swap2\n      pop\n      pop\n      jump\t// out\n        /* \"#utility.yul\":8897:9077   */\n    tag_52:\n        /* \"#utility.yul\":8945:9022   */\n      0x4e487b7100000000000000000000000000000000000000000000000000000000\n        /* \"#utility.yul\":8942:8943   */\n      0x00\n        /* \"#utility.yul\":8935:9023   */\n      mstore\n        /* \"#utility.yul\":9042:9046   */\n      0x32\n        /* \"#utility.yul\":9039:9040   */\n      0x04\n        /* \"#utility.yul\":9032:9047   */\n      mstore\n        /* \"#utility.yul\":9066:9070   */\n      0x24\n        /* \"#utility.yul\":9063:9064   */\n      0x00\n        /* \"#utility.yul\":9056:9071   */\n      revert\n        /* \"#utility.yul\":9083:9258   */\n    tag_118:\n        /* \"#utility.yul\":9223:9250   */\n      0x6d6f6e657920616c647265616479207472616e73666572656400000000000000\n        /* \"#utility.yul\":9219:9220   */\n      0x00\n        /* \"#utility.yul\":9211:9217   */\n      dup3\n        /* \"#utility.yul\":9207:9221   */\n      add\n        /* \"#utility.yul\":9200:9251   */\n      mstore\n        /* \"#utility.yul\":9083:9258   */\n      pop\n      jump\t// out\n        /* \"#utility.yul\":9264:9630   */\n    tag_119:\n        /* \"#utility.yul\":9406:9409   */\n      0x00\n        /* \"#utility.yul\":9427:9494   */\n      tag_229\n        /* \"#utility.yul\":9491:9493   */\n      0x19\n        /* \"#utility.yul\":9486:9489   */\n      dup4\n        /* \"#utility.yul\":9427:9494   */\n      tag_89\n      jump\t// in\n    tag_229:\n        /* \"#utility.yul\":9420:9494   */\n      swap2\n      pop\n        /* \"#utility.yul\":9503:9596   */\n      tag_230\n        /* \"#utility.yul\":9592:9595   */\n      dup3\n        /* \"#utility.yul\":9503:9596   */\n      tag_118\n      jump\t// in\n    tag_230:\n        /* \"#utility.yul\":9621:9623   */\n      0x20\n        /* \"#utility.yul\":9616:9619   */\n      dup3\n        /* \"#utility.yul\":9612:9624   */\n      add\n        /* \"#utility.yul\":9605:9624   */\n      swap1\n      pop\n        /* \"#utility.yul\":9264:9630   */\n      swap2\n      swap1\n      pop\n      jump\t// out\n        /* \"#utility.yul\":9636:10055   */\n    tag_71:\n        /* \"#utility.yul\":9802:9806   */\n      0x00\n        /* \"#utility.yul\":9840:9842   */\n      0x20\n        /* \"#utility.yul\":9829:9838   */\n      dup3\n        /* \"#utility.yul\":9825:9843   */\n      add\n        /* \"#utility.yul\":9817:9843   */\n      swap1\n      pop\n        /* \"#utility.yul\":9889:9898   */\n      dup2\n        /* \"#utility.yul\":9883:9887   */\n      dup2\n        /* \"#utility.yul\":9879:9899   */\n      sub\n        /* \"#utility.yul\":9875:9876   */\n      0x00\n        /* \"#utility.yul\":9864:9873   */\n      dup4\n        /* \"#utility.yul\":9860:9877   */\n      add\n        /* \"#utility.yul\":9853:9900   */\n      mstore\n        /* \"#utility.yul\":9917:10048   */\n      tag_232\n        /* \"#utility.yul\":10043:10047   */\n      dup2\n        /* \"#utility.yul\":9917:10048   */\n      tag_119\n      jump\t// in\n    tag_232:\n        /* \"#utility.yul\":9909:10048   */\n      swap1\n      pop\n        /* \"#utility.yul\":9636:10055   */\n      swap2\n      swap1\n      pop\n      jump\t// out\n        /* \"#utility.yul\":10061:10243   */\n    tag_120:\n        /* \"#utility.yul\":10201:10235   */\n      0x2070617920313020657468657220746f20627579206f6e65206c6f7474657279\n        /* \"#utility.yul\":10197:10198   */\n      0x00\n        /* \"#utility.yul\":10189:10195   */\n      dup3\n        /* \"#utility.yul\":10185:10199   */\n      add\n        /* \"#utility.yul\":10178:10236   */\n      mstore\n        /* \"#utility.yul\":10061:10243   */\n      pop\n      jump\t// out\n        /* \"#utility.yul\":10249:10615   */\n    tag_121:\n        /* \"#utility.yul\":10391:10394   */\n      0x00\n        /* \"#utility.yul\":10412:10479   */\n      tag_235\n        /* \"#utility.yul\":10476:10478   */\n      0x20\n        /* \"#utility.yul\":10471:10474   */\n      dup4\n        /* \"#utility.yul\":10412:10479   */\n      tag_89\n      jump\t// in\n    tag_235:\n        /* \"#utility.yul\":10405:10479   */\n      swap2\n      pop\n        /* \"#utility.yul\":10488:10581   */\n      tag_236\n        /* \"#utility.yul\":10577:10580   */\n      dup3\n        /* \"#utility.yul\":10488:10581   */\n      tag_120\n      jump\t// in\n    tag_236:\n        /* \"#utility.yul\":10606:10608   */\n      0x20\n        /* \"#utility.yul\":10601:10604   */\n      dup3\n        /* \"#utility.yul\":10597:10609   */\n      add\n        /* \"#utility.yul\":10590:10609   */\n      swap1\n      pop\n        /* \"#utility.yul\":10249:10615   */\n      swap2\n      swap1\n      pop\n      jump\t// out\n        /* \"#utility.yul\":10621:11040   */\n    tag_79:\n        /* \"#utility.yul\":10787:10791   */\n      0x00\n        /* \"#utility.yul\":10825:10827   */\n      0x20\n        /* \"#utility.yul\":10814:10823   */\n      dup3\n        /* \"#utility.yul\":10810:10828   */\n      add\n        /* \"#utility.yul\":10802:10828   */\n      swap1\n      pop\n        /* \"#utility.yul\":10874:10883   */\n      dup2\n        /* \"#utility.yul\":10868:10872   */\n      dup2\n        /* \"#utility.yul\":10864:10884   */\n      sub\n        /* \"#utility.yul\":10860:10861   */\n      0x00\n        /* \"#utility.yul\":10849:10858   */\n      dup4\n        /* \"#utility.yul\":10845:10862   */\n      add\n        /* \"#utility.yul\":10838:10885   */\n      mstore\n        /* \"#utility.yul\":10902:11033   */\n      tag_238\n        /* \"#utility.yul\":11028:11032   */\n      dup2\n        /* \"#utility.yul\":10902:11033   */\n      tag_121\n      jump\t// in\n    tag_238:\n        /* \"#utility.yul\":10894:11033   */\n      swap1\n      pop\n        /* \"#utility.yul\":10621:11040   */\n      swap2\n      swap1\n      pop\n      jump\t// out\n        /* \"#utility.yul\":11046:11222   */\n    tag_122:\n        /* \"#utility.yul\":11186:11214   */\n      0x796f7520616c64726561647920626f75676874207469636b6574000000000000\n        /* \"#utility.yul\":11182:11183   */\n      0x00\n        /* \"#utility.yul\":11174:11180   */\n      dup3\n        /* \"#utility.yul\":11170:11184   */\n      add\n        /* \"#utility.yul\":11163:11215   */\n      mstore\n        /* \"#utility.yul\":11046:11222   */\n      pop\n      jump\t// out\n        /* \"#utility.yul\":11228:11594   */\n    tag_123:\n        /* \"#utility.yul\":11370:11373   */\n      0x00\n        /* \"#utility.yul\":11391:11458   */\n      tag_241\n        /* \"#utility.yul\":11455:11457   */\n      0x1a\n        /* \"#utility.yul\":11450:11453   */\n      dup4\n        /* \"#utility.yul\":11391:11458   */\n      tag_89\n      jump\t// in\n    tag_241:\n        /* \"#utility.yul\":11384:11458   */\n      swap2\n      pop\n        /* \"#utility.yul\":11467:11560   */\n      tag_242\n        /* \"#utility.yul\":11556:11559   */\n      dup3\n        /* \"#utility.yul\":11467:11560   */\n      tag_122\n      jump\t// in\n    tag_242:\n        /* \"#utility.yul\":11585:11587   */\n      0x20\n        /* \"#utility.yul\":11580:11583   */\n      dup3\n        /* \"#utility.yul\":11576:11588   */\n      add\n        /* \"#utility.yul\":11569:11588   */\n      swap1\n      pop\n        /* \"#utility.yul\":11228:11594   */\n      swap2\n      swap1\n      pop\n      jump\t// out\n        /* \"#utility.yul\":11600:12019   */\n    tag_82:\n        /* \"#utility.yul\":11766:11770   */\n      0x00\n        /* \"#utility.yul\":11804:11806   */\n      0x20\n        /* \"#utility.yul\":11793:11802   */\n      dup3\n        /* \"#utility.yul\":11789:11807   */\n      add\n        /* \"#utility.yul\":11781:11807   */\n      swap1\n      pop\n        /* \"#utility.yul\":11853:11862   */\n      dup2\n        /* \"#utility.yul\":11847:11851   */\n      dup2\n        /* \"#utility.yul\":11843:11863   */\n      sub\n        /* \"#utility.yul\":11839:11840   */\n      0x00\n        /* \"#utility.yul\":11828:11837   */\n      dup4\n        /* \"#utility.yul\":11824:11841   */\n      add\n        /* \"#utility.yul\":11817:11864   */\n      mstore\n        /* \"#utility.yul\":11881:12012   */\n      tag_244\n        /* \"#utility.yul\":12007:12011   */\n      dup2\n        /* \"#utility.yul\":11881:12012   */\n      tag_123\n      jump\t// in\n    tag_244:\n        /* \"#utility.yul\":11873:12012   */\n      swap1\n      pop\n        /* \"#utility.yul\":11600:12019   */\n      swap2\n      swap1\n      pop\n      jump\t// out\n        /* \"#utility.yul\":12025:12166   */\n    tag_124:\n        /* \"#utility.yul\":12074:12078   */\n      0x00\n        /* \"#utility.yul\":12097:12100   */\n      dup2\n        /* \"#utility.yul\":12089:12100   */\n      swap1\n      pop\n        /* \"#utility.yul\":12120:12123   */\n      dup2\n        /* \"#utility.yul\":12117:12118   */\n      0x00\n        /* \"#utility.yul\":12110:12124   */\n      mstore\n        /* \"#utility.yul\":12154:12158   */\n      0x20\n        /* \"#utility.yul\":12151:12152   */\n      0x00\n        /* \"#utility.yul\":12141:12159   */\n      keccak256\n        /* \"#utility.yul\":12133:12159   */\n      swap1\n      pop\n        /* \"#utility.yul\":12025:12166   */\n      swap2\n      swap1\n      pop\n      jump\t// out\n        /* \"#utility.yul\":12172:12265   */\n    tag_125:\n        /* \"#utility.yul\":12209:12215   */\n      0x00\n        /* \"#utility.yul\":12256:12258   */\n      0x20\n        /* \"#utility.yul\":12251:12253   */\n      0x1f\n        /* \"#utility.yul\":12244:12249   */\n      dup4\n        /* \"#utility.yul\":12240:12254   */\n      add\n        /* \"#utility.yul\":12236:12259   */\n      div\n        /* \"#utility.yul\":12226:12259   */\n      swap1\n      pop\n        /* \"#utility.yul\":12172:12265   */\n      swap2\n      swap1\n      pop\n      jump\t// out\n        /* \"#utility.yul\":12271:12378   */\n    tag_126:\n        /* \"#utility.yul\":12315:12323   */\n      0x00\n        /* \"#utility.yul\":12365:12370   */\n      dup3\n        /* \"#utility.yul\":12359:12363   */\n      dup3\n        /* \"#utility.yul\":12355:12371   */\n      shl\n        /* \"#utility.yul\":12334:12371   */\n      swap1\n      pop\n        /* \"#utility.yul\":12271:12378   */\n      swap3\n      swap2\n      pop\n      pop\n      jump\t// out\n        /* \"#utility.yul\":12384:12777   */\n    tag_127:\n        /* \"#utility.yul\":12453:12459   */\n      0x00\n        /* \"#utility.yul\":12503:12504   */\n      0x08\n        /* \"#utility.yul\":12491:12501   */\n      dup4\n        /* \"#utility.yul\":12487:12505   */\n      mul\n        /* \"#utility.yul\":12526:12623   */\n      tag_249\n        /* \"#utility.yul\":12556:12622   */\n      0xffffffffffffffffffffffffffffffffffffffffffffffffffffffffffffffff\n        /* \"#utility.yul\":12545:12554   */\n      dup3\n        /* \"#utility.yul\":12526:12623   */\n      tag_126\n      jump\t// in\n    tag_249:\n        /* \"#utility.yul\":12644:12683   */\n      tag_250\n        /* \"#utility.yul\":12674:12682   */\n      dup7\n        /* \"#utility.yul\":12663:12672   */\n      dup4\n        /* \"#utility.yul\":12644:12683   */\n      tag_126\n      jump\t// in\n    tag_250:\n        /* \"#utility.yul\":12632:12683   */\n      swap6\n      pop\n        /* \"#utility.yul\":12716:12720   */\n      dup1\n        /* \"#utility.yul\":12712:12721   */\n      not\n        /* \"#utility.yul\":12705:12710   */\n      dup5\n        /* \"#utility.yul\":12701:12722   */\n      and\n        /* \"#utility.yul\":12692:12722   */\n      swap4\n      pop\n        /* \"#utility.yul\":12765:12769   */\n      dup1\n        /* \"#utility.yul\":12755:12763   */\n      dup7\n        /* \"#utility.yul\":12751:12770   */\n      and\n        /* \"#utility.yul\":12744:12749   */\n      dup5\n        /* \"#utility.yul\":12741:12771   */\n      or\n        /* \"#utility.yul\":12731:12771   */\n      swap3\n      pop\n        /* \"#utility.yul\":12460:12777   */\n      pop\n      pop\n        /* \"#utility.yul\":12384:12777   */\n      swap4\n      swap3\n      pop\n      pop\n      pop\n      jump\t// out\n        /* \"#utility.yul\":12783:12843   */\n    tag_128:\n        /* \"#utility.yul\":12811:12814   */\n      0x00\n        /* \"#utility.yul\":12832:12837   */\n      dup2\n        /* \"#utility.yul\":12825:12837   */\n      swap1\n      pop\n        /* \"#utility.yul\":12783:12843   */\n      swap2\n      swap1\n      pop\n      jump\t// out\n        /* \"#utility.yul\":12849:12991   */\n    tag_129:\n        /* \"#utility.yul\":12899:12908   */\n      0x00\n        /* \"#utility.yul\":12932:12985   */\n      tag_253\n        /* \"#utility.yul\":12950:12984   */\n      tag_254\n        /* \"#utility.yul\":12959:12983   */\n      tag_255\n        /* \"#utility.yul\":12977:12982   */\n      dup5\n        /* \"#utility.yul\":12959:12983   */\n      tag_96\n      jump\t// in\n    tag_255:\n        /* \"#utility.yul\":12950:12984   */\n      tag_128\n      jump\t// in\n    tag_254:\n        /* \"#utility.yul\":12932:12985   */\n      tag_96\n      jump\t// in\n    tag_253:\n        /* \"#utility.yul\":12919:12985   */\n      swap1\n      pop\n        /* \"#utility.yul\":12849:12991   */\n      swap2\n      swap1\n      pop\n      jump\t// out\n        /* \"#utility.yul\":12997:13072   */\n    tag_130:\n        /* \"#utility.yul\":13040:13043   */\n      0x00\n        /* \"#utility.yul\":13061:13066   */\n      dup2\n        /* \"#utility.yul\":13054:13066   */\n      swap1\n      pop\n        /* \"#utility.yul\":12997:13072   */\n      swap2\n      swap1\n      pop\n      jump\t// out\n        /* \"#utility.yul\":13078:13347   */\n    tag_131:\n        /* \"#utility.yul\":13188:13227   */\n      tag_258\n        /* \"#utility.yul\":13219:13226   */\n      dup4\n        /* \"#utility.yul\":13188:13227   */\n      tag_129\n      jump\t// in\n    tag_258:\n        /* \"#utility.yul\":13249:13340   */\n      tag_259\n        /* \"#utility.yul\":13298:13339   */\n      tag_260\n        /* \"#utility.yul\":13322:13338   */\n      dup3\n        /* \"#utility.yul\":13298:13339   */\n      tag_130\n      jump\t// in\n    tag_260:\n        /* \"#utility.yul\":13290:13296   */\n      dup5\n        /* \"#utility.yul\":13283:13287   */\n      dup5\n        /* \"#utility.yul\":13277:13288   */\n      sload\n        /* \"#utility.yul\":13249:13340   */\n      tag_127\n      jump\t// in\n    tag_259:\n        /* \"#utility.yul\":13243:13247   */\n      dup3\n        /* \"#utility.yul\":13236:13341   */\n      sstore\n        /* \"#utility.yul\":13154:13347   */\n      pop\n        /* \"#utility.yul\":13078:13347   */\n      pop\n      pop\n      pop\n      jump\t// out\n        /* \"#utility.yul\":13353:13426   */\n    tag_132:\n        /* \"#utility.yul\":13398:13401   */\n      0x00\n        /* \"#utility.yul\":13353:13426   */\n      swap1\n      jump\t// out\n        /* \"#utility.yul\":13432:13621   */\n    tag_133:\n        /* \"#utility.yul\":13509:13541   */\n      tag_263\n      tag_132\n      jump\t// in\n    tag_263:\n        /* \"#utility.yul\":13550:13615   */\n      tag_264\n        /* \"#utility.yul\":13608:13614   */\n      dup2\n        /* \"#utility.yul\":13600:13606   */\n      dup5\n        /* \"#utility.yul\":13594:13598   */\n      dup5\n        /* \"#utility.yul\":13550:13615   */\n      tag_131\n      jump\t// in\n    tag_264:\n        /* \"#utility.yul\":13485:13621   */\n      pop\n        /* \"#utility.yul\":13432:13621   */\n      pop\n      pop\n      jump\t// out\n        /* \"#utility.yul\":13627:13813   */\n    tag_134:\n        /* \"#utility.yul\":13687:13807   */\n    tag_266:\n        /* \"#utility.yul\":13704:13707   */\n      dup2\n        /* \"#utility.yul\":13697:13702   */\n      dup2\n        /* \"#utility.yul\":13694:13708   */\n      lt\n        /* \"#utility.yul\":13687:13807   */\n      iszero\n      tag_268\n      jumpi\n        /* \"#utility.yul\":13758:13797   */\n      tag_269\n        /* \"#utility.yul\":13795:13796   */\n      0x00\n        /* \"#utility.yul\":13788:13793   */\n      dup3\n        /* \"#utility.yul\":13758:13797   */\n      tag_133\n      jump\t// in\n    tag_269:\n        /* \"#utility.yul\":13731:13732   */\n      0x01\n        /* \"#utility.yul\":13724:13729   */\n      dup2\n        /* \"#utility.yul\":13720:13733   */\n      add\n        /* \"#utility.yul\":13711:13733   */\n      swap1\n      pop\n        /* \"#utility.yul\":13687:13807   */\n      jump(tag_266)\n    tag_268:\n        /* \"#utility.yul\":13627:13813   */\n      pop\n      pop\n      jump\t// out\n        /* \"#utility.yul\":13819:14362   */\n    tag_135:\n        /* \"#utility.yul\":13920:13922   */\n      0x1f\n        /* \"#utility.yul\":13915:13918   */\n      dup3\n        /* \"#utility.yul\":13912:13923   */\n      gt\n        /* \"#utility.yul\":13909:14355   */\n      iszero\n      tag_271\n      jumpi\n        /* \"#utility.yul\":13954:13992   */\n      tag_272\n        /* \"#utility.yul\":13986:13991   */\n      dup2\n        /* \"#utility.yul\":13954:13992   */\n      tag_124\n      jump\t// in\n    tag_272:\n        /* \"#utility.yul\":14038:14067   */\n      tag_273\n        /* \"#utility.yul\":14056:14066   */\n      dup5\n        /* \"#utility.yul\":14038:14067   */\n      tag_125\n      jump\t// in\n    tag_273:\n        /* \"#utility.yul\":14028:14036   */\n      dup2\n        /* \"#utility.yul\":14024:14068   */\n      add\n        /* \"#utility.yul\":14221:14223   */\n      0x20\n        /* \"#utility.yul\":14209:14219   */\n      dup6\n        /* \"#utility.yul\":14206:14224   */\n      lt\n        /* \"#utility.yul\":14203:14252   */\n      iszero\n      tag_274\n      jumpi\n        /* \"#utility.yul\":14242:14250   */\n      dup2\n        /* \"#utility.yul\":14227:14250   */\n      swap1\n      pop\n        /* \"#utility.yul\":14203:14252   */\n    tag_274:\n        /* \"#utility.yul\":14265:14345   */\n      tag_275\n        /* \"#utility.yul\":14321:14343   */\n      tag_276\n        /* \"#utility.yul\":14339:14342   */\n      dup6\n        /* \"#utility.yul\":14321:14343   */\n      tag_125\n      jump\t// in\n    tag_276:\n        /* \"#utility.yul\":14311:14319   */\n      dup4\n        /* \"#utility.yul\":14307:14344   */\n      add\n        /* \"#utility.yul\":14294:14305   */\n      dup3\n        /* \"#utility.yul\":14265:14345   */\n      tag_134\n      jump\t// in\n    tag_275:\n        /* \"#utility.yul\":13924:14355   */\n      pop\n      pop\n        /* \"#utility.yul\":13909:14355   */\n    tag_271:\n        /* \"#utility.yul\":13819:14362   */\n      pop\n      pop\n      pop\n      jump\t// out\n        /* \"#utility.yul\":14368:14485   */\n    tag_136:\n        /* \"#utility.yul\":14422:14430   */\n      0x00\n        /* \"#utility.yul\":14472:14477   */\n      dup3\n        /* \"#utility.yul\":14466:14470   */\n      dup3\n        /* \"#utility.yul\":14462:14478   */\n      shr\n        /* \"#utility.yul\":14441:14478   */\n      swap1\n      pop\n        /* \"#utility.yul\":14368:14485   */\n      swap3\n      swap2\n      pop\n      pop\n      jump\t// out\n        /* \"#utility.yul\":14491:14660   */\n    tag_137:\n        /* \"#utility.yul\":14535:14541   */\n      0x00\n        /* \"#utility.yul\":14568:14619   */\n      tag_279\n        /* \"#utility.yul\":14616:14617   */\n      0x00\n        /* \"#utility.yul\":14612:14618   */\n      not\n        /* \"#utility.yul\":14604:14609   */\n      dup5\n        /* \"#utility.yul\":14601:14602   */\n      0x08\n        /* \"#utility.yul\":14597:14610   */\n      mul\n        /* \"#utility.yul\":14568:14619   */\n      tag_136\n      jump\t// in\n    tag_279:\n        /* \"#utility.yul\":14564:14620   */\n      not\n        /* \"#utility.yul\":14649:14653   */\n      dup1\n        /* \"#utility.yul\":14643:14647   */\n      dup4\n        /* \"#utility.yul\":14639:14654   */\n      and\n        /* \"#utility.yul\":14629:14654   */\n      swap2\n      pop\n        /* \"#utility.yul\":14542:14660   */\n      pop\n        /* \"#utility.yul\":14491:14660   */\n      swap3\n      swap2\n      pop\n      pop\n      jump\t// out\n        /* \"#utility.yul\":14665:14960   */\n    tag_138:\n        /* \"#utility.yul\":14741:14745   */\n      0x00\n        /* \"#utility.yul\":14887:14916   */\n      tag_281\n        /* \"#utility.yul\":14912:14915   */\n      dup4\n        /* \"#utility.yul\":14906:14910   */\n      dup4\n        /* \"#utility.yul\":14887:14916   */\n      tag_137\n      jump\t// in\n    tag_281:\n        /* \"#utility.yul\":14879:14916   */\n      swap2\n      pop\n        /* \"#utility.yul\":14949:14952   */\n      dup3\n        /* \"#utility.yul\":14946:14947   */\n      0x02\n        /* \"#utility.yul\":14942:14953   */\n      mul\n        /* \"#utility.yul\":14936:14940   */\n      dup3\n        /* \"#utility.yul\":14933:14954   */\n      or\n        /* \"#utility.yul\":14925:14954   */\n      swap1\n      pop\n        /* \"#utility.yul\":14665:14960   */\n      swap3\n      swap2\n      pop\n      pop\n      jump\t// out\n        /* \"#utility.yul\":14965:16360   */\n    tag_84:\n        /* \"#utility.yul\":15082:15119   */\n      tag_283\n        /* \"#utility.yul\":15115:15118   */\n      dup3\n        /* \"#utility.yul\":15082:15119   */\n      tag_88\n      jump\t// in\n    tag_283:\n        /* \"#utility.yul\":15184:15202   */\n      0xffffffffffffffff\n        /* \"#utility.yul\":15176:15182   */\n      dup2\n        /* \"#utility.yul\":15173:15203   */\n      gt\n        /* \"#utility.yul\":15170:15226   */\n      iszero\n      tag_284\n      jumpi\n        /* \"#utility.yul\":15206:15224   */\n      tag_285\n      tag_103\n      jump\t// in\n    tag_285:\n        /* \"#utility.yul\":15170:15226   */\n    tag_284:\n        /* \"#utility.yul\":15250:15288   */\n      tag_286\n        /* \"#utility.yul\":15282:15286   */\n      dup3\n        /* \"#utility.yul\":15276:15287   */\n      sload\n        /* \"#utility.yul\":15250:15288   */\n      tag_36\n      jump\t// in\n    tag_286:\n        /* \"#utility.yul\":15335:15402   */\n      tag_287\n        /* \"#utility.yul\":15395:15401   */\n      dup3\n        /* \"#utility.yul\":15387:15393   */\n      dup3\n        /* \"#utility.yul\":15381:15385   */\n      dup6\n        /* \"#utility.yul\":15335:15402   */\n      tag_135\n      jump\t// in\n    tag_287:\n        /* \"#utility.yul\":15429:15430   */\n      0x00\n        /* \"#utility.yul\":15453:15457   */\n      0x20\n        /* \"#utility.yul\":15440:15457   */\n      swap1\n      pop\n        /* \"#utility.yul\":15485:15487   */\n      0x1f\n        /* \"#utility.yul\":15477:15483   */\n      dup4\n        /* \"#utility.yul\":15474:15488   */\n      gt\n        /* \"#utility.yul\":15502:15503   */\n      0x01\n        /* \"#utility.yul\":15497:16115   */\n      dup2\n      eq\n      tag_289\n      jumpi\n        /* \"#utility.yul\":16159:16160   */\n      0x00\n        /* \"#utility.yul\":16176:16182   */\n      dup5\n        /* \"#utility.yul\":16173:16250   */\n      iszero\n      tag_290\n      jumpi\n        /* \"#utility.yul\":16225:16234   */\n      dup3\n        /* \"#utility.yul\":16220:16223   */\n      dup8\n        /* \"#utility.yul\":16216:16235   */\n      add\n        /* \"#utility.yul\":16210:16236   */\n      mload\n        /* \"#utility.yul\":16201:16236   */\n      swap1\n      pop\n        /* \"#utility.yul\":16173:16250   */\n    tag_290:\n        /* \"#utility.yul\":16276:16343   */\n      tag_291\n        /* \"#utility.yul\":16336:16342   */\n      dup6\n        /* \"#utility.yul\":16329:16334   */\n      dup3\n        /* \"#utility.yul\":16276:16343   */\n      tag_138\n      jump\t// in\n    tag_291:\n        /* \"#utility.yul\":16270:16274   */\n      dup7\n        /* \"#utility.yul\":16263:16344   */\n      sstore\n        /* \"#utility.yul\":16132:16354   */\n      pop\n        /* \"#utility.yul\":15467:16354   */\n      jump(tag_288)\n        /* \"#utility.yul\":15497:16115   */\n    tag_289:\n        /* \"#utility.yul\":15549:15553   */\n      0x1f\n        /* \"#utility.yul\":15545:15554   */\n      not\n        /* \"#utility.yul\":15537:15543   */\n      dup5\n        /* \"#utility.yul\":15533:15555   */\n      and\n        /* \"#utility.yul\":15583:15620   */\n      tag_292\n        /* \"#utility.yul\":15615:15619   */\n      dup7\n        /* \"#utility.yul\":15583:15620   */\n      tag_124\n      jump\t// in\n    tag_292:\n        /* \"#utility.yul\":15642:15643   */\n      0x00\n        /* \"#utility.yul\":15656:15864   */\n    tag_293:\n        /* \"#utility.yul\":15670:15677   */\n      dup3\n        /* \"#utility.yul\":15667:15668   */\n      dup2\n        /* \"#utility.yul\":15664:15678   */\n      lt\n        /* \"#utility.yul\":15656:15864   */\n      iszero\n      tag_295\n      jumpi\n        /* \"#utility.yul\":15749:15758   */\n      dup5\n        /* \"#utility.yul\":15744:15747   */\n      dup10\n        /* \"#utility.yul\":15740:15759   */\n      add\n        /* \"#utility.yul\":15734:15760   */\n      mload\n        /* \"#utility.yul\":15726:15732   */\n      dup3\n        /* \"#utility.yul\":15719:15761   */\n      sstore\n        /* \"#utility.yul\":15800:15801   */\n      0x01\n        /* \"#utility.yul\":15792:15798   */\n      dup3\n        /* \"#utility.yul\":15788:15802   */\n      add\n        /* \"#utility.yul\":15778:15802   */\n      swap2\n      pop\n        /* \"#utility.yul\":15847:15849   */\n      0x20\n        /* \"#utility.yul\":15836:15845   */\n      dup6\n        /* \"#utility.yul\":15832:15850   */\n      add\n        /* \"#utility.yul\":15819:15850   */\n      swap5\n      pop\n        /* \"#utility.yul\":15693:15697   */\n      0x20\n        /* \"#utility.yul\":15690:15691   */\n      dup2\n        /* \"#utility.yul\":15686:15698   */\n      add\n        /* \"#utility.yul\":15681:15698   */\n      swap1\n      pop\n        /* \"#utility.yul\":15656:15864   */\n      jump(tag_293)\n    tag_295:\n        /* \"#utility.yul\":15892:15898   */\n      dup7\n        /* \"#utility.yul\":15883:15890   */\n      dup4\n        /* \"#utility.yul\":15880:15899   */\n      lt\n        /* \"#utility.yul\":15877:16056   */\n      iszero\n      tag_296\n      jumpi\n        /* \"#utility.yul\":15950:15959   */\n      dup5\n        /* \"#utility.yul\":15945:15948   */\n      dup10\n        /* \"#utility.yul\":15941:15960   */\n      add\n        /* \"#utility.yul\":15935:15961   */\n      mload\n        /* \"#utility.yul\":15993:16041   */\n      tag_297\n        /* \"#utility.yul\":16035:16039   */\n      0x1f\n        /* \"#utility.yul\":16027:16033   */\n      dup10\n        /* \"#utility.yul\":16023:16040   */\n      and\n        /* \"#utility.yul\":16012:16021   */\n      dup3\n        /* \"#utility.yul\":15993:16041   */\n      tag_137\n      jump\t// in\n    tag_297:\n        /* \"#utility.yul\":15985:15991   */\n      dup4\n        /* \"#utility.yul\":15978:16042   */\n      sstore\n        /* \"#utility.yul\":15900:16056   */\n      pop\n        /* \"#utility.yul\":15877:16056   */\n    tag_296:\n        /* \"#utility.yul\":16102:16103   */\n      0x01\n        /* \"#utility.yul\":16098:16099   */\n      0x02\n        /* \"#utility.yul\":16090:16096   */\n      dup9\n        /* \"#utility.yul\":16086:16100   */\n      mul\n        /* \"#utility.yul\":16082:16104   */\n      add\n        /* \"#utility.yul\":16076:16080   */\n      dup9\n        /* \"#utility.yul\":16069:16105   */\n      sstore\n        /* \"#utility.yul\":15504:16115   */\n      pop\n      pop\n      pop\n        /* \"#utility.yul\":15467:16354   */\n    tag_288:\n      pop\n        /* \"#utility.yul\":15057:16360   */\n      pop\n      pop\n      pop\n        /* \"#utility.yul\":14965:16360   */\n      pop\n      pop\n      jump\t// out\n        /* \"#utility.yul\":16366:16515   */\n    tag_139:\n        /* \"#utility.yul\":16415:16421   */\n      0x00\n        /* \"#utility.yul\":16449:16454   */\n      dup2\n        /* \"#utility.yul\":16443:16455   */\n      sload\n        /* \"#utility.yul\":16433:16455   */\n      swap1\n      pop\n        /* \"#utility.yul\":16475:16508   */\n      tag_299\n        /* \"#utility.yul\":16501:16507   */\n      dup2\n        /* \"#utility.yul\":16475:16508   */\n      tag_36\n      jump\t// in\n    tag_299:\n        /* \"#utility.yul\":16465:16508   */\n      swap1\n      pop\n        /* \"#utility.yul\":16366:16515   */\n      swap2\n      swap1\n      pop\n      jump\t// out\n        /* \"#utility.yul\":16521:17972   */\n    tag_87:\n        /* \"#utility.yul\":16632:16635   */\n      dup2\n        /* \"#utility.yul\":16626:16630   */\n      dup2\n        /* \"#utility.yul\":16623:16636   */\n      sub\n        /* \"#utility.yul\":16620:16646   */\n      tag_301\n      jumpi\n        /* \"#utility.yul\":16639:16644   */\n      pop\n      pop\n      jump(tag_300)\n        /* \"#utility.yul\":16620:16646   */\n    tag_301:\n        /* \"#utility.yul\":16670:16704   */\n      tag_302\n        /* \"#utility.yul\":16700:16703   */\n      dup3\n        /* \"#utility.yul\":16670:16704   */\n      tag_139\n      jump\t// in\n    tag_302:\n        /* \"#utility.yul\":16769:16787   */\n      0xffffffffffffffff\n        /* \"#utility.yul\":16761:16767   */\n      dup2\n        /* \"#utility.yul\":16758:16788   */\n      gt\n        /* \"#utility.yul\":16755:16811   */\n      iszero\n      tag_303\n      jumpi\n        /* \"#utility.yul\":16791:16809   */\n      tag_304\n      tag_103\n      jump\t// in\n    tag_304:\n        /* \"#utility.yul\":16755:16811   */\n    tag_303:\n        /* \"#utility.yul\":16835:16873   */\n      tag_305\n        /* \"#utility.yul\":16867:16871   */\n      dup3\n        /* \"#utility.yul\":16861:16872   */\n      sload\n        /* \"#utility.yul\":16835:16873   */\n      tag_36\n      jump\t// in\n    tag_305:\n        /* \"#utility.yul\":16920:16987   */\n      tag_306\n        /* \"#utility.yul\":16980:16986   */\n      dup3\n        /* \"#utility.yul\":16972:16978   */\n      dup3\n        /* \"#utility.yul\":16966:16970   */\n      dup6\n        /* \"#utility.yul\":16920:16987   */\n      tag_135\n      jump\t// in\n    tag_306:\n        /* \"#utility.yul\":17014:17015   */\n      0x00\n        /* \"#utility.yul\":17043:17045   */\n      0x1f\n        /* \"#utility.yul\":17035:17041   */\n      dup4\n        /* \"#utility.yul\":17032:17046   */\n      gt\n        /* \"#utility.yul\":17060:17061   */\n      0x01\n        /* \"#utility.yul\":17055:17727   */\n      dup2\n      eq\n      tag_308\n      jumpi\n        /* \"#utility.yul\":17771:17772   */\n      0x00\n        /* \"#utility.yul\":17788:17794   */\n      dup5\n        /* \"#utility.yul\":17785:17862   */\n      iszero\n      tag_309\n      jumpi\n        /* \"#utility.yul\":17837:17846   */\n      dup3\n        /* \"#utility.yul\":17832:17835   */\n      dup8\n        /* \"#utility.yul\":17828:17847   */\n      add\n        /* \"#utility.yul\":17822:17848   */\n      sload\n        /* \"#utility.yul\":17813:17848   */\n      swap1\n      pop\n        /* \"#utility.yul\":17785:17862   */\n    tag_309:\n        /* \"#utility.yul\":17888:17955   */\n      tag_310\n        /* \"#utility.yul\":17948:17954   */\n      dup6\n        /* \"#utility.yul\":17941:17946   */\n      dup3\n        /* \"#utility.yul\":17888:17955   */\n      tag_138\n      jump\t// in\n    tag_310:\n        /* \"#utility.yul\":17882:17886   */\n      dup7\n        /* \"#utility.yul\":17875:17956   */\n      sstore\n        /* \"#utility.yul\":17744:17966   */\n      pop\n        /* \"#utility.yul\":17025:17966   */\n      jump(tag_307)\n        /* \"#utility.yul\":17055:17727   */\n    tag_308:\n        /* \"#utility.yul\":17107:17111   */\n      0x1f\n        /* \"#utility.yul\":17103:17112   */\n      not\n        /* \"#utility.yul\":17095:17101   */\n      dup5\n        /* \"#utility.yul\":17091:17113   */\n      and\n        /* \"#utility.yul\":17133:17169   */\n      tag_311\n        /* \"#utility.yul\":17165:17168   */\n      dup8\n        /* \"#utility.yul\":17133:17169   */\n      tag_124\n      jump\t// in\n    tag_311:\n        /* \"#utility.yul\":17126:17169   */\n      swap7\n      pop\n        /* \"#utility.yul\":17196:17233   */\n      tag_312\n        /* \"#utility.yul\":17228:17232   */\n      dup7\n        /* \"#utility.yul\":17196:17233   */\n      tag_124\n      jump\t// in\n    tag_312:\n        /* \"#utility.yul\":17255:17256   */\n      0x00\n        /* \"#utility.yul\":17269:17476   */\n    tag_313:\n        /* \"#utility.yul\":17283:17290   */\n      dup3\n        /* \"#utility.yul\":17280:17281   */\n      dup2\n        /* \"#utility.yul\":17277:17291   */\n      lt\n        /* \"#utility.yul\":17269:17476   */\n      iszero\n      tag_315\n      jumpi\n        /* \"#utility.yul\":17362:17371   */\n      dup5\n        /* \"#utility.yul\":17357:17360   */\n      dup10\n        /* \"#utility.yul\":17353:17372   */\n      add\n        /* \"#utility.yul\":17347:17373   */\n      sload\n        /* \"#utility.yul\":17339:17345   */\n      dup3\n        /* \"#utility.yul\":17332:17374   */\n      sstore\n        /* \"#utility.yul\":17413:17414   */\n      0x01\n        /* \"#utility.yul\":17405:17411   */\n      dup3\n        /* \"#utility.yul\":17401:17415   */\n      add\n        /* \"#utility.yul\":17391:17415   */\n      swap2\n      pop\n        /* \"#utility.yul\":17460:17461   */\n      0x01\n        /* \"#utility.yul\":17449:17458   */\n      dup6\n        /* \"#utility.yul\":17445:17462   */\n      add\n        /* \"#utility.yul\":17432:17462   */\n      swap5\n      pop\n        /* \"#utility.yul\":17306:17310   */\n      0x20\n        /* \"#utility.yul\":17303:17304   */\n      dup2\n        /* \"#utility.yul\":17299:17311   */\n      add\n        /* \"#utility.yul\":17294:17311   */\n      swap1\n      pop\n        /* \"#utility.yul\":17269:17476   */\n      jump(tag_313)\n    tag_315:\n        /* \"#utility.yul\":17504:17510   */\n      dup7\n        /* \"#utility.yul\":17495:17502   */\n      dup4\n        /* \"#utility.yul\":17492:17511   */\n      lt\n        /* \"#utility.yul\":17489:17668   */\n      iszero\n      tag_316\n      jumpi\n        /* \"#utility.yul\":17562:17571   */\n      dup5\n        /* \"#utility.yul\":17557:17560   */\n      dup10\n        /* \"#utility.yul\":17553:17572   */\n      add\n        /* \"#utility.yul\":17547:17573   */\n      sload\n        /* \"#utility.yul\":17605:17653   */\n      tag_317\n        /* \"#utility.yul\":17647:17651   */\n      0x1f\n        /* \"#utility.yul\":17639:17645   */\n      dup10\n        /* \"#utility.yul\":17635:17652   */\n      and\n        /* \"#utility.yul\":17624:17633   */\n      dup3\n        /* \"#utility.yul\":17605:17653   */\n      tag_137\n      jump\t// in\n    tag_317:\n        /* \"#utility.yul\":17597:17603   */\n      dup4\n        /* \"#utility.yul\":17590:17654   */\n      sstore\n        /* \"#utility.yul\":17512:17668   */\n      pop\n        /* \"#utility.yul\":17489:17668   */\n    tag_316:\n        /* \"#utility.yul\":17714:17715   */\n      0x01\n        /* \"#utility.yul\":17710:17711   */\n      0x02\n        /* \"#utility.yul\":17702:17708   */\n      dup9\n        /* \"#utility.yul\":17698:17712   */\n      mul\n        /* \"#utility.yul\":17694:17716   */\n      add\n        /* \"#utility.yul\":17688:17692   */\n      dup9\n        /* \"#utility.yul\":17681:17717   */\n      sstore\n        /* \"#utility.yul\":17062:17727   */\n      pop\n      pop\n      pop\n        /* \"#utility.yul\":17025:17966   */\n    tag_307:\n      pop\n        /* \"#utility.yul\":16610:17972   */\n      pop\n      pop\n      pop\n        /* \"#utility.yul\":16521:17972   */\n      pop\n      pop\n    tag_300:\n      jump\t// out\n\n    auxdata: 0xa26469706673582212209c92812f2936a3a9e2a9577a200ba5b7129d983f7126b0612f32c9a6d0a1e90f64736f6c634300081a0033\n}\n",
				"bytecode": {
					"linkReferences": {},
					"object": "6080604052348015600e575f80fd5b505f600260146101000a81548160ff0219169083151502179055503360035f6101000a81548173ffffffffffffffffffffffffffffffffffffffff021916908373ffffffffffffffffffffffffffffffffffffffff160217905550611405806100765f395ff3fe608060405260043610610049575f3560e01c80630a48cead1461004d5780631046380114610078578063b3423248146100a3578063db1331fa146100ad578063e81d0011146100d7575b5f80fd5b348015610058575f80fd5b506100616100f3565b60405161006f929190610b2f565b60405180910390f35b348015610083575f80fd5b5061008c61034e565b60405161009a929190610b2f565b60405180910390f35b6100ab6105de565b005b3480156100b8575f80fd5b506100c161079a565b6040516100ce9190610b75565b60405180910390f35b6100f160048036038101906100ec9190610ccb565b6107a6565b005b60605f60035f9054906101000a900473ffffffffffffffffffffffffffffffffffffffff1673ffffffffffffffffffffffffffffffffffffffff163373ffffffffffffffffffffffffffffffffffffffff1614610185576040517f08c379a000000000000000000000000000000000000000000000000000000000815260040161017c90610d5c565b60405180910390fd5b60011515600260149054906101000a900460ff161515146101db576040517f08c379a00000000000000000000000000000000000000000000000000000000081526004016101d290610dc4565b60405180910390fd5b60045f60025f9054906101000a900473ffffffffffffffffffffffffffffffffffffffff1673ffffffffffffffffffffffffffffffffffffffff1673ffffffffffffffffffffffffffffffffffffffff1681526020019081526020015f205f0160045f60025f9054906101000a900473ffffffffffffffffffffffffffffffffffffffff1673ffffffffffffffffffffffffffffffffffffffff1673ffffffffffffffffffffffffffffffffffffffff1681526020019081526020015f206001015f9054906101000a900473ffffffffffffffffffffffffffffffffffffffff168180546102c890610e0f565b80601f01602080910402602001604051908101604052809291908181526020018280546102f490610e0f565b801561033f5780601f106103165761010080835404028352916020019161033f565b820191905f5260205f20905b81548152906001019060200180831161032257829003601f168201915b50505050509150915091509091565b60605f60035f9054906101000a900473ffffffffffffffffffffffffffffffffffffffff1673ffffffffffffffffffffffffffffffffffffffff163373ffffffffffffffffffffffffffffffffffffffff16146103e0576040517f08c379a00000000000000000000000000000000000000000000000000000000081526004016103d790610d5c565b60405180910390fd5b5f1515600260149054906101000a900460ff16151514610435576040517f08c379a000000000000000000000000000000000000000000000000000000000815260040161042c90610e89565b60405180910390fd5b5f600580549050426104479190610ed4565b90506005818154811061045d5761045c610f04565b5b905f5260205f2090600202016001015f9054906101000a900473ffffffffffffffffffffffffffffffffffffffff1660025f6101000a81548173ffffffffffffffffffffffffffffffffffffffff021916908373ffffffffffffffffffffffffffffffffffffffff1602179055506001600260146101000a81548160ff021916908315150217905550600581815481106104fa576104f9610f04565b5b905f5260205f2090600202015f016005828154811061051c5761051b610f04565b5b905f5260205f2090600202016001015f9054906101000a900473ffffffffffffffffffffffffffffffffffffffff1681805461055790610e0f565b80601f016020809104026020016040519081016040528092919081815260200182805461058390610e0f565b80156105ce5780601f106105a5576101008083540402835291602001916105ce565b820191905f5260205f20905b8154815290600101906020018083116105b157829003601f168201915b5050505050915092509250509091565b60035f9054906101000a900473ffffffffffffffffffffffffffffffffffffffff1673ffffffffffffffffffffffffffffffffffffffff163373ffffffffffffffffffffffffffffffffffffffff161461066d576040517f08c379a000000000000000000000000000000000000000000000000000000000815260040161066490610d5c565b60405180910390fd5b5f1515600360149054906101000a900460ff161515146106c2576040517f08c379a00000000000000000000000000000000000000000000000000000000081526004016106b990610f7b565b60405180910390fd5b60011515600260149054906101000a900460ff16151514610718576040517f08c379a000000000000000000000000000000000000000000000000000000000815260040161070f90610dc4565b60405180910390fd5b6001600360146101000a81548160ff02191690831515021790555060025f9054906101000a900473ffffffffffffffffffffffffffffffffffffffff1673ffffffffffffffffffffffffffffffffffffffff166108fc4790811502906040515f60405180830381858888f19350505050158015610797573d5f803e3d5ffd5b50565b678ac7230489e8000081565b678ac7230489e8000034146107f0576040517f08c379a00000000000000000000000000000000000000000000000000000000081526004016107e790610fe3565b60405180910390fd5b5f151560045f3373ffffffffffffffffffffffffffffffffffffffff1673ffffffffffffffffffffffffffffffffffffffff1681526020019081526020015f2060010160149054906101000a900460ff16151514610883576040517f08c379a000000000000000000000000000000000000000000000000000000000815260040161087a9061104b565b60405180910390fd5b60405180606001604052808281526020013373ffffffffffffffffffffffffffffffffffffffff1681526020016001151581525060045f3373ffffffffffffffffffffffffffffffffffffffff1673ffffffffffffffffffffffffffffffffffffffff1681526020019081526020015f205f820151815f0190816109079190611206565b506020820151816001015f6101000a81548173ffffffffffffffffffffffffffffffffffffffff021916908373ffffffffffffffffffffffffffffffffffffffff16021790555060408201518160010160146101000a81548160ff021916908315150217905550905050600560045f3373ffffffffffffffffffffffffffffffffffffffff1673ffffffffffffffffffffffffffffffffffffffff1681526020019081526020015f20908060018154018082558091505060019003905f5260205f2090600202015f909190919091505f8201815f0190816109e891906112ea565b50600182015f9054906101000a900473ffffffffffffffffffffffffffffffffffffffff16816001015f6101000a81548173ffffffffffffffffffffffffffffffffffffffff021916908373ffffffffffffffffffffffffffffffffffffffff1602179055506001820160149054906101000a900460ff168160010160146101000a81548160ff021916908315150217905550505050565b5f81519050919050565b5f82825260208201905092915050565b8281835e5f83830152505050565b5f601f19601f8301169050919050565b5f610ac282610a80565b610acc8185610a8a565b9350610adc818560208601610a9a565b610ae581610aa8565b840191505092915050565b5f73ffffffffffffffffffffffffffffffffffffffff82169050919050565b5f610b1982610af0565b9050919050565b610b2981610b0f565b82525050565b5f6040820190508181035f830152610b478185610ab8565b9050610b566020830184610b20565b9392505050565b5f819050919050565b610b6f81610b5d565b82525050565b5f602082019050610b885f830184610b66565b92915050565b5f604051905090565b5f80fd5b5f80fd5b5f80fd5b5f80fd5b7f4e487b71000000000000000000000000000000000000000000000000000000005f52604160045260245ffd5b610bdd82610aa8565b810181811067ffffffffffffffff82111715610bfc57610bfb610ba7565b5b80604052505050565b5f610c0e610b8e565b9050610c1a8282610bd4565b919050565b5f67ffffffffffffffff821115610c3957610c38610ba7565b5b610c4282610aa8565b9050602081019050919050565b828183375f83830152505050565b5f610c6f610c6a84610c1f565b610c05565b905082815260208101848484011115610c8b57610c8a610ba3565b5b610c96848285610c4f565b509392505050565b5f82601f830112610cb257610cb1610b9f565b5b8135610cc2848260208601610c5d565b91505092915050565b5f60208284031215610ce057610cdf610b97565b5b5f82013567ffffffffffffffff811115610cfd57610cfc610b9b565b5b610d0984828501610c9e565b91505092915050565b7f6e6f7420746865206f776e6572000000000000000000000000000000000000005f82015250565b5f610d46600d83610a8a565b9150610d5182610d12565b602082019050919050565b5f6020820190508181035f830152610d7381610d3a565b9050919050565b7f77696e6e6572206973207374696c6c206e6f74206465636c61726564000000005f82015250565b5f610dae601c83610a8a565b9150610db982610d7a565b602082019050919050565b5f6020820190508181035f830152610ddb81610da2565b9050919050565b7f4e487b71000000000000000000000000000000000000000000000000000000005f52602260045260245ffd5b5f6002820490506001821680610e2657607f821691505b602082108103610e3957610e38610de2565b5b50919050565b7f616c647265616479206465636c617265640000000000000000000000000000005f82015250565b5f610e73601183610a8a565b9150610e7e82610e3f565b602082019050919050565b5f6020820190508181035f830152610ea081610e67565b9050919050565b7f4e487b71000000000000000000000000000000000000000000000000000000005f52601260045260245ffd5b5f610ede82610b5d565b9150610ee983610b5d565b925082610ef957610ef8610ea7565b5b828206905092915050565b7f4e487b71000000000000000000000000000000000000000000000000000000005f52603260045260245ffd5b7f6d6f6e657920616c647265616479207472616e736665726564000000000000005f82015250565b5f610f65601983610a8a565b9150610f7082610f31565b602082019050919050565b5f6020820190508181035f830152610f9281610f59565b9050919050565b7f2070617920313020657468657220746f20627579206f6e65206c6f74746572795f82015250565b5f610fcd602083610a8a565b9150610fd882610f99565b602082019050919050565b5f6020820190508181035f830152610ffa81610fc1565b9050919050565b7f796f7520616c64726561647920626f75676874207469636b65740000000000005f82015250565b5f611035601a83610a8a565b915061104082611001565b602082019050919050565b5f6020820190508181035f83015261106281611029565b9050919050565b5f819050815f5260205f209050919050565b5f6020601f8301049050919050565b5f82821b905092915050565b5f600883026110c57fffffffffffffffffffffffffffffffffffffffffffffffffffffffffffffffff8261108a565b6110cf868361108a565b95508019841693508086168417925050509392505050565b5f819050919050565b5f61110a61110561110084610b5d565b6110e7565b610b5d565b9050919050565b5f819050919050565b611123836110f0565b61113761112f82611111565b848454611096565b825550505050565b5f90565b61114b61113f565b61115681848461111a565b505050565b5b818110156111795761116e5f82611143565b60018101905061115c565b5050565b601f8211156111be5761118f81611069565b6111988461107b565b810160208510156111a7578190505b6111bb6111b38561107b565b83018261115b565b50505b505050565b5f82821c905092915050565b5f6111de5f19846008026111c3565b1980831691505092915050565b5f6111f683836111cf565b9150826002028217905092915050565b61120f82610a80565b67ffffffffffffffff81111561122857611227610ba7565b5b6112328254610e0f565b61123d82828561117d565b5f60209050601f83116001811461126e575f841561125c578287015190505b61126685826111eb565b8655506112cd565b601f19841661127c86611069565b5f5b828110156112a35784890151825560018201915060208501945060208101905061127e565b868310156112c057848901516112bc601f8916826111cf565b8355505b6001600288020188555050505b505050505050565b5f815490506112e381610e0f565b9050919050565b8181036112f85750506113cd565b611301826112d5565b67ffffffffffffffff81111561131a57611319610ba7565b5b6113248254610e0f565b61132f82828561117d565b5f601f83116001811461135c575f841561134a578287015490505b61135485826111eb565b8655506113c6565b601f19841661136a87611069565b965061137586611069565b5f5b8281101561139c57848901548255600182019150600185019450602081019050611377565b868310156113b957848901546113b5601f8916826111cf565b8355505b6001600288020188555050505b5050505050505b56fea26469706673582212209c92812f2936a3a9e2a9577a200ba5b7129d983f7126b0612f32c9a6d0a1e90f64736f6c634300081a0033",
					"opcodes": "PUSH1 0x80 PUSH1 0x40 MSTORE CALLVALUE DUP1 ISZERO PUSH1 0xE JUMPI PUSH0 DUP1 REVERT JUMPDEST POP PUSH0 PUSH1 0x2 PUSH1 0x14 PUSH2 0x100 EXP DUP2 SLOAD DUP2 PUSH1 0xFF MUL NOT AND SWAP1 DUP4 ISZERO ISZERO MUL OR SWAP1 SSTORE POP CALLER PUSH1 0x3 PUSH0 PUSH2 0x100 EXP DUP2 SLOAD DUP2 PUSH20 0xFFFFFFFFFFFFFFFFFFFFFFFFFFFFFFFFFFFFFFFF MUL NOT AND SWAP1 DUP4 PUSH20 0xFFFFFFFFFFFFFFFFFFFFFFFFFFFFFFFFFFFFFFFF AND MUL OR SWAP1 SSTORE POP PUSH2 0x1405 DUP1 PUSH2 0x76 PUSH0 CODECOPY PUSH0 RETURN INVALID PUSH1 0x80 PUSH1 0x40 MSTORE PUSH1 0x4 CALLDATASIZE LT PUSH2 0x49 JUMPI PUSH0 CALLDATALOAD PUSH1 0xE0 SHR DUP1 PUSH4 0xA48CEAD EQ PUSH2 0x4D JUMPI DUP1 PUSH4 0x10463801 EQ PUSH2 0x78 JUMPI DUP1 PUSH4 0xB3423248 EQ PUSH2 0xA3 JUMPI DUP1 PUSH4 0xDB1331FA EQ PUSH2 0xAD JUMPI DUP1 PUSH4 0xE81D0011 EQ PUSH2 0xD7 JUMPI JUMPDEST PUSH0 DUP1 REVERT JUMPDEST CALLVALUE DUP1 ISZERO PUSH2 0x58 JUMPI PUSH0 DUP1 REVERT JUMPDEST POP PUSH2 0x61 PUSH2 0xF3 JUMP JUMPDEST PUSH1 0x40 MLOAD PUSH2 0x6F SWAP3 SWAP2 SWAP1 PUSH2 0xB2F JUMP JUMPDEST PUSH1 0x40 MLOAD DUP1 SWAP2 SUB SWAP1 RETURN JUMPDEST CALLVALUE DUP1 ISZERO PUSH2 0x83 JUMPI PUSH0 DUP1 REVERT JUMPDEST POP PUSH2 0x8C PUSH2 0x34E JUMP JUMPDEST PUSH1 0x40 MLOAD PUSH2 0x9A SWAP3 SWAP2 SWAP1 PUSH2 0xB2F JUMP JUMPDEST PUSH1 0x40 MLOAD DUP1 SWAP2 SUB SWAP1 RETURN JUMPDEST PUSH2 0xAB PUSH2 0x5DE JUMP JUMPDEST STOP JUMPDEST CALLVALUE DUP1 ISZERO PUSH2 0xB8 JUMPI PUSH0 DUP1 REVERT JUMPDEST POP PUSH2 0xC1 PUSH2 0x79A JUMP JUMPDEST PUSH1 0x40 MLOAD PUSH2 0xCE SWAP2 SWAP1 PUSH2 0xB75 JUMP JUMPDEST PUSH1 0x40 MLOAD DUP1 SWAP2 SUB SWAP1 RETURN JUMPDEST PUSH2 0xF1 PUSH1 0x4 DUP1 CALLDATASIZE SUB DUP2 ADD SWAP1 PUSH2 0xEC SWAP2 SWAP1 PUSH2 0xCCB JUMP JUMPDEST PUSH2 0x7A6 JUMP JUMPDEST STOP JUMPDEST PUSH1 0x60 PUSH0 PUSH1 0x3 PUSH0 SWAP1 SLOAD SWAP1 PUSH2 0x100 EXP SWAP1 DIV PUSH20 0xFFFFFFFFFFFFFFFFFFFFFFFFFFFFFFFFFFFFFFFF AND PUSH20 0xFFFFFFFFFFFFFFFFFFFFFFFFFFFFFFFFFFFFFFFF AND CALLER PUSH20 0xFFFFFFFFFFFFFFFFFFFFFFFFFFFFFFFFFFFFFFFF AND EQ PUSH2 0x185 JUMPI PUSH1 0x40 MLOAD PUSH32 0x8C379A000000000000000000000000000000000000000000000000000000000 DUP2 MSTORE PUSH1 0x4 ADD PUSH2 0x17C SWAP1 PUSH2 0xD5C JUMP JUMPDEST PUSH1 0x40 MLOAD DUP1 SWAP2 SUB SWAP1 REVERT JUMPDEST PUSH1 0x1 ISZERO ISZERO PUSH1 0x2 PUSH1 0x14 SWAP1 SLOAD SWAP1 PUSH2 0x100 EXP SWAP1 DIV PUSH1 0xFF AND ISZERO ISZERO EQ PUSH2 0x1DB JUMPI PUSH1 0x40 MLOAD PUSH32 0x8C379A000000000000000000000000000000000000000000000000000000000 DUP2 MSTORE PUSH1 0x4 ADD PUSH2 0x1D2 SWAP1 PUSH2 0xDC4 JUMP JUMPDEST PUSH1 0x40 MLOAD DUP1 SWAP2 SUB SWAP1 REVERT JUMPDEST PUSH1 0x4 PUSH0 PUSH1 0x2 PUSH0 SWAP1 SLOAD SWAP1 PUSH2 0x100 EXP SWAP1 DIV PUSH20 0xFFFFFFFFFFFFFFFFFFFFFFFFFFFFFFFFFFFFFFFF AND PUSH20 0xFFFFFFFFFFFFFFFFFFFFFFFFFFFFFFFFFFFFFFFF AND PUSH20 0xFFFFFFFFFFFFFFFFFFFFFFFFFFFFFFFFFFFFFFFF AND DUP2 MSTORE PUSH1 0x20 ADD SWAP1 DUP2 MSTORE PUSH1 0x20 ADD PUSH0 KECCAK256 PUSH0 ADD PUSH1 0x4 PUSH0 PUSH1 0x2 PUSH0 SWAP1 SLOAD SWAP1 PUSH2 0x100 EXP SWAP1 DIV PUSH20 0xFFFFFFFFFFFFFFFFFFFFFFFFFFFFFFFFFFFFFFFF AND PUSH20 0xFFFFFFFFFFFFFFFFFFFFFFFFFFFFFFFFFFFFFFFF AND PUSH20 0xFFFFFFFFFFFFFFFFFFFFFFFFFFFFFFFFFFFFFFFF AND DUP2 MSTORE PUSH1 0x20 ADD SWAP1 DUP2 MSTORE PUSH1 0x20 ADD PUSH0 KECCAK256 PUSH1 0x1 ADD PUSH0 SWAP1 SLOAD SWAP1 PUSH2 0x100 EXP SWAP1 DIV PUSH20 0xFFFFFFFFFFFFFFFFFFFFFFFFFFFFFFFFFFFFFFFF AND DUP2 DUP1 SLOAD PUSH2 0x2C8 SWAP1 PUSH2 0xE0F JUMP JUMPDEST DUP1 PUSH1 0x1F ADD PUSH1 0x20 DUP1 SWAP2 DIV MUL PUSH1 0x20 ADD PUSH1 0x40 MLOAD SWAP1 DUP2 ADD PUSH1 0x40 MSTORE DUP1 SWAP3 SWAP2 SWAP1 DUP2 DUP2 MSTORE PUSH1 0x20 ADD DUP3 DUP1 SLOAD PUSH2 0x2F4 SWAP1 PUSH2 0xE0F JUMP JUMPDEST DUP1 ISZERO PUSH2 0x33F JUMPI DUP1 PUSH1 0x1F LT PUSH2 0x316 JUMPI PUSH2 0x100 DUP1 DUP4 SLOAD DIV MUL DUP4 MSTORE SWAP2 PUSH1 0x20 ADD SWAP2 PUSH2 0x33F JUMP JUMPDEST DUP3 ADD SWAP2 SWAP1 PUSH0 MSTORE PUSH1 0x20 PUSH0 KECCAK256 SWAP1 JUMPDEST DUP2 SLOAD DUP2 MSTORE SWAP1 PUSH1 0x1 ADD SWAP1 PUSH1 0x20 ADD DUP1 DUP4 GT PUSH2 0x322 JUMPI DUP3 SWAP1 SUB PUSH1 0x1F AND DUP3 ADD SWAP2 JUMPDEST POP POP POP POP POP SWAP2 POP SWAP2 POP SWAP2 POP SWAP1 SWAP2 JUMP JUMPDEST PUSH1 0x60 PUSH0 PUSH1 0x3 PUSH0 SWAP1 SLOAD SWAP1 PUSH2 0x100 EXP SWAP1 DIV PUSH20 0xFFFFFFFFFFFFFFFFFFFFFFFFFFFFFFFFFFFFFFFF AND PUSH20 0xFFFFFFFFFFFFFFFFFFFFFFFFFFFFFFFFFFFFFFFF AND CALLER PUSH20 0xFFFFFFFFFFFFFFFFFFFFFFFFFFFFFFFFFFFFFFFF AND EQ PUSH2 0x3E0 JUMPI PUSH1 0x40 MLOAD PUSH32 0x8C379A000000000000000000000000000000000000000000000000000000000 DUP2 MSTORE PUSH1 0x4 ADD PUSH2 0x3D7 SWAP1 PUSH2 0xD5C JUMP JUMPDEST PUSH1 0x40 MLOAD DUP1 SWAP2 SUB SWAP1 REVERT JUMPDEST PUSH0 ISZERO ISZERO PUSH1 0x2 PUSH1 0x14 SWAP1 SLOAD SWAP1 PUSH2 0x100 EXP SWAP1 DIV PUSH1 0xFF AND ISZERO ISZERO EQ PUSH2 0x435 JUMPI PUSH1 0x40 MLOAD PUSH32 0x8C379A000000000000000000000000000000000000000000000000000000000 DUP2 MSTORE PUSH1 0x4 ADD PUSH2 0x42C SWAP1 PUSH2 0xE89 JUMP JUMPDEST PUSH1 0x40 MLOAD DUP1 SWAP2 SUB SWAP1 REVERT JUMPDEST PUSH0 PUSH1 0x5 DUP1 SLOAD SWAP1 POP TIMESTAMP PUSH2 0x447 SWAP2 SWAP1 PUSH2 0xED4 JUMP JUMPDEST SWAP1 POP PUSH1 0x5 DUP2 DUP2 SLOAD DUP2 LT PUSH2 0x45D JUMPI PUSH2 0x45C PUSH2 0xF04 JUMP JUMPDEST JUMPDEST SWAP1 PUSH0 MSTORE PUSH1 0x20 PUSH0 KECCAK256 SWAP1 PUSH1 0x2 MUL ADD PUSH1 0x1 ADD PUSH0 SWAP1 SLOAD SWAP1 PUSH2 0x100 EXP SWAP1 DIV PUSH20 0xFFFFFFFFFFFFFFFFFFFFFFFFFFFFFFFFFFFFFFFF AND PUSH1 0x2 PUSH0 PUSH2 0x100 EXP DUP2 SLOAD DUP2 PUSH20 0xFFFFFFFFFFFFFFFFFFFFFFFFFFFFFFFFFFFFFFFF MUL NOT AND SWAP1 DUP4 PUSH20 0xFFFFFFFFFFFFFFFFFFFFFFFFFFFFFFFFFFFFFFFF AND MUL OR SWAP1 SSTORE POP PUSH1 0x1 PUSH1 0x2 PUSH1 0x14 PUSH2 0x100 EXP DUP2 SLOAD DUP2 PUSH1 0xFF MUL NOT AND SWAP1 DUP4 ISZERO ISZERO MUL OR SWAP1 SSTORE POP PUSH1 0x5 DUP2 DUP2 SLOAD DUP2 LT PUSH2 0x4FA JUMPI PUSH2 0x4F9 PUSH2 0xF04 JUMP JUMPDEST JUMPDEST SWAP1 PUSH0 MSTORE PUSH1 0x20 PUSH0 KECCAK256 SWAP1 PUSH1 0x2 MUL ADD PUSH0 ADD PUSH1 0x5 DUP3 DUP2 SLOAD DUP2 LT PUSH2 0x51C JUMPI PUSH2 0x51B PUSH2 0xF04 JUMP JUMPDEST JUMPDEST SWAP1 PUSH0 MSTORE PUSH1 0x20 PUSH0 KECCAK256 SWAP1 PUSH1 0x2 MUL ADD PUSH1 0x1 ADD PUSH0 SWAP1 SLOAD SWAP1 PUSH2 0x100 EXP SWAP1 DIV PUSH20 0xFFFFFFFFFFFFFFFFFFFFFFFFFFFFFFFFFFFFFFFF AND DUP2 DUP1 SLOAD PUSH2 0x557 SWAP1 PUSH2 0xE0F JUMP JUMPDEST DUP1 PUSH1 0x1F ADD PUSH1 0x20 DUP1 SWAP2 DIV MUL PUSH1 0x20 ADD PUSH1 0x40 MLOAD SWAP1 DUP2 ADD PUSH1 0x40 MSTORE DUP1 SWAP3 SWAP2 SWAP1 DUP2 DUP2 MSTORE PUSH1 0x20 ADD DUP3 DUP1 SLOAD PUSH2 0x583 SWAP1 PUSH2 0xE0F JUMP JUMPDEST DUP1 ISZERO PUSH2 0x5CE JUMPI DUP1 PUSH1 0x1F LT PUSH2 0x5A5 JUMPI PUSH2 0x100 DUP1 DUP4 SLOAD DIV MUL DUP4 MSTORE SWAP2 PUSH1 0x20 ADD SWAP2 PUSH2 0x5CE JUMP JUMPDEST DUP3 ADD SWAP2 SWAP1 PUSH0 MSTORE PUSH1 0x20 PUSH0 KECCAK256 SWAP1 JUMPDEST DUP2 SLOAD DUP2 MSTORE SWAP1 PUSH1 0x1 ADD SWAP1 PUSH1 0x20 ADD DUP1 DUP4 GT PUSH2 0x5B1 JUMPI DUP3 SWAP1 SUB PUSH1 0x1F AND DUP3 ADD SWAP2 JUMPDEST POP POP POP POP POP SWAP2 POP SWAP3 POP SWAP3 POP POP SWAP1 SWAP2 JUMP JUMPDEST PUSH1 0x3 PUSH0 SWAP1 SLOAD SWAP1 PUSH2 0x100 EXP SWAP1 DIV PUSH20 0xFFFFFFFFFFFFFFFFFFFFFFFFFFFFFFFFFFFFFFFF AND PUSH20 0xFFFFFFFFFFFFFFFFFFFFFFFFFFFFFFFFFFFFFFFF AND CALLER PUSH20 0xFFFFFFFFFFFFFFFFFFFFFFFFFFFFFFFFFFFFFFFF AND EQ PUSH2 0x66D JUMPI PUSH1 0x40 MLOAD PUSH32 0x8C379A000000000000000000000000000000000000000000000000000000000 DUP2 MSTORE PUSH1 0x4 ADD PUSH2 0x664 SWAP1 PUSH2 0xD5C JUMP JUMPDEST PUSH1 0x40 MLOAD DUP1 SWAP2 SUB SWAP1 REVERT JUMPDEST PUSH0 ISZERO ISZERO PUSH1 0x3 PUSH1 0x14 SWAP1 SLOAD SWAP1 PUSH2 0x100 EXP SWAP1 DIV PUSH1 0xFF AND ISZERO ISZERO EQ PUSH2 0x6C2 JUMPI PUSH1 0x40 MLOAD PUSH32 0x8C379A000000000000000000000000000000000000000000000000000000000 DUP2 MSTORE PUSH1 0x4 ADD PUSH2 0x6B9 SWAP1 PUSH2 0xF7B JUMP JUMPDEST PUSH1 0x40 MLOAD DUP1 SWAP2 SUB SWAP1 REVERT JUMPDEST PUSH1 0x1 ISZERO ISZERO PUSH1 0x2 PUSH1 0x14 SWAP1 SLOAD SWAP1 PUSH2 0x100 EXP SWAP1 DIV PUSH1 0xFF AND ISZERO ISZERO EQ PUSH2 0x718 JUMPI PUSH1 0x40 MLOAD PUSH32 0x8C379A000000000000000000000000000000000000000000000000000000000 DUP2 MSTORE PUSH1 0x4 ADD PUSH2 0x70F SWAP1 PUSH2 0xDC4 JUMP JUMPDEST PUSH1 0x40 MLOAD DUP1 SWAP2 SUB SWAP1 REVERT JUMPDEST PUSH1 0x1 PUSH1 0x3 PUSH1 0x14 PUSH2 0x100 EXP DUP2 SLOAD DUP2 PUSH1 0xFF MUL NOT AND SWAP1 DUP4 ISZERO ISZERO MUL OR SWAP1 SSTORE POP PUSH1 0x2 PUSH0 SWAP1 SLOAD SWAP1 PUSH2 0x100 EXP SWAP1 DIV PUSH20 0xFFFFFFFFFFFFFFFFFFFFFFFFFFFFFFFFFFFFFFFF AND PUSH20 0xFFFFFFFFFFFFFFFFFFFFFFFFFFFFFFFFFFFFFFFF AND PUSH2 0x8FC SELFBALANCE SWAP1 DUP2 ISZERO MUL SWAP1 PUSH1 0x40 MLOAD PUSH0 PUSH1 0x40 MLOAD DUP1 DUP4 SUB DUP2 DUP6 DUP9 DUP9 CALL SWAP4 POP POP POP POP ISZERO DUP1 ISZERO PUSH2 0x797 JUMPI RETURNDATASIZE PUSH0 DUP1 RETURNDATACOPY RETURNDATASIZE PUSH0 REVERT JUMPDEST POP JUMP JUMPDEST PUSH8 0x8AC7230489E80000 DUP2 JUMP JUMPDEST PUSH8 0x8AC7230489E80000 CALLVALUE EQ PUSH2 0x7F0 JUMPI PUSH1 0x40 MLOAD PUSH32 0x8C379A000000000000000000000000000000000000000000000000000000000 DUP2 MSTORE PUSH1 0x4 ADD PUSH2 0x7E7 SWAP1 PUSH2 0xFE3 JUMP JUMPDEST PUSH1 0x40 MLOAD DUP1 SWAP2 SUB SWAP1 REVERT JUMPDEST PUSH0 ISZERO ISZERO PUSH1 0x4 PUSH0 CALLER PUSH20 0xFFFFFFFFFFFFFFFFFFFFFFFFFFFFFFFFFFFFFFFF AND PUSH20 0xFFFFFFFFFFFFFFFFFFFFFFFFFFFFFFFFFFFFFFFF AND DUP2 MSTORE PUSH1 0x20 ADD SWAP1 DUP2 MSTORE PUSH1 0x20 ADD PUSH0 KECCAK256 PUSH1 0x1 ADD PUSH1 0x14 SWAP1 SLOAD SWAP1 PUSH2 0x100 EXP SWAP1 DIV PUSH1 0xFF AND ISZERO ISZERO EQ PUSH2 0x883 JUMPI PUSH1 0x40 MLOAD PUSH32 0x8C379A000000000000000000000000000000000000000000000000000000000 DUP2 MSTORE PUSH1 0x4 ADD PUSH2 0x87A SWAP1 PUSH2 0x104B JUMP JUMPDEST PUSH1 0x40 MLOAD DUP1 SWAP2 SUB SWAP1 REVERT JUMPDEST PUSH1 0x40 MLOAD DUP1 PUSH1 0x60 ADD PUSH1 0x40 MSTORE DUP1 DUP3 DUP2 MSTORE PUSH1 0x20 ADD CALLER PUSH20 0xFFFFFFFFFFFFFFFFFFFFFFFFFFFFFFFFFFFFFFFF AND DUP2 MSTORE PUSH1 0x20 ADD PUSH1 0x1 ISZERO ISZERO DUP2 MSTORE POP PUSH1 0x4 PUSH0 CALLER PUSH20 0xFFFFFFFFFFFFFFFFFFFFFFFFFFFFFFFFFFFFFFFF AND PUSH20 0xFFFFFFFFFFFFFFFFFFFFFFFFFFFFFFFFFFFFFFFF AND DUP2 MSTORE PUSH1 0x20 ADD SWAP1 DUP2 MSTORE PUSH1 0x20 ADD PUSH0 KECCAK256 PUSH0 DUP3 ADD MLOAD DUP2 PUSH0 ADD SWAP1 DUP2 PUSH2 0x907 SWAP2 SWAP1 PUSH2 0x1206 JUMP JUMPDEST POP PUSH1 0x20 DUP3 ADD MLOAD DUP2 PUSH1 0x1 ADD PUSH0 PUSH2 0x100 EXP DUP2 SLOAD DUP2 PUSH20 0xFFFFFFFFFFFFFFFFFFFFFFFFFFFFFFFFFFFFFFFF MUL NOT AND SWAP1 DUP4 PUSH20 0xFFFFFFFFFFFFFFFFFFFFFFFFFFFFFFFFFFFFFFFF AND MUL OR SWAP1 SSTORE POP PUSH1 0x40 DUP3 ADD MLOAD DUP2 PUSH1 0x1 ADD PUSH1 0x14 PUSH2 0x100 EXP DUP2 SLOAD DUP2 PUSH1 0xFF MUL NOT AND SWAP1 DUP4 ISZERO ISZERO MUL OR SWAP1 SSTORE POP SWAP1 POP POP PUSH1 0x5 PUSH1 0x4 PUSH0 CALLER PUSH20 0xFFFFFFFFFFFFFFFFFFFFFFFFFFFFFFFFFFFFFFFF AND PUSH20 0xFFFFFFFFFFFFFFFFFFFFFFFFFFFFFFFFFFFFFFFF AND DUP2 MSTORE PUSH1 0x20 ADD SWAP1 DUP2 MSTORE PUSH1 0x20 ADD PUSH0 KECCAK256 SWAP1 DUP1 PUSH1 0x1 DUP2 SLOAD ADD DUP1 DUP3 SSTORE DUP1 SWAP2 POP POP PUSH1 0x1 SWAP1 SUB SWAP1 PUSH0 MSTORE PUSH1 0x20 PUSH0 KECCAK256 SWAP1 PUSH1 0x2 MUL ADD PUSH0 SWAP1 SWAP2 SWAP1 SWAP2 SWAP1 SWAP2 POP PUSH0 DUP3 ADD DUP2 PUSH0 ADD SWAP1 DUP2 PUSH2 0x9E8 SWAP2 SWAP1 PUSH2 0x12EA JUMP JUMPDEST POP PUSH1 0x1 DUP3 ADD PUSH0 SWAP1 SLOAD SWAP1 PUSH2 0x100 EXP SWAP1 DIV PUSH20 0xFFFFFFFFFFFFFFFFFFFFFFFFFFFFFFFFFFFFFFFF AND DUP2 PUSH1 0x1 ADD PUSH0 PUSH2 0x100 EXP DUP2 SLOAD DUP2 PUSH20 0xFFFFFFFFFFFFFFFFFFFFFFFFFFFFFFFFFFFFFFFF MUL NOT AND SWAP1 DUP4 PUSH20 0xFFFFFFFFFFFFFFFFFFFFFFFFFFFFFFFFFFFFFFFF AND MUL OR SWAP1 SSTORE POP PUSH1 0x1 DUP3 ADD PUSH1 0x14 SWAP1 SLOAD SWAP1 PUSH2 0x100 EXP SWAP1 DIV PUSH1 0xFF AND DUP2 PUSH1 0x1 ADD PUSH1 0x14 PUSH2 0x100 EXP DUP2 SLOAD DUP2 PUSH1 0xFF MUL NOT AND SWAP1 DUP4 ISZERO ISZERO MUL OR SWAP1 SSTORE POP POP POP POP JUMP JUMPDEST PUSH0 DUP2 MLOAD SWAP1 POP SWAP2 SWAP1 POP JUMP JUMPDEST PUSH0 DUP3 DUP3 MSTORE PUSH1 0x20 DUP3 ADD SWAP1 POP SWAP3 SWAP2 POP POP JUMP JUMPDEST DUP3 DUP2 DUP4 MCOPY PUSH0 DUP4 DUP4 ADD MSTORE POP POP POP JUMP JUMPDEST PUSH0 PUSH1 0x1F NOT PUSH1 0x1F DUP4 ADD AND SWAP1 POP SWAP2 SWAP1 POP JUMP JUMPDEST PUSH0 PUSH2 0xAC2 DUP3 PUSH2 0xA80 JUMP JUMPDEST PUSH2 0xACC DUP2 DUP6 PUSH2 0xA8A JUMP JUMPDEST SWAP4 POP PUSH2 0xADC DUP2 DUP6 PUSH1 0x20 DUP7 ADD PUSH2 0xA9A JUMP JUMPDEST PUSH2 0xAE5 DUP2 PUSH2 0xAA8 JUMP JUMPDEST DUP5 ADD SWAP2 POP POP SWAP3 SWAP2 POP POP JUMP JUMPDEST PUSH0 PUSH20 0xFFFFFFFFFFFFFFFFFFFFFFFFFFFFFFFFFFFFFFFF DUP3 AND SWAP1 POP SWAP2 SWAP1 POP JUMP JUMPDEST PUSH0 PUSH2 0xB19 DUP3 PUSH2 0xAF0 JUMP JUMPDEST SWAP1 POP SWAP2 SWAP1 POP JUMP JUMPDEST PUSH2 0xB29 DUP2 PUSH2 0xB0F JUMP JUMPDEST DUP3 MSTORE POP POP JUMP JUMPDEST PUSH0 PUSH1 0x40 DUP3 ADD SWAP1 POP DUP2 DUP2 SUB PUSH0 DUP4 ADD MSTORE PUSH2 0xB47 DUP2 DUP6 PUSH2 0xAB8 JUMP JUMPDEST SWAP1 POP PUSH2 0xB56 PUSH1 0x20 DUP4 ADD DUP5 PUSH2 0xB20 JUMP JUMPDEST SWAP4 SWAP3 POP POP POP JUMP JUMPDEST PUSH0 DUP2 SWAP1 POP SWAP2 SWAP1 POP JUMP JUMPDEST PUSH2 0xB6F DUP2 PUSH2 0xB5D JUMP JUMPDEST DUP3 MSTORE POP POP JUMP JUMPDEST PUSH0 PUSH1 0x20 DUP3 ADD SWAP1 POP PUSH2 0xB88 PUSH0 DUP4 ADD DUP5 PUSH2 0xB66 JUMP JUMPDEST SWAP3 SWAP2 POP POP JUMP JUMPDEST PUSH0 PUSH1 0x40 MLOAD SWAP1 POP SWAP1 JUMP JUMPDEST PUSH0 DUP1 REVERT JUMPDEST PUSH0 DUP1 REVERT JUMPDEST PUSH0 DUP1 REVERT JUMPDEST PUSH0 DUP1 REVERT JUMPDEST PUSH32 0x4E487B7100000000000000000000000000000000000000000000000000000000 PUSH0 MSTORE PUSH1 0x41 PUSH1 0x4 MSTORE PUSH1 0x24 PUSH0 REVERT JUMPDEST PUSH2 0xBDD DUP3 PUSH2 0xAA8 JUMP JUMPDEST DUP2 ADD DUP2 DUP2 LT PUSH8 0xFFFFFFFFFFFFFFFF DUP3 GT OR ISZERO PUSH2 0xBFC JUMPI PUSH2 0xBFB PUSH2 0xBA7 JUMP JUMPDEST JUMPDEST DUP1 PUSH1 0x40 MSTORE POP POP POP JUMP JUMPDEST PUSH0 PUSH2 0xC0E PUSH2 0xB8E JUMP JUMPDEST SWAP1 POP PUSH2 0xC1A DUP3 DUP3 PUSH2 0xBD4 JUMP JUMPDEST SWAP2 SWAP1 POP JUMP JUMPDEST PUSH0 PUSH8 0xFFFFFFFFFFFFFFFF DUP3 GT ISZERO PUSH2 0xC39 JUMPI PUSH2 0xC38 PUSH2 0xBA7 JUMP JUMPDEST JUMPDEST PUSH2 0xC42 DUP3 PUSH2 0xAA8 JUMP JUMPDEST SWAP1 POP PUSH1 0x20 DUP2 ADD SWAP1 POP SWAP2 SWAP1 POP JUMP JUMPDEST DUP3 DUP2 DUP4 CALLDATACOPY PUSH0 DUP4 DUP4 ADD MSTORE POP POP POP JUMP JUMPDEST PUSH0 PUSH2 0xC6F PUSH2 0xC6A DUP5 PUSH2 0xC1F JUMP JUMPDEST PUSH2 0xC05 JUMP JUMPDEST SWAP1 POP DUP3 DUP2 MSTORE PUSH1 0x20 DUP2 ADD DUP5 DUP5 DUP5 ADD GT ISZERO PUSH2 0xC8B JUMPI PUSH2 0xC8A PUSH2 0xBA3 JUMP JUMPDEST JUMPDEST PUSH2 0xC96 DUP5 DUP3 DUP6 PUSH2 0xC4F JUMP JUMPDEST POP SWAP4 SWAP3 POP POP POP JUMP JUMPDEST PUSH0 DUP3 PUSH1 0x1F DUP4 ADD SLT PUSH2 0xCB2 JUMPI PUSH2 0xCB1 PUSH2 0xB9F JUMP JUMPDEST JUMPDEST DUP2 CALLDATALOAD PUSH2 0xCC2 DUP5 DUP3 PUSH1 0x20 DUP7 ADD PUSH2 0xC5D JUMP JUMPDEST SWAP2 POP POP SWAP3 SWAP2 POP POP JUMP JUMPDEST PUSH0 PUSH1 0x20 DUP3 DUP5 SUB SLT ISZERO PUSH2 0xCE0 JUMPI PUSH2 0xCDF PUSH2 0xB97 JUMP JUMPDEST JUMPDEST PUSH0 DUP3 ADD CALLDATALOAD PUSH8 0xFFFFFFFFFFFFFFFF DUP2 GT ISZERO PUSH2 0xCFD JUMPI PUSH2 0xCFC PUSH2 0xB9B JUMP JUMPDEST JUMPDEST PUSH2 0xD09 DUP5 DUP3 DUP6 ADD PUSH2 0xC9E JUMP JUMPDEST SWAP2 POP POP SWAP3 SWAP2 POP POP JUMP JUMPDEST PUSH32 0x6E6F7420746865206F776E657200000000000000000000000000000000000000 PUSH0 DUP3 ADD MSTORE POP JUMP JUMPDEST PUSH0 PUSH2 0xD46 PUSH1 0xD DUP4 PUSH2 0xA8A JUMP JUMPDEST SWAP2 POP PUSH2 0xD51 DUP3 PUSH2 0xD12 JUMP JUMPDEST PUSH1 0x20 DUP3 ADD SWAP1 POP SWAP2 SWAP1 POP JUMP JUMPDEST PUSH0 PUSH1 0x20 DUP3 ADD SWAP1 POP DUP2 DUP2 SUB PUSH0 DUP4 ADD MSTORE PUSH2 0xD73 DUP2 PUSH2 0xD3A JUMP JUMPDEST SWAP1 POP SWAP2 SWAP1 POP JUMP JUMPDEST PUSH32 0x77696E6E6572206973207374696C6C206E6F74206465636C6172656400000000 PUSH0 DUP3 ADD MSTORE POP JUMP JUMPDEST PUSH0 PUSH2 0xDAE PUSH1 0x1C DUP4 PUSH2 0xA8A JUMP JUMPDEST SWAP2 POP PUSH2 0xDB9 DUP3 PUSH2 0xD7A JUMP JUMPDEST PUSH1 0x20 DUP3 ADD SWAP1 POP SWAP2 SWAP1 POP JUMP JUMPDEST PUSH0 PUSH1 0x20 DUP3 ADD SWAP1 POP DUP2 DUP2 SUB PUSH0 DUP4 ADD MSTORE PUSH2 0xDDB DUP2 PUSH2 0xDA2 JUMP JUMPDEST SWAP1 POP SWAP2 SWAP1 POP JUMP JUMPDEST PUSH32 0x4E487B7100000000000000000000000000000000000000000000000000000000 PUSH0 MSTORE PUSH1 0x22 PUSH1 0x4 MSTORE PUSH1 0x24 PUSH0 REVERT JUMPDEST PUSH0 PUSH1 0x2 DUP3 DIV SWAP1 POP PUSH1 0x1 DUP3 AND DUP1 PUSH2 0xE26 JUMPI PUSH1 0x7F DUP3 AND SWAP2 POP JUMPDEST PUSH1 0x20 DUP3 LT DUP2 SUB PUSH2 0xE39 JUMPI PUSH2 0xE38 PUSH2 0xDE2 JUMP JUMPDEST JUMPDEST POP SWAP2 SWAP1 POP JUMP JUMPDEST PUSH32 0x616C647265616479206465636C61726564000000000000000000000000000000 PUSH0 DUP3 ADD MSTORE POP JUMP JUMPDEST PUSH0 PUSH2 0xE73 PUSH1 0x11 DUP4 PUSH2 0xA8A JUMP JUMPDEST SWAP2 POP PUSH2 0xE7E DUP3 PUSH2 0xE3F JUMP JUMPDEST PUSH1 0x20 DUP3 ADD SWAP1 POP SWAP2 SWAP1 POP JUMP JUMPDEST PUSH0 PUSH1 0x20 DUP3 ADD SWAP1 POP DUP2 DUP2 SUB PUSH0 DUP4 ADD MSTORE PUSH2 0xEA0 DUP2 PUSH2 0xE67 JUMP JUMPDEST SWAP1 POP SWAP2 SWAP1 POP JUMP JUMPDEST PUSH32 0x4E487B7100000000000000000000000000000000000000000000000000000000 PUSH0 MSTORE PUSH1 0x12 PUSH1 0x4 MSTORE PUSH1 0x24 PUSH0 REVERT JUMPDEST PUSH0 PUSH2 0xEDE DUP3 PUSH2 0xB5D JUMP JUMPDEST SWAP2 POP PUSH2 0xEE9 DUP4 PUSH2 0xB5D JUMP JUMPDEST SWAP3 POP DUP3 PUSH2 0xEF9 JUMPI PUSH2 0xEF8 PUSH2 0xEA7 JUMP JUMPDEST JUMPDEST DUP3 DUP3 MOD SWAP1 POP SWAP3 SWAP2 POP POP JUMP JUMPDEST PUSH32 0x4E487B7100000000000000000000000000000000000000000000000000000000 PUSH0 MSTORE PUSH1 0x32 PUSH1 0x4 MSTORE PUSH1 0x24 PUSH0 REVERT JUMPDEST PUSH32 0x6D6F6E657920616C647265616479207472616E73666572656400000000000000 PUSH0 DUP3 ADD MSTORE POP JUMP JUMPDEST PUSH0 PUSH2 0xF65 PUSH1 0x19 DUP4 PUSH2 0xA8A JUMP JUMPDEST SWAP2 POP PUSH2 0xF70 DUP3 PUSH2 0xF31 JUMP JUMPDEST PUSH1 0x20 DUP3 ADD SWAP1 POP SWAP2 SWAP1 POP JUMP JUMPDEST PUSH0 PUSH1 0x20 DUP3 ADD SWAP1 POP DUP2 DUP2 SUB PUSH0 DUP4 ADD MSTORE PUSH2 0xF92 DUP2 PUSH2 0xF59 JUMP JUMPDEST SWAP1 POP SWAP2 SWAP1 POP JUMP JUMPDEST PUSH32 0x2070617920313020657468657220746F20627579206F6E65206C6F7474657279 PUSH0 DUP3 ADD MSTORE POP JUMP JUMPDEST PUSH0 PUSH2 0xFCD PUSH1 0x20 DUP4 PUSH2 0xA8A JUMP JUMPDEST SWAP2 POP PUSH2 0xFD8 DUP3 PUSH2 0xF99 JUMP JUMPDEST PUSH1 0x20 DUP3 ADD SWAP1 POP SWAP2 SWAP1 POP JUMP JUMPDEST PUSH0 PUSH1 0x20 DUP3 ADD SWAP1 POP DUP2 DUP2 SUB PUSH0 DUP4 ADD MSTORE PUSH2 0xFFA DUP2 PUSH2 0xFC1 JUMP JUMPDEST SWAP1 POP SWAP2 SWAP1 POP JUMP JUMPDEST PUSH32 0x796F7520616C64726561647920626F75676874207469636B6574000000000000 PUSH0 DUP3 ADD MSTORE POP JUMP JUMPDEST PUSH0 PUSH2 0x1035 PUSH1 0x1A DUP4 PUSH2 0xA8A JUMP JUMPDEST SWAP2 POP PUSH2 0x1040 DUP3 PUSH2 0x1001 JUMP JUMPDEST PUSH1 0x20 DUP3 ADD SWAP1 POP SWAP2 SWAP1 POP JUMP JUMPDEST PUSH0 PUSH1 0x20 DUP3 ADD SWAP1 POP DUP2 DUP2 SUB PUSH0 DUP4 ADD MSTORE PUSH2 0x1062 DUP2 PUSH2 0x1029 JUMP JUMPDEST SWAP1 POP SWAP2 SWAP1 POP JUMP JUMPDEST PUSH0 DUP2 SWAP1 POP DUP2 PUSH0 MSTORE PUSH1 0x20 PUSH0 KECCAK256 SWAP1 POP SWAP2 SWAP1 POP JUMP JUMPDEST PUSH0 PUSH1 0x20 PUSH1 0x1F DUP4 ADD DIV SWAP1 POP SWAP2 SWAP1 POP JUMP JUMPDEST PUSH0 DUP3 DUP3 SHL SWAP1 POP SWAP3 SWAP2 POP POP JUMP JUMPDEST PUSH0 PUSH1 0x8 DUP4 MUL PUSH2 0x10C5 PUSH32 0xFFFFFFFFFFFFFFFFFFFFFFFFFFFFFFFFFFFFFFFFFFFFFFFFFFFFFFFFFFFFFFFF DUP3 PUSH2 0x108A JUMP JUMPDEST PUSH2 0x10CF DUP7 DUP4 PUSH2 0x108A JUMP JUMPDEST SWAP6 POP DUP1 NOT DUP5 AND SWAP4 POP DUP1 DUP7 AND DUP5 OR SWAP3 POP POP POP SWAP4 SWAP3 POP POP POP JUMP JUMPDEST PUSH0 DUP2 SWAP1 POP SWAP2 SWAP1 POP JUMP JUMPDEST PUSH0 PUSH2 0x110A PUSH2 0x1105 PUSH2 0x1100 DUP5 PUSH2 0xB5D JUMP JUMPDEST PUSH2 0x10E7 JUMP JUMPDEST PUSH2 0xB5D JUMP JUMPDEST SWAP1 POP SWAP2 SWAP1 POP JUMP JUMPDEST PUSH0 DUP2 SWAP1 POP SWAP2 SWAP1 POP JUMP JUMPDEST PUSH2 0x1123 DUP4 PUSH2 0x10F0 JUMP JUMPDEST PUSH2 0x1137 PUSH2 0x112F DUP3 PUSH2 0x1111 JUMP JUMPDEST DUP5 DUP5 SLOAD PUSH2 0x1096 JUMP JUMPDEST DUP3 SSTORE POP POP POP POP JUMP JUMPDEST PUSH0 SWAP1 JUMP JUMPDEST PUSH2 0x114B PUSH2 0x113F JUMP JUMPDEST PUSH2 0x1156 DUP2 DUP5 DUP5 PUSH2 0x111A JUMP JUMPDEST POP POP POP JUMP JUMPDEST JUMPDEST DUP2 DUP2 LT ISZERO PUSH2 0x1179 JUMPI PUSH2 0x116E PUSH0 DUP3 PUSH2 0x1143 JUMP JUMPDEST PUSH1 0x1 DUP2 ADD SWAP1 POP PUSH2 0x115C JUMP JUMPDEST POP POP JUMP JUMPDEST PUSH1 0x1F DUP3 GT ISZERO PUSH2 0x11BE JUMPI PUSH2 0x118F DUP2 PUSH2 0x1069 JUMP JUMPDEST PUSH2 0x1198 DUP5 PUSH2 0x107B JUMP JUMPDEST DUP2 ADD PUSH1 0x20 DUP6 LT ISZERO PUSH2 0x11A7 JUMPI DUP2 SWAP1 POP JUMPDEST PUSH2 0x11BB PUSH2 0x11B3 DUP6 PUSH2 0x107B JUMP JUMPDEST DUP4 ADD DUP3 PUSH2 0x115B JUMP JUMPDEST POP POP JUMPDEST POP POP POP JUMP JUMPDEST PUSH0 DUP3 DUP3 SHR SWAP1 POP SWAP3 SWAP2 POP POP JUMP JUMPDEST PUSH0 PUSH2 0x11DE PUSH0 NOT DUP5 PUSH1 0x8 MUL PUSH2 0x11C3 JUMP JUMPDEST NOT DUP1 DUP4 AND SWAP2 POP POP SWAP3 SWAP2 POP POP JUMP JUMPDEST PUSH0 PUSH2 0x11F6 DUP4 DUP4 PUSH2 0x11CF JUMP JUMPDEST SWAP2 POP DUP3 PUSH1 0x2 MUL DUP3 OR SWAP1 POP SWAP3 SWAP2 POP POP JUMP JUMPDEST PUSH2 0x120F DUP3 PUSH2 0xA80 JUMP JUMPDEST PUSH8 0xFFFFFFFFFFFFFFFF DUP2 GT ISZERO PUSH2 0x1228 JUMPI PUSH2 0x1227 PUSH2 0xBA7 JUMP JUMPDEST JUMPDEST PUSH2 0x1232 DUP3 SLOAD PUSH2 0xE0F JUMP JUMPDEST PUSH2 0x123D DUP3 DUP3 DUP6 PUSH2 0x117D JUMP JUMPDEST PUSH0 PUSH1 0x20 SWAP1 POP PUSH1 0x1F DUP4 GT PUSH1 0x1 DUP2 EQ PUSH2 0x126E JUMPI PUSH0 DUP5 ISZERO PUSH2 0x125C JUMPI DUP3 DUP8 ADD MLOAD SWAP1 POP JUMPDEST PUSH2 0x1266 DUP6 DUP3 PUSH2 0x11EB JUMP JUMPDEST DUP7 SSTORE POP PUSH2 0x12CD JUMP JUMPDEST PUSH1 0x1F NOT DUP5 AND PUSH2 0x127C DUP7 PUSH2 0x1069 JUMP JUMPDEST PUSH0 JUMPDEST DUP3 DUP2 LT ISZERO PUSH2 0x12A3 JUMPI DUP5 DUP10 ADD MLOAD DUP3 SSTORE PUSH1 0x1 DUP3 ADD SWAP2 POP PUSH1 0x20 DUP6 ADD SWAP5 POP PUSH1 0x20 DUP2 ADD SWAP1 POP PUSH2 0x127E JUMP JUMPDEST DUP7 DUP4 LT ISZERO PUSH2 0x12C0 JUMPI DUP5 DUP10 ADD MLOAD PUSH2 0x12BC PUSH1 0x1F DUP10 AND DUP3 PUSH2 0x11CF JUMP JUMPDEST DUP4 SSTORE POP JUMPDEST PUSH1 0x1 PUSH1 0x2 DUP9 MUL ADD DUP9 SSTORE POP POP POP JUMPDEST POP POP POP POP POP POP JUMP JUMPDEST PUSH0 DUP2 SLOAD SWAP1 POP PUSH2 0x12E3 DUP2 PUSH2 0xE0F JUMP JUMPDEST SWAP1 POP SWAP2 SWAP1 POP JUMP JUMPDEST DUP2 DUP2 SUB PUSH2 0x12F8 JUMPI POP POP PUSH2 0x13CD JUMP JUMPDEST PUSH2 0x1301 DUP3 PUSH2 0x12D5 JUMP JUMPDEST PUSH8 0xFFFFFFFFFFFFFFFF DUP2 GT ISZERO PUSH2 0x131A JUMPI PUSH2 0x1319 PUSH2 0xBA7 JUMP JUMPDEST JUMPDEST PUSH2 0x1324 DUP3 SLOAD PUSH2 0xE0F JUMP JUMPDEST PUSH2 0x132F DUP3 DUP3 DUP6 PUSH2 0x117D JUMP JUMPDEST PUSH0 PUSH1 0x1F DUP4 GT PUSH1 0x1 DUP2 EQ PUSH2 0x135C JUMPI PUSH0 DUP5 ISZERO PUSH2 0x134A JUMPI DUP3 DUP8 ADD SLOAD SWAP1 POP JUMPDEST PUSH2 0x1354 DUP6 DUP3 PUSH2 0x11EB JUMP JUMPDEST DUP7 SSTORE POP PUSH2 0x13C6 JUMP JUMPDEST PUSH1 0x1F NOT DUP5 AND PUSH2 0x136A DUP8 PUSH2 0x1069 JUMP JUMPDEST SWAP7 POP PUSH2 0x1375 DUP7 PUSH2 0x1069 JUMP JUMPDEST PUSH0 JUMPDEST DUP3 DUP2 LT ISZERO PUSH2 0x139C JUMPI DUP5 DUP10 ADD SLOAD DUP3 SSTORE PUSH1 0x1 DUP3 ADD SWAP2 POP PUSH1 0x1 DUP6 ADD SWAP5 POP PUSH1 0x20 DUP2 ADD SWAP1 POP PUSH2 0x1377 JUMP JUMPDEST DUP7 DUP4 LT ISZERO PUSH2 0x13B9 JUMPI DUP5 DUP10 ADD SLOAD PUSH2 0x13B5 PUSH1 0x1F DUP10 AND DUP3 PUSH2 0x11CF JUMP JUMPDEST DUP4 SSTORE POP JUMPDEST PUSH1 0x1 PUSH1 0x2 DUP9 MUL ADD DUP9 SSTORE POP POP POP JUMPDEST POP POP POP POP POP POP JUMPDEST JUMP INVALID LOG2 PUSH5 0x6970667358 0x22 SLT KECCAK256 SWAP13 SWAP3 DUP2 0x2F 0x29 CALLDATASIZE LOG3 0xA9 0xE2 0xA9 JUMPI PUSH27 0x200BA5B7129D983F7126B0612F32C9A6D0A1E90F64736F6C634300 ADDMOD BYTE STOP CALLER "
				},
				"gasEstimates": {
					"creation": {
						"codeDepositCost": "1025000",
						"executionCost": "49646",
						"totalCost": "1074646"
					},
					"external": {
						"Declarelottery()": "infinite",
						"Winnername()": "infinite",
						"buylotter(string)": "infinite",
						"lotteryticket()": "369",
						"transfermoneytowinner()": "infinite"
					}
				},
				"methodIdentifiers": {
					"Declarelottery()": "10463801",
					"Winnername()": "0a48cead",
					"buylotter(string)": "e81d0011",
					"lotteryticket()": "db1331fa",
					"transfermoneytowinner()": "b3423248"
				}
			},
			"storageLayout": {
				"storage": [
					{
						"astId": 3,
						"contract": "lottery (1).sol:lottersystem",
						"label": "starttime",
						"offset": 0,
						"slot": "0",
						"type": "t_uint256"
					},
					{
						"astId": 5,
						"contract": "lottery (1).sol:lottersystem",
						"label": "endtime",
						"offset": 0,
						"slot": "1",
						"type": "t_uint256"
					},
					{
						"astId": 12,
						"contract": "lottery (1).sol:lottersystem",
						"label": "lotterwinner",
						"offset": 0,
						"slot": "2",
						"type": "t_address"
					},
					{
						"astId": 14,
						"contract": "lottery (1).sol:lottersystem",
						"label": "lotteryover",
						"offset": 20,
						"slot": "2",
						"type": "t_bool"
					},
					{
						"astId": 16,
						"contract": "lottery (1).sol:lottersystem",
						"label": "owner",
						"offset": 0,
						"slot": "3",
						"type": "t_address"
					},
					{
						"astId": 18,
						"contract": "lottery (1).sol:lottersystem",
						"label": "moneytransfered",
						"offset": 20,
						"slot": "3",
						"type": "t_bool"
					},
					{
						"astId": 91,
						"contract": "lottery (1).sol:lottersystem",
						"label": "participants",
						"offset": 0,
						"slot": "4",
						"type": "t_mapping(t_address,t_struct(user)86_storage)"
					},
					{
						"astId": 95,
						"contract": "lottery (1).sol:lottersystem",
						"label": "candidates",
						"offset": 0,
						"slot": "5",
						"type": "t_array(t_struct(user)86_storage)dyn_storage"
					}
				],
				"types": {
					"t_address": {
						"encoding": "inplace",
						"label": "address",
						"numberOfBytes": "20"
					},
					"t_array(t_struct(user)86_storage)dyn_storage": {
						"base": "t_struct(user)86_storage",
						"encoding": "dynamic_array",
						"label": "struct lottersystem.user[]",
						"numberOfBytes": "32"
					},
					"t_bool": {
						"encoding": "inplace",
						"label": "bool",
						"numberOfBytes": "1"
					},
					"t_mapping(t_address,t_struct(user)86_storage)": {
						"encoding": "mapping",
						"key": "t_address",
						"label": "mapping(address => struct lottersystem.user)",
						"numberOfBytes": "32",
						"value": "t_struct(user)86_storage"
					},
					"t_string_storage": {
						"encoding": "bytes",
						"label": "string",
						"numberOfBytes": "32"
					},
					"t_struct(user)86_storage": {
						"encoding": "inplace",
						"label": "struct lottersystem.user",
						"members": [
							{
								"astId": 81,
								"contract": "lottery (1).sol:lottersystem",
								"label": "name",
								"offset": 0,
								"slot": "0",
								"type": "t_string_storage"
							},
							{
								"astId": 83,
								"contract": "lottery (1).sol:lottersystem",
								"label": "wallet",
								"offset": 0,
								"slot": "1",
								"type": "t_address"
							},
							{
								"astId": 85,
								"contract": "lottery (1).sol:lottersystem",
								"label": "hasparticipated",
								"offset": 20,
								"slot": "1",
								"type": "t_bool"
							}
						],
						"numberOfBytes": "64"
					},
					"t_uint256": {
						"encoding": "inplace",
						"label": "uint256",
						"numberOfBytes": "32"
					}
				}
			},
			"userdoc": {
				"kind": "user",
				"methods": {},
				"version": 1
			}
		}
	}
}