{
	"data": {
		"bytecode": {
			"linkReferences": {},
			"object": "6080604052348015600e575f80fd5b50610c7f8061001c5f395ff3fe608060405234801561000f575f80fd5b506004361061004a575f3560e01c80631526f1f31461004e578063277460d91461006a578063c86182b61461009b578063ffb2ce95146100b9575b5f80fd5b61006860048036038101906100639190610529565b6100d5565b005b610084600480360381019061007f9190610529565b6101ce565b6040516100929291906105de565b60405180910390f35b6100a36102f5565b6040516100b09190610758565b60405180910390f35b6100d360048036038101906100ce91906108a4565b610434565b005b5f803373ffffffffffffffffffffffffffffffffffffffff1673ffffffffffffffffffffffffffffffffffffffff1681526020019081526020015f20805490508110610156576040517f08c379a000000000000000000000000000000000000000000000000000000000815260040161014d90610935565b60405180910390fd5b60015f803373ffffffffffffffffffffffffffffffffffffffff1673ffffffffffffffffffffffffffffffffffffffff1681526020019081526020015f2082815481106101a6576101a5610953565b5b905f5260205f2090600202016001015f6101000a81548160ff02191690831515021790555050565b60605f805f803373ffffffffffffffffffffffffffffffffffffffff1673ffffffffffffffffffffffffffffffffffffffff1681526020019081526020015f2084815481106102205761021f610953565b5b905f5260205f2090600202016040518060400160405290815f82018054610246906109ad565b80601f0160208091040260200160405190810160405280929190818152602001828054610272906109ad565b80156102bd5780601f10610294576101008083540402835291602001916102bd565b820191905f5260205f20905b8154815290600101906020018083116102a057829003601f168201915b50505050508152602001600182015f9054906101000a900460ff1615151515815250509050805f015181602001519250925050915091565b60605f803373ffffffffffffffffffffffffffffffffffffffff1673ffffffffffffffffffffffffffffffffffffffff1681526020019081526020015f20805480602002602001604051908101604052809291908181526020015f905b8282101561042b578382905f5260205f2090600202016040518060400160405290815f82018054610382906109ad565b80601f01602080910402602001604051908101604052809291908181526020018280546103ae906109ad565b80156103f95780601f106103d0576101008083540402835291602001916103f9565b820191905f5260205f20905b8154815290600101906020018083116103dc57829003601f168201915b50505050508152602001600182015f9054906101000a900460ff16151515158152505081526020019060010190610352565b50505050905090565b5f803373ffffffffffffffffffffffffffffffffffffffff1673ffffffffffffffffffffffffffffffffffffffff1681526020019081526020015f2060405180604001604052808381526020015f1515815250908060018154018082558091505060019003905f5260205f2090600202015f909190919091505f820151815f0190816104c09190610b7a565b506020820151816001015f6101000a81548160ff021916908315150217905550505050565b5f604051905090565b5f80fd5b5f80fd5b5f819050919050565b610508816104f6565b8114610512575f80fd5b50565b5f81359050610523816104ff565b92915050565b5f6020828403121561053e5761053d6104ee565b5b5f61054b84828501610515565b91505092915050565b5f81519050919050565b5f82825260208201905092915050565b8281835e5f83830152505050565b5f601f19601f8301169050919050565b5f61059682610554565b6105a0818561055e565b93506105b081856020860161056e565b6105b98161057c565b840191505092915050565b5f8115159050919050565b6105d8816105c4565b82525050565b5f6040820190508181035f8301526105f6818561058c565b905061060560208301846105cf565b9392505050565b5f81519050919050565b5f82825260208201905092915050565b5f819050602082019050919050565b5f82825260208201905092915050565b5f61064f82610554565b6106598185610635565b935061066981856020860161056e565b6106728161057c565b840191505092915050565b610686816105c4565b82525050565b5f604083015f8301518482035f8601526106a68282610645565b91505060208301516106bb602086018261067d565b508091505092915050565b5f6106d1838361068c565b905092915050565b5f602082019050919050565b5f6106ef8261060c565b6106f98185610616565b93508360208202850161070b85610626565b805f5b85811015610746578484038952815161072785826106c6565b9450610732836106d9565b925060208a0199505060018101905061070e565b50829750879550505050505092915050565b5f6020820190508181035f83015261077081846106e5565b905092915050565b5f80fd5b5f80fd5b7f4e487b71000000000000000000000000000000000000000000000000000000005f52604160045260245ffd5b6107b68261057c565b810181811067ffffffffffffffff821117156107d5576107d4610780565b5b80604052505050565b5f6107e76104e5565b90506107f382826107ad565b919050565b5f67ffffffffffffffff82111561081257610811610780565b5b61081b8261057c565b9050602081019050919050565b828183375f83830152505050565b5f610848610843846107f8565b6107de565b9050828152602081018484840111156108645761086361077c565b5b61086f848285610828565b509392505050565b5f82601f83011261088b5761088a610778565b5b813561089b848260208601610836565b91505092915050565b5f602082840312156108b9576108b86104ee565b5b5f82013567ffffffffffffffff8111156108d6576108d56104f2565b5b6108e284828501610877565b91505092915050565b7f696e76616c6964207461736b20746f20636f6d706c65746500000000000000005f82015250565b5f61091f60188361055e565b915061092a826108eb565b602082019050919050565b5f6020820190508181035f83015261094c81610913565b9050919050565b7f4e487b71000000000000000000000000000000000000000000000000000000005f52603260045260245ffd5b7f4e487b71000000000000000000000000000000000000000000000000000000005f52602260045260245ffd5b5f60028204905060018216806109c457607f821691505b6020821081036109d7576109d6610980565b5b50919050565b5f819050815f5260205f209050919050565b5f6020601f8301049050919050565b5f82821b905092915050565b5f60088302610a397fffffffffffffffffffffffffffffffffffffffffffffffffffffffffffffffff826109fe565b610a4386836109fe565b95508019841693508086168417925050509392505050565b5f819050919050565b5f610a7e610a79610a74846104f6565b610a5b565b6104f6565b9050919050565b5f819050919050565b610a9783610a64565b610aab610aa382610a85565b848454610a0a565b825550505050565b5f90565b610abf610ab3565b610aca818484610a8e565b505050565b5b81811015610aed57610ae25f82610ab7565b600181019050610ad0565b5050565b601f821115610b3257610b03816109dd565b610b0c846109ef565b81016020851015610b1b578190505b610b2f610b27856109ef565b830182610acf565b50505b505050565b5f82821c905092915050565b5f610b525f1984600802610b37565b1980831691505092915050565b5f610b6a8383610b43565b9150826002028217905092915050565b610b8382610554565b67ffffffffffffffff811115610b9c57610b9b610780565b5b610ba682546109ad565b610bb1828285610af1565b5f60209050601f831160018114610be2575f8415610bd0578287015190505b610bda8582610b5f565b865550610c41565b601f198416610bf0866109dd565b5f5b82811015610c1757848901518255600182019150602085019450602081019050610bf2565b86831015610c345784890151610c30601f891682610b43565b8355505b6001600288020188555050505b50505050505056fea26469706673582212206a8d0416043b0b731862ea64a659282eb1c9ae4b612d0b1a3fb976630e343fc364736f6c634300081a0033",
			"opcodes": "PUSH1 0x80 PUSH1 0x40 MSTORE CALLVALUE DUP1 ISZERO PUSH1 0xE JUMPI PUSH0 DUP1 REVERT JUMPDEST POP PUSH2 0xC7F DUP1 PUSH2 0x1C PUSH0 CODECOPY PUSH0 RETURN INVALID PUSH1 0x80 PUSH1 0x40 MSTORE CALLVALUE DUP1 ISZERO PUSH2 0xF JUMPI PUSH0 DUP1 REVERT JUMPDEST POP PUSH1 0x4 CALLDATASIZE LT PUSH2 0x4A JUMPI PUSH0 CALLDATALOAD PUSH1 0xE0 SHR DUP1 PUSH4 0x1526F1F3 EQ PUSH2 0x4E JUMPI DUP1 PUSH4 0x277460D9 EQ PUSH2 0x6A JUMPI DUP1 PUSH4 0xC86182B6 EQ PUSH2 0x9B JUMPI DUP1 PUSH4 0xFFB2CE95 EQ PUSH2 0xB9 JUMPI JUMPDEST PUSH0 DUP1 REVERT JUMPDEST PUSH2 0x68 PUSH1 0x4 DUP1 CALLDATASIZE SUB DUP2 ADD SWAP1 PUSH2 0x63 SWAP2 SWAP1 PUSH2 0x529 JUMP JUMPDEST PUSH2 0xD5 JUMP JUMPDEST STOP JUMPDEST PUSH2 0x84 PUSH1 0x4 DUP1 CALLDATASIZE SUB DUP2 ADD SWAP1 PUSH2 0x7F SWAP2 SWAP1 PUSH2 0x529 JUMP JUMPDEST PUSH2 0x1CE JUMP JUMPDEST PUSH1 0x40 MLOAD PUSH2 0x92 SWAP3 SWAP2 SWAP1 PUSH2 0x5DE JUMP JUMPDEST PUSH1 0x40 MLOAD DUP1 SWAP2 SUB SWAP1 RETURN JUMPDEST PUSH2 0xA3 PUSH2 0x2F5 JUMP JUMPDEST PUSH1 0x40 MLOAD PUSH2 0xB0 SWAP2 SWAP1 PUSH2 0x758 JUMP JUMPDEST PUSH1 0x40 MLOAD DUP1 SWAP2 SUB SWAP1 RETURN JUMPDEST PUSH2 0xD3 PUSH1 0x4 DUP1 CALLDATASIZE SUB DUP2 ADD SWAP1 PUSH2 0xCE SWAP2 SWAP1 PUSH2 0x8A4 JUMP JUMPDEST PUSH2 0x434 JUMP JUMPDEST STOP JUMPDEST PUSH0 DUP1 CALLER PUSH20 0xFFFFFFFFFFFFFFFFFFFFFFFFFFFFFFFFFFFFFFFF AND PUSH20 0xFFFFFFFFFFFFFFFFFFFFFFFFFFFFFFFFFFFFFFFF AND DUP2 MSTORE PUSH1 0x20 ADD SWAP1 DUP2 MSTORE PUSH1 0x20 ADD PUSH0 KECCAK256 DUP1 SLOAD SWAP1 POP DUP2 LT PUSH2 0x156 JUMPI PUSH1 0x40 MLOAD PUSH32 0x8C379A000000000000000000000000000000000000000000000000000000000 DUP2 MSTORE PUSH1 0x4 ADD PUSH2 0x14D SWAP1 PUSH2 0x935 JUMP JUMPDEST PUSH1 0x40 MLOAD DUP1 SWAP2 SUB SWAP1 REVERT JUMPDEST PUSH1 0x1 PUSH0 DUP1 CALLER PUSH20 0xFFFFFFFFFFFFFFFFFFFFFFFFFFFFFFFFFFFFFFFF AND PUSH20 0xFFFFFFFFFFFFFFFFFFFFFFFFFFFFFFFFFFFFFFFF AND DUP2 MSTORE PUSH1 0x20 ADD SWAP1 DUP2 MSTORE PUSH1 0x20 ADD PUSH0 KECCAK256 DUP3 DUP2 SLOAD DUP2 LT PUSH2 0x1A6 JUMPI PUSH2 0x1A5 PUSH2 0x953 JUMP JUMPDEST JUMPDEST SWAP1 PUSH0 MSTORE PUSH1 0x20 PUSH0 KECCAK256 SWAP1 PUSH1 0x2 MUL ADD PUSH1 0x1 ADD PUSH0 PUSH2 0x100 EXP DUP2 SLOAD DUP2 PUSH1 0xFF MUL NOT AND SWAP1 DUP4 ISZERO ISZERO MUL OR SWAP1 SSTORE POP POP JUMP JUMPDEST PUSH1 0x60 PUSH0 DUP1 PUSH0 DUP1 CALLER PUSH20 0xFFFFFFFFFFFFFFFFFFFFFFFFFFFFFFFFFFFFFFFF AND PUSH20 0xFFFFFFFFFFFFFFFFFFFFFFFFFFFFFFFFFFFFFFFF AND DUP2 MSTORE PUSH1 0x20 ADD SWAP1 DUP2 MSTORE PUSH1 0x20 ADD PUSH0 KECCAK256 DUP5 DUP2 SLOAD DUP2 LT PUSH2 0x220 JUMPI PUSH2 0x21F PUSH2 0x953 JUMP JUMPDEST JUMPDEST SWAP1 PUSH0 MSTORE PUSH1 0x20 PUSH0 KECCAK256 SWAP1 PUSH1 0x2 MUL ADD PUSH1 0x40 MLOAD DUP1 PUSH1 0x40 ADD PUSH1 0x40 MSTORE SWAP1 DUP2 PUSH0 DUP3 ADD DUP1 SLOAD PUSH2 0x246 SWAP1 PUSH2 0x9AD JUMP JUMPDEST DUP1 PUSH1 0x1F ADD PUSH1 0x20 DUP1 SWAP2 DIV MUL PUSH1 0x20 ADD PUSH1 0x40 MLOAD SWAP1 DUP2 ADD PUSH1 0x40 MSTORE DUP1 SWAP3 SWAP2 SWAP1 DUP2 DUP2 MSTORE PUSH1 0x20 ADD DUP3 DUP1 SLOAD PUSH2 0x272 SWAP1 PUSH2 0x9AD JUMP JUMPDEST DUP1 ISZERO PUSH2 0x2BD JUMPI DUP1 PUSH1 0x1F LT PUSH2 0x294 JUMPI PUSH2 0x100 DUP1 DUP4 SLOAD DIV MUL DUP4 MSTORE SWAP2 PUSH1 0x20 ADD SWAP2 PUSH2 0x2BD JUMP JUMPDEST DUP3 ADD SWAP2 SWAP1 PUSH0 MSTORE PUSH1 0x20 PUSH0 KECCAK256 SWAP1 JUMPDEST DUP2 SLOAD DUP2 MSTORE SWAP1 PUSH1 0x1 ADD SWAP1 PUSH1 0x20 ADD DUP1 DUP4 GT PUSH2 0x2A0 JUMPI DUP3 SWAP1 SUB PUSH1 0x1F AND DUP3 ADD SWAP2 JUMPDEST POP POP POP POP POP DUP2 MSTORE PUSH1 0x20 ADD PUSH1 0x1 DUP3 ADD PUSH0 SWAP1 SLOAD SWAP1 PUSH2 0x100 EXP SWAP1 DIV PUSH1 0xFF AND ISZERO ISZERO ISZERO ISZERO DUP2 MSTORE POP POP SWAP1 POP DUP1 PUSH0 ADD MLOAD DUP2 PUSH1 0x20 ADD MLOAD SWAP3 POP SWAP3 POP POP SWAP2 POP SWAP2 JUMP JUMPDEST PUSH1 0x60 PUSH0 DUP1 CALLER PUSH20 0xFFFFFFFFFFFFFFFFFFFFFFFFFFFFFFFFFFFFFFFF AND PUSH20 0xFFFFFFFFFFFFFFFFFFFFFFFFFFFFFFFFFFFFFFFF AND DUP2 MSTORE PUSH1 0x20 ADD SWAP1 DUP2 MSTORE PUSH1 0x20 ADD PUSH0 KECCAK256 DUP1 SLOAD DUP1 PUSH1 0x20 MUL PUSH1 0x20 ADD PUSH1 0x40 MLOAD SWAP1 DUP2 ADD PUSH1 0x40 MSTORE DUP1 SWAP3 SWAP2 SWAP1 DUP2 DUP2 MSTORE PUSH1 0x20 ADD PUSH0 SWAP1 JUMPDEST DUP3 DUP3 LT ISZERO PUSH2 0x42B JUMPI DUP4 DUP3 SWAP1 PUSH0 MSTORE PUSH1 0x20 PUSH0 KECCAK256 SWAP1 PUSH1 0x2 MUL ADD PUSH1 0x40 MLOAD DUP1 PUSH1 0x40 ADD PUSH1 0x40 MSTORE SWAP1 DUP2 PUSH0 DUP3 ADD DUP1 SLOAD PUSH2 0x382 SWAP1 PUSH2 0x9AD JUMP JUMPDEST DUP1 PUSH1 0x1F ADD PUSH1 0x20 DUP1 SWAP2 DIV MUL PUSH1 0x20 ADD PUSH1 0x40 MLOAD SWAP1 DUP2 ADD PUSH1 0x40 MSTORE DUP1 SWAP3 SWAP2 SWAP1 DUP2 DUP2 MSTORE PUSH1 0x20 ADD DUP3 DUP1 SLOAD PUSH2 0x3AE SWAP1 PUSH2 0x9AD JUMP JUMPDEST DUP1 ISZERO PUSH2 0x3F9 JUMPI DUP1 PUSH1 0x1F LT PUSH2 0x3D0 JUMPI PUSH2 0x100 DUP1 DUP4 SLOAD DIV MUL DUP4 MSTORE SWAP2 PUSH1 0x20 ADD SWAP2 PUSH2 0x3F9 JUMP JUMPDEST DUP3 ADD SWAP2 SWAP1 PUSH0 MSTORE PUSH1 0x20 PUSH0 KECCAK256 SWAP1 JUMPDEST DUP2 SLOAD DUP2 MSTORE SWAP1 PUSH1 0x1 ADD SWAP1 PUSH1 0x20 ADD DUP1 DUP4 GT PUSH2 0x3DC JUMPI DUP3 SWAP1 SUB PUSH1 0x1F AND DUP3 ADD SWAP2 JUMPDEST POP POP POP POP POP DUP2 MSTORE PUSH1 0x20 ADD PUSH1 0x1 DUP3 ADD PUSH0 SWAP1 SLOAD SWAP1 PUSH2 0x100 EXP SWAP1 DIV PUSH1 0xFF AND ISZERO ISZERO ISZERO ISZERO DUP2 MSTORE POP POP DUP2 MSTORE PUSH1 0x20 ADD SWAP1 PUSH1 0x1 ADD SWAP1 PUSH2 0x352 JUMP JUMPDEST POP POP POP POP SWAP1 POP SWAP1 JUMP JUMPDEST PUSH0 DUP1 CALLER PUSH20 0xFFFFFFFFFFFFFFFFFFFFFFFFFFFFFFFFFFFFFFFF AND PUSH20 0xFFFFFFFFFFFFFFFFFFFFFFFFFFFFFFFFFFFFFFFF AND DUP2 MSTORE PUSH1 0x20 ADD SWAP1 DUP2 MSTORE PUSH1 0x20 ADD PUSH0 KECCAK256 PUSH1 0x40 MLOAD DUP1 PUSH1 0x40 ADD PUSH1 0x40 MSTORE DUP1 DUP4 DUP2 MSTORE PUSH1 0x20 ADD PUSH0 ISZERO ISZERO DUP2 MSTORE POP SWAP1 DUP1 PUSH1 0x1 DUP2 SLOAD ADD DUP1 DUP3 SSTORE DUP1 SWAP2 POP POP PUSH1 0x1 SWAP1 SUB SWAP1 PUSH0 MSTORE PUSH1 0x20 PUSH0 KECCAK256 SWAP1 PUSH1 0x2 MUL ADD PUSH0 SWAP1 SWAP2 SWAP1 SWAP2 SWAP1 SWAP2 POP PUSH0 DUP3 ADD MLOAD DUP2 PUSH0 ADD SWAP1 DUP2 PUSH2 0x4C0 SWAP2 SWAP1 PUSH2 0xB7A JUMP JUMPDEST POP PUSH1 0x20 DUP3 ADD MLOAD DUP2 PUSH1 0x1 ADD PUSH0 PUSH2 0x100 EXP DUP2 SLOAD DUP2 PUSH1 0xFF MUL NOT AND SWAP1 DUP4 ISZERO ISZERO MUL OR SWAP1 SSTORE POP POP POP POP JUMP JUMPDEST PUSH0 PUSH1 0x40 MLOAD SWAP1 POP SWAP1 JUMP JUMPDEST PUSH0 DUP1 REVERT JUMPDEST PUSH0 DUP1 REVERT JUMPDEST PUSH0 DUP2 SWAP1 POP SWAP2 SWAP1 POP JUMP JUMPDEST PUSH2 0x508 DUP2 PUSH2 0x4F6 JUMP JUMPDEST DUP2 EQ PUSH2 0x512 JUMPI PUSH0 DUP1 REVERT JUMPDEST POP JUMP JUMPDEST PUSH0 DUP2 CALLDATALOAD SWAP1 POP PUSH2 0x523 DUP2 PUSH2 0x4FF JUMP JUMPDEST SWAP3 SWAP2 POP POP JUMP JUMPDEST PUSH0 PUSH1 0x20 DUP3 DUP5 SUB SLT ISZERO PUSH2 0x53E JUMPI PUSH2 0x53D PUSH2 0x4EE JUMP JUMPDEST JUMPDEST PUSH0 PUSH2 0x54B DUP5 DUP3 DUP6 ADD PUSH2 0x515 JUMP JUMPDEST SWAP2 POP POP SWAP3 SWAP2 POP POP JUMP JUMPDEST PUSH0 DUP2 MLOAD SWAP1 POP SWAP2 SWAP1 POP JUMP JUMPDEST PUSH0 DUP3 DUP3 MSTORE PUSH1 0x20 DUP3 ADD SWAP1 POP SWAP3 SWAP2 POP POP JUMP JUMPDEST DUP3 DUP2 DUP4 MCOPY PUSH0 DUP4 DUP4 ADD MSTORE POP POP POP JUMP JUMPDEST PUSH0 PUSH1 0x1F NOT PUSH1 0x1F DUP4 ADD AND SWAP1 POP SWAP2 SWAP1 POP JUMP JUMPDEST PUSH0 PUSH2 0x596 DUP3 PUSH2 0x554 JUMP JUMPDEST PUSH2 0x5A0 DUP2 DUP6 PUSH2 0x55E JUMP JUMPDEST SWAP4 POP PUSH2 0x5B0 DUP2 DUP6 PUSH1 0x20 DUP7 ADD PUSH2 0x56E JUMP JUMPDEST PUSH2 0x5B9 DUP2 PUSH2 0x57C JUMP JUMPDEST DUP5 ADD SWAP2 POP POP SWAP3 SWAP2 POP POP JUMP JUMPDEST PUSH0 DUP2 ISZERO ISZERO SWAP1 POP SWAP2 SWAP1 POP JUMP JUMPDEST PUSH2 0x5D8 DUP2 PUSH2 0x5C4 JUMP JUMPDEST DUP3 MSTORE POP POP JUMP JUMPDEST PUSH0 PUSH1 0x40 DUP3 ADD SWAP1 POP DUP2 DUP2 SUB PUSH0 DUP4 ADD MSTORE PUSH2 0x5F6 DUP2 DUP6 PUSH2 0x58C JUMP JUMPDEST SWAP1 POP PUSH2 0x605 PUSH1 0x20 DUP4 ADD DUP5 PUSH2 0x5CF JUMP JUMPDEST SWAP4 SWAP3 POP POP POP JUMP JUMPDEST PUSH0 DUP2 MLOAD SWAP1 POP SWAP2 SWAP1 POP JUMP JUMPDEST PUSH0 DUP3 DUP3 MSTORE PUSH1 0x20 DUP3 ADD SWAP1 POP SWAP3 SWAP2 POP POP JUMP JUMPDEST PUSH0 DUP2 SWAP1 POP PUSH1 0x20 DUP3 ADD SWAP1 POP SWAP2 SWAP1 POP JUMP JUMPDEST PUSH0 DUP3 DUP3 MSTORE PUSH1 0x20 DUP3 ADD SWAP1 POP SWAP3 SWAP2 POP POP JUMP JUMPDEST PUSH0 PUSH2 0x64F DUP3 PUSH2 0x554 JUMP JUMPDEST PUSH2 0x659 DUP2 DUP6 PUSH2 0x635 JUMP JUMPDEST SWAP4 POP PUSH2 0x669 DUP2 DUP6 PUSH1 0x20 DUP7 ADD PUSH2 0x56E JUMP JUMPDEST PUSH2 0x672 DUP2 PUSH2 0x57C JUMP JUMPDEST DUP5 ADD SWAP2 POP POP SWAP3 SWAP2 POP POP JUMP JUMPDEST PUSH2 0x686 DUP2 PUSH2 0x5C4 JUMP JUMPDEST DUP3 MSTORE POP POP JUMP JUMPDEST PUSH0 PUSH1 0x40 DUP4 ADD PUSH0 DUP4 ADD MLOAD DUP5 DUP3 SUB PUSH0 DUP7 ADD MSTORE PUSH2 0x6A6 DUP3 DUP3 PUSH2 0x645 JUMP JUMPDEST SWAP2 POP POP PUSH1 0x20 DUP4 ADD MLOAD PUSH2 0x6BB PUSH1 0x20 DUP7 ADD DUP3 PUSH2 0x67D JUMP JUMPDEST POP DUP1 SWAP2 POP POP SWAP3 SWAP2 POP POP JUMP JUMPDEST PUSH0 PUSH2 0x6D1 DUP4 DUP4 PUSH2 0x68C JUMP JUMPDEST SWAP1 POP SWAP3 SWAP2 POP POP JUMP JUMPDEST PUSH0 PUSH1 0x20 DUP3 ADD SWAP1 POP SWAP2 SWAP1 POP JUMP JUMPDEST PUSH0 PUSH2 0x6EF DUP3 PUSH2 0x60C JUMP JUMPDEST PUSH2 0x6F9 DUP2 DUP6 PUSH2 0x616 JUMP JUMPDEST SWAP4 POP DUP4 PUSH1 0x20 DUP3 MUL DUP6 ADD PUSH2 0x70B DUP6 PUSH2 0x626 JUMP JUMPDEST DUP1 PUSH0 JUMPDEST DUP6 DUP2 LT ISZERO PUSH2 0x746 JUMPI DUP5 DUP5 SUB DUP10 MSTORE DUP2 MLOAD PUSH2 0x727 DUP6 DUP3 PUSH2 0x6C6 JUMP JUMPDEST SWAP5 POP PUSH2 0x732 DUP4 PUSH2 0x6D9 JUMP JUMPDEST SWAP3 POP PUSH1 0x20 DUP11 ADD SWAP10 POP POP PUSH1 0x1 DUP2 ADD SWAP1 POP PUSH2 0x70E JUMP JUMPDEST POP DUP3 SWAP8 POP DUP8 SWAP6 POP POP POP POP POP POP SWAP3 SWAP2 POP POP JUMP JUMPDEST PUSH0 PUSH1 0x20 DUP3 ADD SWAP1 POP DUP2 DUP2 SUB PUSH0 DUP4 ADD MSTORE PUSH2 0x770 DUP2 DUP5 PUSH2 0x6E5 JUMP JUMPDEST SWAP1 POP SWAP3 SWAP2 POP POP JUMP JUMPDEST PUSH0 DUP1 REVERT JUMPDEST PUSH0 DUP1 REVERT JUMPDEST PUSH32 0x4E487B7100000000000000000000000000000000000000000000000000000000 PUSH0 MSTORE PUSH1 0x41 PUSH1 0x4 MSTORE PUSH1 0x24 PUSH0 REVERT JUMPDEST PUSH2 0x7B6 DUP3 PUSH2 0x57C JUMP JUMPDEST DUP2 ADD DUP2 DUP2 LT PUSH8 0xFFFFFFFFFFFFFFFF DUP3 GT OR ISZERO PUSH2 0x7D5 JUMPI PUSH2 0x7D4 PUSH2 0x780 JUMP JUMPDEST JUMPDEST DUP1 PUSH1 0x40 MSTORE POP POP POP JUMP JUMPDEST PUSH0 PUSH2 0x7E7 PUSH2 0x4E5 JUMP JUMPDEST SWAP1 POP PUSH2 0x7F3 DUP3 DUP3 PUSH2 0x7AD JUMP JUMPDEST SWAP2 SWAP1 POP JUMP JUMPDEST PUSH0 PUSH8 0xFFFFFFFFFFFFFFFF DUP3 GT ISZERO PUSH2 0x812 JUMPI PUSH2 0x811 PUSH2 0x780 JUMP JUMPDEST JUMPDEST PUSH2 0x81B DUP3 PUSH2 0x57C JUMP JUMPDEST SWAP1 POP PUSH1 0x20 DUP2 ADD SWAP1 POP SWAP2 SWAP1 POP JUMP JUMPDEST DUP3 DUP2 DUP4 CALLDATACOPY PUSH0 DUP4 DUP4 ADD MSTORE POP POP POP JUMP JUMPDEST PUSH0 PUSH2 0x848 PUSH2 0x843 DUP5 PUSH2 0x7F8 JUMP JUMPDEST PUSH2 0x7DE JUMP JUMPDEST SWAP1 POP DUP3 DUP2 MSTORE PUSH1 0x20 DUP2 ADD DUP5 DUP5 DUP5 ADD GT ISZERO PUSH2 0x864 JUMPI PUSH2 0x863 PUSH2 0x77C JUMP JUMPDEST JUMPDEST PUSH2 0x86F DUP5 DUP3 DUP6 PUSH2 0x828 JUMP JUMPDEST POP SWAP4 SWAP3 POP POP POP JUMP JUMPDEST PUSH0 DUP3 PUSH1 0x1F DUP4 ADD SLT PUSH2 0x88B JUMPI PUSH2 0x88A PUSH2 0x778 JUMP JUMPDEST JUMPDEST DUP2 CALLDATALOAD PUSH2 0x89B DUP5 DUP3 PUSH1 0x20 DUP7 ADD PUSH2 0x836 JUMP JUMPDEST SWAP2 POP POP SWAP3 SWAP2 POP POP JUMP JUMPDEST PUSH0 PUSH1 0x20 DUP3 DUP5 SUB SLT ISZERO PUSH2 0x8B9 JUMPI PUSH2 0x8B8 PUSH2 0x4EE JUMP JUMPDEST JUMPDEST PUSH0 DUP3 ADD CALLDATALOAD PUSH8 0xFFFFFFFFFFFFFFFF DUP2 GT ISZERO PUSH2 0x8D6 JUMPI PUSH2 0x8D5 PUSH2 0x4F2 JUMP JUMPDEST JUMPDEST PUSH2 0x8E2 DUP5 DUP3 DUP6 ADD PUSH2 0x877 JUMP JUMPDEST SWAP2 POP POP SWAP3 SWAP2 POP POP JUMP JUMPDEST PUSH32 0x696E76616C6964207461736B20746F20636F6D706C6574650000000000000000 PUSH0 DUP3 ADD MSTORE POP JUMP JUMPDEST PUSH0 PUSH2 0x91F PUSH1 0x18 DUP4 PUSH2 0x55E JUMP JUMPDEST SWAP2 POP PUSH2 0x92A DUP3 PUSH2 0x8EB JUMP JUMPDEST PUSH1 0x20 DUP3 ADD SWAP1 POP SWAP2 SWAP1 POP JUMP JUMPDEST PUSH0 PUSH1 0x20 DUP3 ADD SWAP1 POP DUP2 DUP2 SUB PUSH0 DUP4 ADD MSTORE PUSH2 0x94C DUP2 PUSH2 0x913 JUMP JUMPDEST SWAP1 POP SWAP2 SWAP1 POP JUMP JUMPDEST PUSH32 0x4E487B7100000000000000000000000000000000000000000000000000000000 PUSH0 MSTORE PUSH1 0x32 PUSH1 0x4 MSTORE PUSH1 0x24 PUSH0 REVERT JUMPDEST PUSH32 0x4E487B7100000000000000000000000000000000000000000000000000000000 PUSH0 MSTORE PUSH1 0x22 PUSH1 0x4 MSTORE PUSH1 0x24 PUSH0 REVERT JUMPDEST PUSH0 PUSH1 0x2 DUP3 DIV SWAP1 POP PUSH1 0x1 DUP3 AND DUP1 PUSH2 0x9C4 JUMPI PUSH1 0x7F DUP3 AND SWAP2 POP JUMPDEST PUSH1 0x20 DUP3 LT DUP2 SUB PUSH2 0x9D7 JUMPI PUSH2 0x9D6 PUSH2 0x980 JUMP JUMPDEST JUMPDEST POP SWAP2 SWAP1 POP JUMP JUMPDEST PUSH0 DUP2 SWAP1 POP DUP2 PUSH0 MSTORE PUSH1 0x20 PUSH0 KECCAK256 SWAP1 POP SWAP2 SWAP1 POP JUMP JUMPDEST PUSH0 PUSH1 0x20 PUSH1 0x1F DUP4 ADD DIV SWAP1 POP SWAP2 SWAP1 POP JUMP JUMPDEST PUSH0 DUP3 DUP3 SHL SWAP1 POP SWAP3 SWAP2 POP POP JUMP JUMPDEST PUSH0 PUSH1 0x8 DUP4 MUL PUSH2 0xA39 PUSH32 0xFFFFFFFFFFFFFFFFFFFFFFFFFFFFFFFFFFFFFFFFFFFFFFFFFFFFFFFFFFFFFFFF DUP3 PUSH2 0x9FE JUMP JUMPDEST PUSH2 0xA43 DUP7 DUP4 PUSH2 0x9FE JUMP JUMPDEST SWAP6 POP DUP1 NOT DUP5 AND SWAP4 POP DUP1 DUP7 AND DUP5 OR SWAP3 POP POP POP SWAP4 SWAP3 POP POP POP JUMP JUMPDEST PUSH0 DUP2 SWAP1 POP SWAP2 SWAP1 POP JUMP JUMPDEST PUSH0 PUSH2 0xA7E PUSH2 0xA79 PUSH2 0xA74 DUP5 PUSH2 0x4F6 JUMP JUMPDEST PUSH2 0xA5B JUMP JUMPDEST PUSH2 0x4F6 JUMP JUMPDEST SWAP1 POP SWAP2 SWAP1 POP JUMP JUMPDEST PUSH0 DUP2 SWAP1 POP SWAP2 SWAP1 POP JUMP JUMPDEST PUSH2 0xA97 DUP4 PUSH2 0xA64 JUMP JUMPDEST PUSH2 0xAAB PUSH2 0xAA3 DUP3 PUSH2 0xA85 JUMP JUMPDEST DUP5 DUP5 SLOAD PUSH2 0xA0A JUMP JUMPDEST DUP3 SSTORE POP POP POP POP JUMP JUMPDEST PUSH0 SWAP1 JUMP JUMPDEST PUSH2 0xABF PUSH2 0xAB3 JUMP JUMPDEST PUSH2 0xACA DUP2 DUP5 DUP5 PUSH2 0xA8E JUMP JUMPDEST POP POP POP JUMP JUMPDEST JUMPDEST DUP2 DUP2 LT ISZERO PUSH2 0xAED JUMPI PUSH2 0xAE2 PUSH0 DUP3 PUSH2 0xAB7 JUMP JUMPDEST PUSH1 0x1 DUP2 ADD SWAP1 POP PUSH2 0xAD0 JUMP JUMPDEST POP POP JUMP JUMPDEST PUSH1 0x1F DUP3 GT ISZERO PUSH2 0xB32 JUMPI PUSH2 0xB03 DUP2 PUSH2 0x9DD JUMP JUMPDEST PUSH2 0xB0C DUP5 PUSH2 0x9EF JUMP JUMPDEST DUP2 ADD PUSH1 0x20 DUP6 LT ISZERO PUSH2 0xB1B JUMPI DUP2 SWAP1 POP JUMPDEST PUSH2 0xB2F PUSH2 0xB27 DUP6 PUSH2 0x9EF JUMP JUMPDEST DUP4 ADD DUP3 PUSH2 0xACF JUMP JUMPDEST POP POP JUMPDEST POP POP POP JUMP JUMPDEST PUSH0 DUP3 DUP3 SHR SWAP1 POP SWAP3 SWAP2 POP POP JUMP JUMPDEST PUSH0 PUSH2 0xB52 PUSH0 NOT DUP5 PUSH1 0x8 MUL PUSH2 0xB37 JUMP JUMPDEST NOT DUP1 DUP4 AND SWAP2 POP POP SWAP3 SWAP2 POP POP JUMP JUMPDEST PUSH0 PUSH2 0xB6A DUP4 DUP4 PUSH2 0xB43 JUMP JUMPDEST SWAP2 POP DUP3 PUSH1 0x2 MUL DUP3 OR SWAP1 POP SWAP3 SWAP2 POP POP JUMP JUMPDEST PUSH2 0xB83 DUP3 PUSH2 0x554 JUMP JUMPDEST PUSH8 0xFFFFFFFFFFFFFFFF DUP2 GT ISZERO PUSH2 0xB9C JUMPI PUSH2 0xB9B PUSH2 0x780 JUMP JUMPDEST JUMPDEST PUSH2 0xBA6 DUP3 SLOAD PUSH2 0x9AD JUMP JUMPDEST PUSH2 0xBB1 DUP3 DUP3 DUP6 PUSH2 0xAF1 JUMP JUMPDEST PUSH0 PUSH1 0x20 SWAP1 POP PUSH1 0x1F DUP4 GT PUSH1 0x1 DUP2 EQ PUSH2 0xBE2 JUMPI PUSH0 DUP5 ISZERO PUSH2 0xBD0 JUMPI DUP3 DUP8 ADD MLOAD SWAP1 POP JUMPDEST PUSH2 0xBDA DUP6 DUP3 PUSH2 0xB5F JUMP JUMPDEST DUP7 SSTORE POP PUSH2 0xC41 JUMP JUMPDEST PUSH1 0x1F NOT DUP5 AND PUSH2 0xBF0 DUP7 PUSH2 0x9DD JUMP JUMPDEST PUSH0 JUMPDEST DUP3 DUP2 LT ISZERO PUSH2 0xC17 JUMPI DUP5 DUP10 ADD MLOAD DUP3 SSTORE PUSH1 0x1 DUP3 ADD SWAP2 POP PUSH1 0x20 DUP6 ADD SWAP5 POP PUSH1 0x20 DUP2 ADD SWAP1 POP PUSH2 0xBF2 JUMP JUMPDEST DUP7 DUP4 LT ISZERO PUSH2 0xC34 JUMPI DUP5 DUP10 ADD MLOAD PUSH2 0xC30 PUSH1 0x1F DUP10 AND DUP3 PUSH2 0xB43 JUMP JUMPDEST DUP4 SSTORE POP JUMPDEST PUSH1 0x1 PUSH1 0x2 DUP9 MUL ADD DUP9 SSTORE POP POP POP JUMPDEST POP POP POP POP POP POP JUMP INVALID LOG2 PUSH5 0x6970667358 0x22 SLT KECCAK256 PUSH11 0x8D0416043B0B731862EA64 0xA6 MSIZE 0x28 0x2E 0xB1 0xC9 0xAE 0x4B PUSH2 0x2D0B BYTE EXTCODEHASH 0xB9 PUSH23 0x630E343FC364736F6C634300081A003300000000000000 "
		},
		"gasEstimates": {
			"creation": {
				"codeDepositCost": "639800",
				"executionCost": "668",
				"totalCost": "640468"
			},
			"external": {
				"addtask(string)": "infinite",
				"completetask(uint256)": "29145",
				"reviewspecfictask(uint256)": "infinite",
				"reviewtask()": "infinite"
			}
		},
		"methodIdentifiers": {
			"addtask(string)": "ffb2ce95",
			"completetask(uint256)": "1526f1f3",
			"reviewspecfictask(uint256)": "277460d9",
			"reviewtask()": "c86182b6"
		}
	},
	"abi": [
		{
			"inputs": [
				{
					"internalType": "string",
					"name": "_description",
					"type": "string"
				}
			],
			"name": "addtask",
			"outputs": [],
			"stateMutability": "nonpayable",
			"type": "function"
		},
		{
			"inputs": [
				{
					"internalType": "uint256",
					"name": "index",
					"type": "uint256"
				}
			],
			"name": "completetask",
			"outputs": [],
			"stateMutability": "nonpayable",
			"type": "function"
		},
		{
			"inputs": [
				{
					"internalType": "uint256",
					"name": "_index",
					"type": "uint256"
				}
			],
			"name": "reviewspecfictask",
			"outputs": [
				{
					"internalType": "string",
					"name": "",
					"type": "string"
				},
				{
					"internalType": "bool",
					"name": "",
					"type": "bool"
				}
			],
			"stateMutability": "view",
			"type": "function"
		},
		{
			"inputs": [],
			"name": "reviewtask",
			"outputs": [
				{
					"components": [
						{
							"internalType": "string",
							"name": "description",
							"type": "string"
						},
						{
							"internalType": "bool",
							"name": "iscompleted",
							"type": "bool"
						}
					],
					"internalType": "struct Todolist.task[]",
					"name": "",
					"type": "tuple[]"
				}
			],
			"stateMutability": "view",
			"type": "function"
		}
	]
}